{
  "contractName": "BXPP",
  "abi": [
    {
      "anonymous": false,
      "inputs": [
        {
          "indexed": true,
          "internalType": "address",
          "name": "owner",
          "type": "address"
        },
        {
          "indexed": true,
          "internalType": "address",
          "name": "approved",
          "type": "address"
        },
        {
          "indexed": true,
          "internalType": "uint256",
          "name": "tokenId",
          "type": "uint256"
        }
      ],
      "name": "Approval",
      "type": "event"
    },
    {
      "anonymous": false,
      "inputs": [
        {
          "indexed": true,
          "internalType": "address",
          "name": "owner",
          "type": "address"
        },
        {
          "indexed": true,
          "internalType": "address",
          "name": "operator",
          "type": "address"
        },
        {
          "indexed": false,
          "internalType": "bool",
          "name": "approved",
          "type": "bool"
        }
      ],
      "name": "ApprovalForAll",
      "type": "event"
    },
    {
      "anonymous": false,
      "inputs": [
        {
          "indexed": true,
          "internalType": "address",
          "name": "previousOwner",
          "type": "address"
        },
        {
          "indexed": true,
          "internalType": "address",
          "name": "newOwner",
          "type": "address"
        }
      ],
      "name": "OwnershipTransferred",
      "type": "event"
    },
    {
      "anonymous": false,
      "inputs": [
        {
          "indexed": false,
          "internalType": "address",
          "name": "account",
          "type": "address"
        }
      ],
      "name": "Paused",
      "type": "event"
    },
    {
      "anonymous": false,
      "inputs": [
        {
          "indexed": true,
          "internalType": "address",
          "name": "from",
          "type": "address"
        },
        {
          "indexed": true,
          "internalType": "address",
          "name": "to",
          "type": "address"
        },
        {
          "indexed": true,
          "internalType": "uint256",
          "name": "tokenId",
          "type": "uint256"
        }
      ],
      "name": "Transfer",
      "type": "event"
    },
    {
      "anonymous": false,
      "inputs": [
        {
          "indexed": false,
          "internalType": "address",
          "name": "account",
          "type": "address"
        }
      ],
      "name": "Unpaused",
      "type": "event"
    },
    {
      "inputs": [
        {
          "internalType": "address",
          "name": "to",
          "type": "address"
        },
        {
          "internalType": "uint256",
          "name": "tokenId",
          "type": "uint256"
        }
      ],
      "name": "approve",
      "outputs": [],
      "stateMutability": "nonpayable",
      "type": "function"
    },
    {
      "inputs": [
        {
          "internalType": "address",
          "name": "owner",
          "type": "address"
        }
      ],
      "name": "balanceOf",
      "outputs": [
        {
          "internalType": "uint256",
          "name": "",
          "type": "uint256"
        }
      ],
      "stateMutability": "view",
      "type": "function",
      "constant": true
    },
    {
      "inputs": [
        {
          "internalType": "uint256",
          "name": "tokenId",
          "type": "uint256"
        }
      ],
      "name": "burn",
      "outputs": [],
      "stateMutability": "nonpayable",
      "type": "function"
    },
    {
      "inputs": [
        {
          "internalType": "uint256",
          "name": "tokenId",
          "type": "uint256"
        }
      ],
      "name": "getApproved",
      "outputs": [
        {
          "internalType": "address",
          "name": "",
          "type": "address"
        }
      ],
      "stateMutability": "view",
      "type": "function",
      "constant": true
    },
    {
      "inputs": [
        {
          "internalType": "address",
          "name": "owner",
          "type": "address"
        },
        {
          "internalType": "address",
          "name": "operator",
          "type": "address"
        }
      ],
      "name": "isApprovedForAll",
      "outputs": [
        {
          "internalType": "bool",
          "name": "",
          "type": "bool"
        }
      ],
      "stateMutability": "view",
      "type": "function",
      "constant": true
    },
    {
      "inputs": [],
      "name": "name",
      "outputs": [
        {
          "internalType": "string",
          "name": "",
          "type": "string"
        }
      ],
      "stateMutability": "view",
      "type": "function",
      "constant": true
    },
    {
      "inputs": [],
      "name": "owner",
      "outputs": [
        {
          "internalType": "address",
          "name": "",
          "type": "address"
        }
      ],
      "stateMutability": "view",
      "type": "function",
      "constant": true
    },
    {
      "inputs": [
        {
          "internalType": "uint256",
          "name": "tokenId",
          "type": "uint256"
        }
      ],
      "name": "ownerOf",
      "outputs": [
        {
          "internalType": "address",
          "name": "",
          "type": "address"
        }
      ],
      "stateMutability": "view",
      "type": "function",
      "constant": true
    },
    {
      "inputs": [],
      "name": "paused",
      "outputs": [
        {
          "internalType": "bool",
          "name": "",
          "type": "bool"
        }
      ],
      "stateMutability": "view",
      "type": "function",
      "constant": true
    },
    {
      "inputs": [],
      "name": "renounceOwnership",
      "outputs": [],
      "stateMutability": "nonpayable",
      "type": "function"
    },
    {
      "inputs": [
        {
          "internalType": "address",
          "name": "from",
          "type": "address"
        },
        {
          "internalType": "address",
          "name": "to",
          "type": "address"
        },
        {
          "internalType": "uint256",
          "name": "tokenId",
          "type": "uint256"
        }
      ],
      "name": "safeTransferFrom",
      "outputs": [],
      "stateMutability": "nonpayable",
      "type": "function"
    },
    {
      "inputs": [
        {
          "internalType": "address",
          "name": "from",
          "type": "address"
        },
        {
          "internalType": "address",
          "name": "to",
          "type": "address"
        },
        {
          "internalType": "uint256",
          "name": "tokenId",
          "type": "uint256"
        },
        {
          "internalType": "bytes",
          "name": "_data",
          "type": "bytes"
        }
      ],
      "name": "safeTransferFrom",
      "outputs": [],
      "stateMutability": "nonpayable",
      "type": "function"
    },
    {
      "inputs": [
        {
          "internalType": "address",
          "name": "operator",
          "type": "address"
        },
        {
          "internalType": "bool",
          "name": "approved",
          "type": "bool"
        }
      ],
      "name": "setApprovalForAll",
      "outputs": [],
      "stateMutability": "nonpayable",
      "type": "function"
    },
    {
      "inputs": [],
      "name": "symbol",
      "outputs": [
        {
          "internalType": "string",
          "name": "",
          "type": "string"
        }
      ],
      "stateMutability": "view",
      "type": "function",
      "constant": true
    },
    {
      "inputs": [
        {
          "internalType": "uint256",
          "name": "index",
          "type": "uint256"
        }
      ],
      "name": "tokenByIndex",
      "outputs": [
        {
          "internalType": "uint256",
          "name": "",
          "type": "uint256"
        }
      ],
      "stateMutability": "view",
      "type": "function",
      "constant": true
    },
    {
      "inputs": [
        {
          "internalType": "address",
          "name": "owner",
          "type": "address"
        },
        {
          "internalType": "uint256",
          "name": "index",
          "type": "uint256"
        }
      ],
      "name": "tokenOfOwnerByIndex",
      "outputs": [
        {
          "internalType": "uint256",
          "name": "",
          "type": "uint256"
        }
      ],
      "stateMutability": "view",
      "type": "function",
      "constant": true
    },
    {
      "inputs": [
        {
          "internalType": "uint256",
          "name": "tokenId",
          "type": "uint256"
        }
      ],
      "name": "tokenURI",
      "outputs": [
        {
          "internalType": "string",
          "name": "",
          "type": "string"
        }
      ],
      "stateMutability": "view",
      "type": "function",
      "constant": true
    },
    {
      "inputs": [],
      "name": "totalSupply",
      "outputs": [
        {
          "internalType": "uint256",
          "name": "",
          "type": "uint256"
        }
      ],
      "stateMutability": "view",
      "type": "function",
      "constant": true
    },
    {
      "inputs": [
        {
          "internalType": "address",
          "name": "from",
          "type": "address"
        },
        {
          "internalType": "address",
          "name": "to",
          "type": "address"
        },
        {
          "internalType": "uint256",
          "name": "tokenId",
          "type": "uint256"
        }
      ],
      "name": "transferFrom",
      "outputs": [],
      "stateMutability": "nonpayable",
      "type": "function"
    },
    {
      "inputs": [
        {
          "internalType": "address",
          "name": "newOwner",
          "type": "address"
        }
      ],
      "name": "transferOwnership",
      "outputs": [],
      "stateMutability": "nonpayable",
      "type": "function"
    },
    {
      "inputs": [],
      "name": "initialize",
      "outputs": [],
      "stateMutability": "nonpayable",
      "type": "function"
    },
    {
      "inputs": [
        {
          "internalType": "string",
          "name": "_newBaseURI",
          "type": "string"
        }
      ],
      "name": "setBaseURI",
      "outputs": [],
      "stateMutability": "nonpayable",
      "type": "function"
    },
    {
      "inputs": [],
      "name": "getAllOnSale",
      "outputs": [
        {
          "components": [
            {
              "internalType": "uint256",
              "name": "id",
              "type": "uint256"
            },
            {
              "internalType": "uint256",
              "name": "price",
              "type": "uint256"
            },
            {
              "internalType": "string",
              "name": "name",
              "type": "string"
            },
            {
              "internalType": "string",
              "name": "image",
              "type": "string"
            },
            {
              "internalType": "bool",
              "name": "sale",
              "type": "bool"
            }
          ],
          "internalType": "struct BXPP.TokenMeta[]",
          "name": "",
          "type": "tuple[]"
        }
      ],
      "stateMutability": "view",
      "type": "function",
      "constant": true
    },
    {
      "inputs": [
        {
          "internalType": "uint256",
          "name": "_tokenId",
          "type": "uint256"
        },
        {
          "internalType": "bool",
          "name": "_sale",
          "type": "bool"
        },
        {
          "internalType": "uint256",
          "name": "_price",
          "type": "uint256"
        }
      ],
      "name": "setTokenSale",
      "outputs": [],
      "stateMutability": "nonpayable",
      "type": "function"
    },
    {
      "inputs": [
        {
          "internalType": "uint256",
          "name": "_tokenId",
          "type": "uint256"
        },
        {
          "internalType": "uint256",
          "name": "_price",
          "type": "uint256"
        }
      ],
      "name": "setTokenPrice",
      "outputs": [],
      "stateMutability": "nonpayable",
      "type": "function"
    },
    {
      "inputs": [
        {
          "internalType": "uint256",
          "name": "tokenId",
          "type": "uint256"
        }
      ],
      "name": "tokenPrice",
      "outputs": [
        {
          "internalType": "uint256",
          "name": "",
          "type": "uint256"
        }
      ],
      "stateMutability": "view",
      "type": "function",
      "constant": true
    },
    {
      "inputs": [
        {
          "internalType": "uint256",
          "name": "_tokenId",
          "type": "uint256"
        }
      ],
      "name": "tokenMeta",
      "outputs": [
        {
          "components": [
            {
              "internalType": "uint256",
              "name": "id",
              "type": "uint256"
            },
            {
              "internalType": "uint256",
              "name": "price",
              "type": "uint256"
            },
            {
              "internalType": "string",
              "name": "name",
              "type": "string"
            },
            {
              "internalType": "string",
              "name": "image",
              "type": "string"
            },
            {
              "internalType": "bool",
              "name": "sale",
              "type": "bool"
            }
          ],
          "internalType": "struct BXPP.TokenMeta",
          "name": "",
          "type": "tuple"
        }
      ],
      "stateMutability": "view",
      "type": "function",
      "constant": true
    },
    {
      "inputs": [
        {
          "internalType": "uint256",
          "name": "_tokenId",
          "type": "uint256"
        }
      ],
      "name": "purchaseToken",
      "outputs": [],
      "stateMutability": "payable",
      "type": "function",
      "payable": true
    },
    {
      "inputs": [
        {
          "internalType": "address",
          "name": "to",
          "type": "address"
        },
        {
          "internalType": "uint256",
          "name": "_price",
          "type": "uint256"
        },
        {
          "internalType": "string",
          "name": "_name",
          "type": "string"
        },
        {
          "internalType": "string",
          "name": "_image",
          "type": "string"
        }
      ],
      "name": "mintCollectable",
      "outputs": [
        {
          "internalType": "uint256",
          "name": "",
          "type": "uint256"
        }
      ],
      "stateMutability": "payable",
      "type": "function",
      "payable": true
    },
    {
      "inputs": [],
      "name": "pause",
      "outputs": [],
      "stateMutability": "nonpayable",
      "type": "function"
    },
    {
      "inputs": [],
      "name": "unpause",
      "outputs": [],
      "stateMutability": "nonpayable",
      "type": "function"
    },
    {
      "inputs": [
        {
          "internalType": "bytes4",
          "name": "interfaceId",
          "type": "bytes4"
        }
      ],
      "name": "supportsInterface",
      "outputs": [
        {
          "internalType": "bool",
          "name": "",
          "type": "bool"
        }
      ],
      "stateMutability": "view",
      "type": "function",
      "constant": true
    }
  ],
  "bytecode": "0x608060405234801561001057600080fd5b50615c2780620000216000396000f3fe6080604052600436106101e35760003560e01c80636387ede611610102578063a22cb46511610095578063d4ddce8a11610064578063d4ddce8a146106c2578063e985e9c5146106ff578063eb685c471461073c578063f2fde38b14610765576101e3565b8063a22cb46514610617578063b88d4fde14610640578063c2db2c4214610669578063c87b56dd14610685576101e3565b80638456cb59116100d15780638456cb591461057f5780638da5cb5b1461059657806390894559146105c157806395d89b41146105ec576101e3565b80636387ede6146104eb57806370a0823114610514578063715018a6146105515780638129fc1c14610568576101e3565b80633f4ba83a1161017a5780634f6ccce7116101495780634f6ccce71461041d57806355f804b31461045a5780635c975abb146104835780636352211e146104ae576101e3565b80633f4ba83a1461038457806342842e0e1461039b57806342966c68146103c457806345b6f9bd146103ed576101e3565b80630ae7a310116101b65780630ae7a310146102b657806318160ddd146102f357806323b872dd1461031e5780632f745c5914610347576101e3565b806301ffc9a7146101e857806306fdde0314610225578063081812fc14610250578063095ea7b31461028d575b600080fd5b3480156101f457600080fd5b5061020f600480360381019061020a9190613f03565b61078e565b60405161021c9190613f4b565b60405180910390f35b34801561023157600080fd5b5061023a6107a0565b6040516102479190613fff565b60405180910390f35b34801561025c57600080fd5b5061027760048036038101906102729190614057565b610832565b60405161028491906140c5565b60405180910390f35b34801561029957600080fd5b506102b460048036038101906102af919061410c565b6108b7565b005b3480156102c257600080fd5b506102dd60048036038101906102d89190614057565b6109ce565b6040516102ea9190614231565b60405180910390f35b3480156102ff57600080fd5b50610308610b61565b6040516103159190614262565b60405180910390f35b34801561032a57600080fd5b506103456004803603810190610340919061427d565b610b6e565b005b34801561035357600080fd5b5061036e6004803603810190610369919061410c565b610bce565b60405161037b9190614262565b60405180910390f35b34801561039057600080fd5b50610399610c73565b005b3480156103a757600080fd5b506103c260048036038101906103bd919061427d565b610cf9565b005b3480156103d057600080fd5b506103eb60048036038101906103e69190614057565b610d19565b005b61040760048036038101906104029190614405565b610d75565b6040516104149190614262565b60405180910390f35b34801561042957600080fd5b50610444600480360381019061043f9190614057565b610f40565b6040516104519190614262565b60405180910390f35b34801561046657600080fd5b50610481600480360381019061047c91906144a4565b610fb1565b005b34801561048f57600080fd5b50610498611048565b6040516104a59190613f4b565b60405180910390f35b3480156104ba57600080fd5b506104d560048036038101906104d09190614057565b611060565b6040516104e291906140c5565b60405180910390f35b3480156104f757600080fd5b50610512600480360381019061050d9190614519565b611111565b005b34801561052057600080fd5b5061053b6004803603810190610536919061456c565b6111eb565b6040516105489190614262565b60405180910390f35b34801561055d57600080fd5b506105666112a2565b005b34801561057457600080fd5b5061057d61132a565b005b34801561058b57600080fd5b506105946114ad565b005b3480156105a257600080fd5b506105ab611533565b6040516105b891906140c5565b60405180910390f35b3480156105cd57600080fd5b506105d661155d565b6040516105e391906146d8565b60405180910390f35b3480156105f857600080fd5b506106016117c2565b60405161060e9190613fff565b60405180910390f35b34801561062357600080fd5b5061063e600480360381019061063991906146fa565b611854565b005b34801561064c57600080fd5b50610667600480360381019061066291906147db565b6119d4565b005b610683600480360381019061067e9190614057565b611a36565b005b34801561069157600080fd5b506106ac60048036038101906106a79190614057565b611bc7565b6040516106b99190613fff565b60405180910390f35b3480156106ce57600080fd5b506106e960048036038101906106e49190614057565b611c6e565b6040516106f69190614262565b60405180910390f35b34801561070b57600080fd5b506107266004803603810190610721919061485e565b611cd7565b6040516107339190613f4b565b60405180910390f35b34801561074857600080fd5b50610763600480360381019061075e919061489e565b611d6b565b005b34801561077157600080fd5b5061078c6004803603810190610787919061456c565b611e1a565b005b600061079982611f11565b9050919050565b6060606580546107af9061490d565b80601f01602080910402602001604051908101604052809291908181526020018280546107db9061490d565b80156108285780601f106107fd57610100808354040283529160200191610828565b820191906000526020600020905b81548152906001019060200180831161080b57829003601f168201915b5050505050905090565b600061083d82611f8b565b61087c576040517f08c379a0000000000000000000000000000000000000000000000000000000008152600401610873906149b0565b60405180910390fd5b6069600083815260200190815260200160002060009054906101000a900473ffffffffffffffffffffffffffffffffffffffff169050919050565b60006108c282611060565b90508073ffffffffffffffffffffffffffffffffffffffff168373ffffffffffffffffffffffffffffffffffffffff1603610932576040517f08c379a000000000000000000000000000000000000000000000000000000000815260040161092990614a42565b60405180910390fd5b8073ffffffffffffffffffffffffffffffffffffffff16610951611ff7565b73ffffffffffffffffffffffffffffffffffffffff161480610980575061097f8161097a611ff7565b611cd7565b5b6109bf576040517f08c379a00000000000000000000000000000000000000000000000000000000081526004016109b690614ad4565b60405180910390fd5b6109c98383611fff565b505050565b6109d6613dc3565b6109df82611f8b565b6109e857600080fd5b6101c560008381526020019081526020016000206040518060a00160405290816000820154815260200160018201548152602001600282018054610a2b9061490d565b80601f0160208091040260200160405190810160405280929190818152602001828054610a579061490d565b8015610aa45780601f10610a7957610100808354040283529160200191610aa4565b820191906000526020600020905b815481529060010190602001808311610a8757829003601f168201915b50505050508152602001600382018054610abd9061490d565b80601f0160208091040260200160405190810160405280929190818152602001828054610ae99061490d565b8015610b365780601f10610b0b57610100808354040283529160200191610b36565b820191906000526020600020905b815481529060010190602001808311610b1957829003601f168201915b505050505081526020016004820160009054906101000a900460ff1615151515815250509050919050565b600060fd80549050905090565b610b7f610b79611ff7565b826120b8565b610bbe576040517f08c379a0000000000000000000000000000000000000000000000000000000008152600401610bb590614b66565b60405180910390fd5b610bc9838383612196565b505050565b6000610bd9836111eb565b8210610c1a576040517f08c379a0000000000000000000000000000000000000000000000000000000008152600401610c1190614bf8565b60405180910390fd5b60fb60008473ffffffffffffffffffffffffffffffffffffffff1673ffffffffffffffffffffffffffffffffffffffff168152602001908152602001600020600083815260200190815260200160002054905092915050565b610c7b611ff7565b73ffffffffffffffffffffffffffffffffffffffff16610c99611533565b73ffffffffffffffffffffffffffffffffffffffff1614610cef576040517f08c379a0000000000000000000000000000000000000000000000000000000008152600401610ce690614c64565b60405180910390fd5b610cf76123f1565b565b610d14838383604051806020016040528060008152506119d4565b505050565b610d2a610d24611ff7565b826120b8565b610d69576040517f08c379a0000000000000000000000000000000000000000000000000000000008152600401610d6090614cf6565b60405180910390fd5b610d7281612494565b50565b6000600260c95403610dbc576040517f08c379a0000000000000000000000000000000000000000000000000000000008152600401610db390614d62565b60405180910390fd5b600260c98190555083341015610e07576040517f08c379a0000000000000000000000000000000000000000000000000000000008152600401610dfe90614df4565b60405180910390fd5b60008411610e4a576040517f08c379a0000000000000000000000000000000000000000000000000000000008152600401610e4190614e86565b60405180910390fd5b60007321540da960c1c575beae67b37b8a538e697c79ed90508073ffffffffffffffffffffffffffffffffffffffff166108fc349081150290604051600060405180830381858888f19350505050158015610ea9573d6000803e3d6000fd5b50610ebe86610eb96101c36125a5565b6125b3565b60006040518060a00160405280610ed66101c36125a5565b8152602001878152602001868152602001858152602001600015158152509050610f0a610f046101c36125a5565b82612780565b610f156101c3612863565b6001610f226101c36125a5565b610f2c9190614ed5565b92505050600160c981905550949350505050565b6000610f4a610b61565b8210610f8b576040517f08c379a0000000000000000000000000000000000000000000000000000000008152600401610f8290614f7b565b60405180910390fd5b60fd8281548110610f9f57610f9e614f9b565b5b90600052602060002001549050919050565b610fb9611ff7565b73ffffffffffffffffffffffffffffffffffffffff16610fd7611533565b73ffffffffffffffffffffffffffffffffffffffff161461102d576040517f08c379a000000000000000000000000000000000000000000000000000000000815260040161102490614c64565b60405180910390fd5b806101c49080519060200190611044929190613df4565b5050565b600061015f60009054906101000a900460ff16905090565b6000806067600084815260200190815260200160002060009054906101000a900473ffffffffffffffffffffffffffffffffffffffff169050600073ffffffffffffffffffffffffffffffffffffffff168173ffffffffffffffffffffffffffffffffffffffff1603611108576040517f08c379a00000000000000000000000000000000000000000000000000000000081526004016110ff9061503c565b60405180910390fd5b80915050919050565b61111a83611f8b565b611159576040517f08c379a0000000000000000000000000000000000000000000000000000000008152600401611150906150ce565b60405180910390fd5b6000811161116657600080fd5b61116e611ff7565b73ffffffffffffffffffffffffffffffffffffffff1661118d84611060565b73ffffffffffffffffffffffffffffffffffffffff16146111ad57600080fd5b816101c5600085815260200190815260200160002060040160006101000a81548160ff0219169083151502179055506111e68382611d6b565b505050565b60008073ffffffffffffffffffffffffffffffffffffffff168273ffffffffffffffffffffffffffffffffffffffff160361125b576040517f08c379a000000000000000000000000000000000000000000000000000000000815260040161125290615160565b60405180910390fd5b606860008373ffffffffffffffffffffffffffffffffffffffff1673ffffffffffffffffffffffffffffffffffffffff168152602001908152602001600020549050919050565b6112aa611ff7565b73ffffffffffffffffffffffffffffffffffffffff166112c8611533565b73ffffffffffffffffffffffffffffffffffffffff161461131e576040517f08c379a000000000000000000000000000000000000000000000000000000000815260040161131590614c64565b60405180910390fd5b6113286000612879565b565b600060019054906101000a900460ff1680611350575060008054906101000a900460ff16155b61138f576040517f08c379a0000000000000000000000000000000000000000000000000000000008152600401611386906151f2565b60405180910390fd5b60008060019054906101000a900460ff1615905080156113df576001600060016101000a81548160ff02191690831515021790555060016000806101000a81548160ff0219169083151502179055505b6114896040518060400160405280601881526020017f42616920587565205069616f205069616f2054657374313100000000000000008152506040518060400160405280600a81526020017f42585050544553543131000000000000000000000000000000000000000000008152506040518060400160405280602081526020017f687474703a2f2f6c6f63616c686f73743a343030302f6465762f746f6b656e2f81525061293f565b80156114aa5760008060016101000a81548160ff0219169083151502179055505b50565b6114b5611ff7565b73ffffffffffffffffffffffffffffffffffffffff166114d3611533565b73ffffffffffffffffffffffffffffffffffffffff1614611529576040517f08c379a000000000000000000000000000000000000000000000000000000000815260040161152090614c64565b60405180910390fd5b611531612a6e565b565b6000609760009054906101000a900473ffffffffffffffffffffffffffffffffffffffff16905090565b6060600061156c6101c36125a5565b67ffffffffffffffff811115611585576115846142da565b5b6040519080825280602002602001820160405280156115be57816020015b6115ab613dc3565b8152602001906001900390816115a35790505b5090506000805b6115d06101c36125a5565b8110156117b957600115156101c5600083815260200190815260200160002060040160009054906101000a900460ff161515036117a6576101c560008281526020019081526020016000206040518060a0016040529081600082015481526020016001820154815260200160028201805461164a9061490d565b80601f01602080910402602001604051908101604052809291908181526020018280546116769061490d565b80156116c35780601f10611698576101008083540402835291602001916116c3565b820191906000526020600020905b8154815290600101906020018083116116a657829003601f168201915b505050505081526020016003820180546116dc9061490d565b80601f01602080910402602001604051908101604052809291908181526020018280546117089061490d565b80156117555780601f1061172a57610100808354040283529160200191611755565b820191906000526020600020905b81548152906001019060200180831161173857829003601f168201915b505050505081526020016004820160009054906101000a900460ff16151515158152505083838151811061178c5761178b614f9b565b5b602002602001018190525081806117a290615212565b9250505b80806117b190615212565b9150506115c5565b50819250505090565b6060606680546117d19061490d565b80601f01602080910402602001604051908101604052809291908181526020018280546117fd9061490d565b801561184a5780601f1061181f5761010080835404028352916020019161184a565b820191906000526020600020905b81548152906001019060200180831161182d57829003601f168201915b5050505050905090565b61185c611ff7565b73ffffffffffffffffffffffffffffffffffffffff168273ffffffffffffffffffffffffffffffffffffffff16036118c9576040517f08c379a00000000000000000000000000000000000000000000000000000000081526004016118c0906152a6565b60405180910390fd5b80606a60006118d6611ff7565b73ffffffffffffffffffffffffffffffffffffffff1673ffffffffffffffffffffffffffffffffffffffff16815260200190815260200160002060008473ffffffffffffffffffffffffffffffffffffffff1673ffffffffffffffffffffffffffffffffffffffff16815260200190815260200160002060006101000a81548160ff0219169083151502179055508173ffffffffffffffffffffffffffffffffffffffff16611983611ff7565b73ffffffffffffffffffffffffffffffffffffffff167f17307eab39ab6107e8899845ad3d59bd9653f200f220920489ca2b5937696c31836040516119c89190613f4b565b60405180910390a35050565b6119e56119df611ff7565b836120b8565b611a24576040517f08c379a0000000000000000000000000000000000000000000000000000000008152600401611a1b90614b66565b60405180910390fd5b611a3084848484612b12565b50505050565b600260c95403611a7b576040517f08c379a0000000000000000000000000000000000000000000000000000000008152600401611a7290614d62565b60405180910390fd5b600260c981905550600073ffffffffffffffffffffffffffffffffffffffff163373ffffffffffffffffffffffffffffffffffffffff1614158015611af45750611ac481611060565b73ffffffffffffffffffffffffffffffffffffffff163373ffffffffffffffffffffffffffffffffffffffff1614155b611afd57600080fd5b6101c5600082815260200190815260200160002060010154341015611b2157600080fd5b6000611b2c82611060565b90508073ffffffffffffffffffffffffffffffffffffffff166108fc349081150290604051600060405180830381858888f19350505050158015611b74573d6000803e3d6000fd5b50611b80816001611854565b611b8b813384612196565b60006101c5600084815260200190815260200160002060040160006101000a81548160ff02191690831515021790555050600160c98190555050565b6060611bd282611f8b565b611c11576040517f08c379a0000000000000000000000000000000000000000000000000000000008152600401611c0890615338565b60405180910390fd5b6000611c1b612b6e565b90506000815111611c3b5760405180602001604052806000815250611c66565b80611c4584612c01565b604051602001611c56929190615394565b6040516020818303038152906040525b915050919050565b6000611c7982611f8b565b611cb8576040517f08c379a0000000000000000000000000000000000000000000000000000000008152600401611caf9061542a565b60405180910390fd5b6101c56000838152602001908152602001600020600101549050919050565b6000606a60008473ffffffffffffffffffffffffffffffffffffffff1673ffffffffffffffffffffffffffffffffffffffff16815260200190815260200160002060008373ffffffffffffffffffffffffffffffffffffffff1673ffffffffffffffffffffffffffffffffffffffff16815260200190815260200160002060009054906101000a900460ff16905092915050565b611d7482611f8b565b611db3576040517f08c379a0000000000000000000000000000000000000000000000000000000008152600401611daa906154bc565b60405180910390fd5b611dbb611ff7565b73ffffffffffffffffffffffffffffffffffffffff16611dda83611060565b73ffffffffffffffffffffffffffffffffffffffff1614611dfa57600080fd5b806101c56000848152602001908152602001600020600101819055505050565b611e22611ff7565b73ffffffffffffffffffffffffffffffffffffffff16611e40611533565b73ffffffffffffffffffffffffffffffffffffffff1614611e96576040517f08c379a0000000000000000000000000000000000000000000000000000000008152600401611e8d90614c64565b60405180910390fd5b600073ffffffffffffffffffffffffffffffffffffffff168173ffffffffffffffffffffffffffffffffffffffff1603611f05576040517f08c379a0000000000000000000000000000000000000000000000000000000008152600401611efc9061554e565b60405180910390fd5b611f0e81612879565b50565b60007f780e9d63000000000000000000000000000000000000000000000000000000007bffffffffffffffffffffffffffffffffffffffffffffffffffffffff1916827bffffffffffffffffffffffffffffffffffffffffffffffffffffffff19161480611f845750611f8382612d61565b5b9050919050565b60008073ffffffffffffffffffffffffffffffffffffffff166067600084815260200190815260200160002060009054906101000a900473ffffffffffffffffffffffffffffffffffffffff1673ffffffffffffffffffffffffffffffffffffffff1614159050919050565b600033905090565b816069600083815260200190815260200160002060006101000a81548173ffffffffffffffffffffffffffffffffffffffff021916908373ffffffffffffffffffffffffffffffffffffffff160217905550808273ffffffffffffffffffffffffffffffffffffffff1661207283611060565b73ffffffffffffffffffffffffffffffffffffffff167f8c5be1e5ebec7d5bd14f71427d1e84f3dd0314c0f7b2291e5b200ac8c7c3b92560405160405180910390a45050565b60006120c382611f8b565b612102576040517f08c379a00000000000000000000000000000000000000000000000000000000081526004016120f9906155e0565b60405180910390fd5b600061210d83611060565b90508073ffffffffffffffffffffffffffffffffffffffff168473ffffffffffffffffffffffffffffffffffffffff16148061217c57508373ffffffffffffffffffffffffffffffffffffffff1661216484610832565b73ffffffffffffffffffffffffffffffffffffffff16145b8061218d575061218c8185611cd7565b5b91505092915050565b8273ffffffffffffffffffffffffffffffffffffffff166121b682611060565b73ffffffffffffffffffffffffffffffffffffffff161461220c576040517f08c379a000000000000000000000000000000000000000000000000000000000815260040161220390615672565b60405180910390fd5b600073ffffffffffffffffffffffffffffffffffffffff168273ffffffffffffffffffffffffffffffffffffffff160361227b576040517f08c379a000000000000000000000000000000000000000000000000000000000815260040161227290615704565b60405180910390fd5b612286838383612e43565b612291600082611fff565b6001606860008573ffffffffffffffffffffffffffffffffffffffff1673ffffffffffffffffffffffffffffffffffffffff16815260200190815260200160002060008282546122e19190614ed5565b925050819055506001606860008473ffffffffffffffffffffffffffffffffffffffff1673ffffffffffffffffffffffffffffffffffffffff16815260200190815260200160002060008282546123389190615724565b92505081905550816067600083815260200190815260200160002060006101000a81548173ffffffffffffffffffffffffffffffffffffffff021916908373ffffffffffffffffffffffffffffffffffffffff160217905550808273ffffffffffffffffffffffffffffffffffffffff168473ffffffffffffffffffffffffffffffffffffffff167fddf252ad1be2c89b69c2b068fc378daa952ba7f163c4a11628f55a4df523b3ef60405160405180910390a4505050565b6123f9611048565b612438576040517f08c379a000000000000000000000000000000000000000000000000000000000815260040161242f906157c6565b60405180910390fd5b600061015f60006101000a81548160ff0219169083151502179055507f5db9ee0a495bf2e6ff9c91a7834c1ba4fdd244a5e8aa4e537bd38aeae4b073aa61247d611ff7565b60405161248a91906140c5565b60405180910390a1565b600061249f82611060565b90506124ad81600084612e43565b6124b8600083611fff565b6001606860008373ffffffffffffffffffffffffffffffffffffffff1673ffffffffffffffffffffffffffffffffffffffff16815260200190815260200160002060008282546125089190614ed5565b925050819055506067600083815260200190815260200160002060006101000a81549073ffffffffffffffffffffffffffffffffffffffff021916905581600073ffffffffffffffffffffffffffffffffffffffff168273ffffffffffffffffffffffffffffffffffffffff167fddf252ad1be2c89b69c2b068fc378daa952ba7f163c4a11628f55a4df523b3ef60405160405180910390a45050565b600081600001549050919050565b600073ffffffffffffffffffffffffffffffffffffffff168273ffffffffffffffffffffffffffffffffffffffff1603612622576040517f08c379a000000000000000000000000000000000000000000000000000000000815260040161261990615832565b60405180910390fd5b61262b81611f8b565b1561266b576040517f08c379a00000000000000000000000000000000000000000000000000000000081526004016126629061589e565b60405180910390fd5b61267760008383612e43565b6001606860008473ffffffffffffffffffffffffffffffffffffffff1673ffffffffffffffffffffffffffffffffffffffff16815260200190815260200160002060008282546126c79190615724565b92505081905550816067600083815260200190815260200160002060006101000a81548173ffffffffffffffffffffffffffffffffffffffff021916908373ffffffffffffffffffffffffffffffffffffffff160217905550808273ffffffffffffffffffffffffffffffffffffffff16600073ffffffffffffffffffffffffffffffffffffffff167fddf252ad1be2c89b69c2b068fc378daa952ba7f163c4a11628f55a4df523b3ef60405160405180910390a45050565b61278982611f8b565b61279257600080fd5b61279a611ff7565b73ffffffffffffffffffffffffffffffffffffffff166127b983611060565b73ffffffffffffffffffffffffffffffffffffffff16146127d957600080fd5b806101c560008481526020019081526020016000206000820151816000015560208201518160010155604082015181600201908051906020019061281e929190613df4565b50606082015181600301908051906020019061283b929190613df4565b5060808201518160040160006101000a81548160ff0219169083151502179055509050505050565b6001816000016000828254019250508190555050565b6000609760009054906101000a900473ffffffffffffffffffffffffffffffffffffffff16905081609760006101000a81548173ffffffffffffffffffffffffffffffffffffffff021916908373ffffffffffffffffffffffffffffffffffffffff1602179055508173ffffffffffffffffffffffffffffffffffffffff168173ffffffffffffffffffffffffffffffffffffffff167f8be0079c531659141344cd1fd0a4f28419497f9722a3daafe3b4186f6b6457e060405160405180910390a35050565b600060019054906101000a900460ff1680612965575060008054906101000a900460ff16155b6129a4576040517f08c379a000000000000000000000000000000000000000000000000000000000815260040161299b906151f2565b60405180910390fd5b60008060019054906101000a900460ff1615905080156129f4576001600060016101000a81548160ff02191690831515021790555060016000806101000a81548160ff0219169083151502179055505b6129fc612e53565b612a04612f2c565b612a0e8484613005565b612a1661310e565b612a1e6131e7565b612a266132c0565b612a2e613399565b612a3661348e565b612a3e613577565b612a4782613658565b8015612a685760008060016101000a81548160ff0219169083151502179055505b50505050565b612a76611048565b15612ab6576040517f08c379a0000000000000000000000000000000000000000000000000000000008152600401612aad9061590a565b60405180910390fd5b600161015f60006101000a81548160ff0219169083151502179055507f62e78cea01bee320cd4e420270b5ea74000d11b0c9f74754ebdbfc544b05a258612afb611ff7565b604051612b0891906140c5565b60405180910390a1565b612b1d848484612196565b612b298484848461374a565b612b68576040517f08c379a0000000000000000000000000000000000000000000000000000000008152600401612b5f9061599c565b60405180910390fd5b50505050565b60606101c48054612b7e9061490d565b80601f0160208091040260200160405190810160405280929190818152602001828054612baa9061490d565b8015612bf75780601f10612bcc57610100808354040283529160200191612bf7565b820191906000526020600020905b815481529060010190602001808311612bda57829003601f168201915b5050505050905090565b606060008203612c48576040518060400160405280600181526020017f30000000000000000000000000000000000000000000000000000000000000008152509050612d5c565b600082905060005b60008214612c7a578080612c6390615212565b915050600a82612c7391906159eb565b9150612c50565b60008167ffffffffffffffff811115612c9657612c956142da565b5b6040519080825280601f01601f191660200182016040528015612cc85781602001600182028036833780820191505090505b5090505b60008514612d5557600182612ce19190614ed5565b9150600a85612cf09190615a1c565b6030612cfc9190615724565b60f81b818381518110612d1257612d11614f9b565b5b60200101907effffffffffffffffffffffffffffffffffffffffffffffffffffffffffffff1916908160001a905350600a85612d4e91906159eb565b9450612ccc565b8093505050505b919050565b60007f80ac58cd000000000000000000000000000000000000000000000000000000007bffffffffffffffffffffffffffffffffffffffffffffffffffffffff1916827bffffffffffffffffffffffffffffffffffffffffffffffffffffffff19161480612e2c57507f5b5e139f000000000000000000000000000000000000000000000000000000007bffffffffffffffffffffffffffffffffffffffffffffffffffffffff1916827bffffffffffffffffffffffffffffffffffffffffffffffffffffffff1916145b80612e3c5750612e3b826138d1565b5b9050919050565b612e4e83838361393b565b505050565b600060019054906101000a900460ff1680612e79575060008054906101000a900460ff16155b612eb8576040517f08c379a0000000000000000000000000000000000000000000000000000000008152600401612eaf906151f2565b60405180910390fd5b60008060019054906101000a900460ff161590508015612f08576001600060016101000a81548160ff02191690831515021790555060016000806101000a81548160ff0219169083151502179055505b8015612f295760008060016101000a81548160ff0219169083151502179055505b50565b600060019054906101000a900460ff1680612f52575060008054906101000a900460ff16155b612f91576040517f08c379a0000000000000000000000000000000000000000000000000000000008152600401612f88906151f2565b60405180910390fd5b60008060019054906101000a900460ff161590508015612fe1576001600060016101000a81548160ff02191690831515021790555060016000806101000a81548160ff0219169083151502179055505b80156130025760008060016101000a81548160ff0219169083151502179055505b50565b600060019054906101000a900460ff168061302b575060008054906101000a900460ff16155b61306a576040517f08c379a0000000000000000000000000000000000000000000000000000000008152600401613061906151f2565b60405180910390fd5b60008060019054906101000a900460ff1615905080156130ba576001600060016101000a81548160ff02191690831515021790555060016000806101000a81548160ff0219169083151502179055505b82606590805190602001906130d0929190613df4565b5081606690805190602001906130e7929190613df4565b5080156131095760008060016101000a81548160ff0219169083151502179055505b505050565b600060019054906101000a900460ff1680613134575060008054906101000a900460ff16155b613173576040517f08c379a000000000000000000000000000000000000000000000000000000000815260040161316a906151f2565b60405180910390fd5b60008060019054906101000a900460ff1615905080156131c3576001600060016101000a81548160ff02191690831515021790555060016000806101000a81548160ff0219169083151502179055505b80156131e45760008060016101000a81548160ff0219169083151502179055505b50565b600060019054906101000a900460ff168061320d575060008054906101000a900460ff16155b61324c576040517f08c379a0000000000000000000000000000000000000000000000000000000008152600401613243906151f2565b60405180910390fd5b60008060019054906101000a900460ff16159050801561329c576001600060016101000a81548160ff02191690831515021790555060016000806101000a81548160ff0219169083151502179055505b80156132bd5760008060016101000a81548160ff0219169083151502179055505b50565b600060019054906101000a900460ff16806132e6575060008054906101000a900460ff16155b613325576040517f08c379a000000000000000000000000000000000000000000000000000000000815260040161331c906151f2565b60405180910390fd5b60008060019054906101000a900460ff161590508015613375576001600060016101000a81548160ff02191690831515021790555060016000806101000a81548160ff0219169083151502179055505b80156133965760008060016101000a81548160ff0219169083151502179055505b50565b600060019054906101000a900460ff16806133bf575060008054906101000a900460ff16155b6133fe576040517f08c379a00000000000000000000000000000000000000000000000000000000081526004016133f5906151f2565b60405180910390fd5b60008060019054906101000a900460ff16159050801561344e576001600060016101000a81548160ff02191690831515021790555060016000806101000a81548160ff0219169083151502179055505b600061015f60006101000a81548160ff021916908315150217905550801561348b5760008060016101000a81548160ff0219169083151502179055505b50565b600060019054906101000a900460ff16806134b4575060008054906101000a900460ff16155b6134f3576040517f08c379a00000000000000000000000000000000000000000000000000000000081526004016134ea906151f2565b60405180910390fd5b60008060019054906101000a900460ff161590508015613543576001600060016101000a81548160ff02191690831515021790555060016000806101000a81548160ff0219169083151502179055505b61355361354e611ff7565b612879565b80156135745760008060016101000a81548160ff0219169083151502179055505b50565b600060019054906101000a900460ff168061359d575060008054906101000a900460ff16155b6135dc576040517f08c379a00000000000000000000000000000000000000000000000000000000081526004016135d3906151f2565b60405180910390fd5b60008060019054906101000a900460ff16159050801561362c576001600060016101000a81548160ff02191690831515021790555060016000806101000a81548160ff0219169083151502179055505b600160c98190555080156136555760008060016101000a81548160ff0219169083151502179055505b50565b600060019054906101000a900460ff168061367e575060008054906101000a900460ff16155b6136bd576040517f08c379a00000000000000000000000000000000000000000000000000000000081526004016136b4906151f2565b60405180910390fd5b60008060019054906101000a900460ff16159050801561370d576001600060016101000a81548160ff02191690831515021790555060016000806101000a81548160ff0219169083151502179055505b816101c49080519060200190613724929190613df4565b5080156137465760008060016101000a81548160ff0219169083151502179055505b5050565b600061376b8473ffffffffffffffffffffffffffffffffffffffff16613993565b156138c4578373ffffffffffffffffffffffffffffffffffffffff1663150b7a02613794611ff7565b8786866040518563ffffffff1660e01b81526004016137b69493929190615aa2565b6020604051808303816000875af19250505080156137f257506040513d601f19601f820116820180604052508101906137ef9190615b03565b60015b613874573d8060008114613822576040519150601f19603f3d011682016040523d82523d6000602084013e613827565b606091505b50600081510361386c576040517f08c379a00000000000000000000000000000000000000000000000000000000081526004016138639061599c565b60405180910390fd5b805181602001fd5b63150b7a0260e01b7bffffffffffffffffffffffffffffffffffffffffffffffffffffffff1916817bffffffffffffffffffffffffffffffffffffffffffffffffffffffff1916149150506138c9565b600190505b949350505050565b60007f01ffc9a7000000000000000000000000000000000000000000000000000000007bffffffffffffffffffffffffffffffffffffffffffffffffffffffff1916827bffffffffffffffffffffffffffffffffffffffffffffffffffffffff1916149050919050565b6139468383836139a6565b61394e611048565b1561398e576040517f08c379a000000000000000000000000000000000000000000000000000000000815260040161398590615ba2565b60405180910390fd5b505050565b600080823b905060008111915050919050565b6139b1838383613ab8565b600073ffffffffffffffffffffffffffffffffffffffff168373ffffffffffffffffffffffffffffffffffffffff16036139f3576139ee81613abd565b613a32565b8173ffffffffffffffffffffffffffffffffffffffff168373ffffffffffffffffffffffffffffffffffffffff1614613a3157613a308382613b06565b5b5b600073ffffffffffffffffffffffffffffffffffffffff168273ffffffffffffffffffffffffffffffffffffffff1603613a7457613a6f81613c73565b613ab3565b8273ffffffffffffffffffffffffffffffffffffffff168273ffffffffffffffffffffffffffffffffffffffff1614613ab257613ab18282613d44565b5b5b505050565b505050565b60fd8054905060fe60008381526020019081526020016000208190555060fd81908060018154018082558091505060019003906000526020600020016000909190919091505550565b60006001613b13846111eb565b613b1d9190614ed5565b9050600060fc6000848152602001908152602001600020549050818114613c0257600060fb60008673ffffffffffffffffffffffffffffffffffffffff1673ffffffffffffffffffffffffffffffffffffffff16815260200190815260200160002060008481526020019081526020016000205490508060fb60008773ffffffffffffffffffffffffffffffffffffffff1673ffffffffffffffffffffffffffffffffffffffff1681526020019081526020016000206000848152602001908152602001600020819055508160fc600083815260200190815260200160002081905550505b60fc60008481526020019081526020016000206000905560fb60008573ffffffffffffffffffffffffffffffffffffffff1673ffffffffffffffffffffffffffffffffffffffff16815260200190815260200160002060008381526020019081526020016000206000905550505050565b6000600160fd80549050613c879190614ed5565b9050600060fe6000848152602001908152602001600020549050600060fd8381548110613cb757613cb6614f9b565b5b906000526020600020015490508060fd8381548110613cd957613cd8614f9b565b5b90600052602060002001819055508160fe60008381526020019081526020016000208190555060fe60008581526020019081526020016000206000905560fd805480613d2857613d27615bc2565b5b6001900381819060005260206000200160009055905550505050565b6000613d4f836111eb565b90508160fb60008573ffffffffffffffffffffffffffffffffffffffff1673ffffffffffffffffffffffffffffffffffffffff1681526020019081526020016000206000838152602001908152602001600020819055508060fc600084815260200190815260200160002081905550505050565b6040518060a00160405280600081526020016000815260200160608152602001606081526020016000151581525090565b828054613e009061490d565b90600052602060002090601f016020900481019282613e225760008555613e69565b82601f10613e3b57805160ff1916838001178555613e69565b82800160010185558215613e69579182015b82811115613e68578251825591602001919060010190613e4d565b5b509050613e769190613e7a565b5090565b5b80821115613e93576000816000905550600101613e7b565b5090565b6000604051905090565b600080fd5b600080fd5b60007fffffffff0000000000000000000000000000000000000000000000000000000082169050919050565b613ee081613eab565b8114613eeb57600080fd5b50565b600081359050613efd81613ed7565b92915050565b600060208284031215613f1957613f18613ea1565b5b6000613f2784828501613eee565b91505092915050565b60008115159050919050565b613f4581613f30565b82525050565b6000602082019050613f606000830184613f3c565b92915050565b600081519050919050565b600082825260208201905092915050565b60005b83811015613fa0578082015181840152602081019050613f85565b83811115613faf576000848401525b50505050565b6000601f19601f8301169050919050565b6000613fd182613f66565b613fdb8185613f71565b9350613feb818560208601613f82565b613ff481613fb5565b840191505092915050565b600060208201905081810360008301526140198184613fc6565b905092915050565b6000819050919050565b61403481614021565b811461403f57600080fd5b50565b6000813590506140518161402b565b92915050565b60006020828403121561406d5761406c613ea1565b5b600061407b84828501614042565b91505092915050565b600073ffffffffffffffffffffffffffffffffffffffff82169050919050565b60006140af82614084565b9050919050565b6140bf816140a4565b82525050565b60006020820190506140da60008301846140b6565b92915050565b6140e9816140a4565b81146140f457600080fd5b50565b600081359050614106816140e0565b92915050565b6000806040838503121561412357614122613ea1565b5b6000614131858286016140f7565b925050602061414285828601614042565b9150509250929050565b61415581614021565b82525050565b600082825260208201905092915050565b600061417782613f66565b614181818561415b565b9350614191818560208601613f82565b61419a81613fb5565b840191505092915050565b6141ae81613f30565b82525050565b600060a0830160008301516141cc600086018261414c565b5060208301516141df602086018261414c565b50604083015184820360408601526141f7828261416c565b91505060608301518482036060860152614211828261416c565b915050608083015161422660808601826141a5565b508091505092915050565b6000602082019050818103600083015261424b81846141b4565b905092915050565b61425c81614021565b82525050565b60006020820190506142776000830184614253565b92915050565b60008060006060848603121561429657614295613ea1565b5b60006142a4868287016140f7565b93505060206142b5868287016140f7565b92505060406142c686828701614042565b9150509250925092565b600080fd5b600080fd5b7f4e487b7100000000000000000000000000000000000000000000000000000000600052604160045260246000fd5b61431282613fb5565b810181811067ffffffffffffffff82111715614331576143306142da565b5b80604052505050565b6000614344613e97565b90506143508282614309565b919050565b600067ffffffffffffffff8211156143705761436f6142da565b5b61437982613fb5565b9050602081019050919050565b82818337600083830152505050565b60006143a86143a384614355565b61433a565b9050828152602081018484840111156143c4576143c36142d5565b5b6143cf848285614386565b509392505050565b600082601f8301126143ec576143eb6142d0565b5b81356143fc848260208601614395565b91505092915050565b6000806000806080858703121561441f5761441e613ea1565b5b600061442d878288016140f7565b945050602061443e87828801614042565b935050604085013567ffffffffffffffff81111561445f5761445e613ea6565b5b61446b878288016143d7565b925050606085013567ffffffffffffffff81111561448c5761448b613ea6565b5b614498878288016143d7565b91505092959194509250565b6000602082840312156144ba576144b9613ea1565b5b600082013567ffffffffffffffff8111156144d8576144d7613ea6565b5b6144e4848285016143d7565b91505092915050565b6144f681613f30565b811461450157600080fd5b50565b600081359050614513816144ed565b92915050565b60008060006060848603121561453257614531613ea1565b5b600061454086828701614042565b935050602061455186828701614504565b925050604061456286828701614042565b9150509250925092565b60006020828403121561458257614581613ea1565b5b6000614590848285016140f7565b91505092915050565b600081519050919050565b600082825260208201905092915050565b6000819050602082019050919050565b600060a0830160008301516145dd600086018261414c565b5060208301516145f0602086018261414c565b5060408301518482036040860152614608828261416c565b91505060608301518482036060860152614622828261416c565b915050608083015161463760808601826141a5565b508091505092915050565b600061464e83836145c5565b905092915050565b6000602082019050919050565b600061466e82614599565b61467881856145a4565b93508360208202850161468a856145b5565b8060005b858110156146c657848403895281516146a78582614642565b94506146b283614656565b925060208a0199505060018101905061468e565b50829750879550505050505092915050565b600060208201905081810360008301526146f28184614663565b905092915050565b6000806040838503121561471157614710613ea1565b5b600061471f858286016140f7565b925050602061473085828601614504565b9150509250929050565b600067ffffffffffffffff821115614755576147546142da565b5b61475e82613fb5565b9050602081019050919050565b600061477e6147798461473a565b61433a565b90508281526020810184848401111561479a576147996142d5565b5b6147a5848285614386565b509392505050565b600082601f8301126147c2576147c16142d0565b5b81356147d284826020860161476b565b91505092915050565b600080600080608085870312156147f5576147f4613ea1565b5b6000614803878288016140f7565b9450506020614814878288016140f7565b935050604061482587828801614042565b925050606085013567ffffffffffffffff81111561484657614845613ea6565b5b614852878288016147ad565b91505092959194509250565b6000806040838503121561487557614874613ea1565b5b6000614883858286016140f7565b9250506020614894858286016140f7565b9150509250929050565b600080604083850312156148b5576148b4613ea1565b5b60006148c385828601614042565b92505060206148d485828601614042565b9150509250929050565b7f4e487b7100000000000000000000000000000000000000000000000000000000600052602260045260246000fd5b6000600282049050600182168061492557607f821691505b602082108103614938576149376148de565b5b50919050565b7f4552433732313a20617070726f76656420717565727920666f72206e6f6e657860008201527f697374656e7420746f6b656e0000000000000000000000000000000000000000602082015250565b600061499a602c83613f71565b91506149a58261493e565b604082019050919050565b600060208201905081810360008301526149c98161498d565b9050919050565b7f4552433732313a20617070726f76616c20746f2063757272656e74206f776e6560008201527f7200000000000000000000000000000000000000000000000000000000000000602082015250565b6000614a2c602183613f71565b9150614a37826149d0565b604082019050919050565b60006020820190508181036000830152614a5b81614a1f565b9050919050565b7f4552433732313a20617070726f76652063616c6c6572206973206e6f74206f7760008201527f6e6572206e6f7220617070726f76656420666f7220616c6c0000000000000000602082015250565b6000614abe603883613f71565b9150614ac982614a62565b604082019050919050565b60006020820190508181036000830152614aed81614ab1565b9050919050565b7f4552433732313a207472616e736665722063616c6c6572206973206e6f74206f60008201527f776e6572206e6f7220617070726f766564000000000000000000000000000000602082015250565b6000614b50603183613f71565b9150614b5b82614af4565b604082019050919050565b60006020820190508181036000830152614b7f81614b43565b9050919050565b7f455243373231456e756d657261626c653a206f776e657220696e646578206f7560008201527f74206f6620626f756e6473000000000000000000000000000000000000000000602082015250565b6000614be2602b83613f71565b9150614bed82614b86565b604082019050919050565b60006020820190508181036000830152614c1181614bd5565b9050919050565b7f4f776e61626c653a2063616c6c6572206973206e6f7420746865206f776e6572600082015250565b6000614c4e602083613f71565b9150614c5982614c18565b602082019050919050565b60006020820190508181036000830152614c7d81614c41565b9050919050565b7f4552433732314275726e61626c653a2063616c6c6572206973206e6f74206f7760008201527f6e6572206e6f7220617070726f76656400000000000000000000000000000000602082015250565b6000614ce0603083613f71565b9150614ceb82614c84565b604082019050919050565b60006020820190508181036000830152614d0f81614cd3565b9050919050565b7f5265656e7472616e637947756172643a207265656e7472616e742063616c6c00600082015250565b6000614d4c601f83613f71565b9150614d5782614d16565b602082019050919050565b60006020820190508181036000830152614d7b81614d3f565b9050919050565b7f425850503a206d757374206861766520656e6f756768206d6f6e657920746f2060008201527f6d696e742e000000000000000000000000000000000000000000000000000000602082015250565b6000614dde602583613f71565b9150614de982614d82565b604082019050919050565b60006020820190508181036000830152614e0d81614dd1565b9050919050565b7f425850503a20536f6d657468696e672077726f6e6721205072696365206d757360008201527f74206d6f7265207468616e20302e000000000000000000000000000000000000602082015250565b6000614e70602e83613f71565b9150614e7b82614e14565b604082019050919050565b60006020820190508181036000830152614e9f81614e63565b9050919050565b7f4e487b7100000000000000000000000000000000000000000000000000000000600052601160045260246000fd5b6000614ee082614021565b9150614eeb83614021565b925082821015614efe57614efd614ea6565b5b828203905092915050565b7f455243373231456e756d657261626c653a20676c6f62616c20696e646578206f60008201527f7574206f6620626f756e64730000000000000000000000000000000000000000602082015250565b6000614f65602c83613f71565b9150614f7082614f09565b604082019050919050565b60006020820190508181036000830152614f9481614f58565b9050919050565b7f4e487b7100000000000000000000000000000000000000000000000000000000600052603260045260246000fd5b7f4552433732313a206f776e657220717565727920666f72206e6f6e657869737460008201527f656e7420746f6b656e0000000000000000000000000000000000000000000000602082015250565b6000615026602983613f71565b915061503182614fca565b604082019050919050565b6000602082019050818103600083015261505581615019565b9050919050565b7f4552433732314d657461646174613a2053616c6520736574206f66206e6f6e6560008201527f78697374656e7420746f6b656e00000000000000000000000000000000000000602082015250565b60006150b8602d83613f71565b91506150c38261505c565b604082019050919050565b600060208201905081810360008301526150e7816150ab565b9050919050565b7f4552433732313a2062616c616e636520717565727920666f7220746865207a6560008201527f726f206164647265737300000000000000000000000000000000000000000000602082015250565b600061514a602a83613f71565b9150615155826150ee565b604082019050919050565b600060208201905081810360008301526151798161513d565b9050919050565b7f496e697469616c697a61626c653a20636f6e747261637420697320616c72656160008201527f647920696e697469616c697a6564000000000000000000000000000000000000602082015250565b60006151dc602e83613f71565b91506151e782615180565b604082019050919050565b6000602082019050818103600083015261520b816151cf565b9050919050565b600061521d82614021565b91507fffffffffffffffffffffffffffffffffffffffffffffffffffffffffffffffff820361524f5761524e614ea6565b5b600182019050919050565b7f4552433732313a20617070726f766520746f2063616c6c657200000000000000600082015250565b6000615290601983613f71565b915061529b8261525a565b602082019050919050565b600060208201905081810360008301526152bf81615283565b9050919050565b7f4552433732314d657461646174613a2055524920717565727920666f72206e6f60008201527f6e6578697374656e7420746f6b656e0000000000000000000000000000000000602082015250565b6000615322602f83613f71565b915061532d826152c6565b604082019050919050565b6000602082019050818103600083015261535181615315565b9050919050565b600081905092915050565b600061536e82613f66565b6153788185615358565b9350615388818560208601613f82565b80840191505092915050565b60006153a08285615363565b91506153ac8284615363565b91508190509392505050565b7f4552433732314d657461646174613a20507269636520717565727920666f722060008201527f6e6f6e6578697374656e7420746f6b656e000000000000000000000000000000602082015250565b6000615414603183613f71565b915061541f826153b8565b604082019050919050565b6000602082019050818103600083015261544381615407565b9050919050565b7f4552433732314d657461646174613a20507269636520736574206f66206e6f6e60008201527f6578697374656e7420746f6b656e000000000000000000000000000000000000602082015250565b60006154a6602e83613f71565b91506154b18261544a565b604082019050919050565b600060208201905081810360008301526154d581615499565b9050919050565b7f4f776e61626c653a206e6577206f776e657220697320746865207a65726f206160008201527f6464726573730000000000000000000000000000000000000000000000000000602082015250565b6000615538602683613f71565b9150615543826154dc565b604082019050919050565b600060208201905081810360008301526155678161552b565b9050919050565b7f4552433732313a206f70657261746f7220717565727920666f72206e6f6e657860008201527f697374656e7420746f6b656e0000000000000000000000000000000000000000602082015250565b60006155ca602c83613f71565b91506155d58261556e565b604082019050919050565b600060208201905081810360008301526155f9816155bd565b9050919050565b7f4552433732313a207472616e73666572206f6620746f6b656e2074686174206960008201527f73206e6f74206f776e0000000000000000000000000000000000000000000000602082015250565b600061565c602983613f71565b915061566782615600565b604082019050919050565b6000602082019050818103600083015261568b8161564f565b9050919050565b7f4552433732313a207472616e7366657220746f20746865207a65726f2061646460008201527f7265737300000000000000000000000000000000000000000000000000000000602082015250565b60006156ee602483613f71565b91506156f982615692565b604082019050919050565b6000602082019050818103600083015261571d816156e1565b9050919050565b600061572f82614021565b915061573a83614021565b9250827fffffffffffffffffffffffffffffffffffffffffffffffffffffffffffffffff0382111561576f5761576e614ea6565b5b828201905092915050565b7f5061757361626c653a206e6f7420706175736564000000000000000000000000600082015250565b60006157b0601483613f71565b91506157bb8261577a565b602082019050919050565b600060208201905081810360008301526157df816157a3565b9050919050565b7f4552433732313a206d696e7420746f20746865207a65726f2061646472657373600082015250565b600061581c602083613f71565b9150615827826157e6565b602082019050919050565b6000602082019050818103600083015261584b8161580f565b9050919050565b7f4552433732313a20746f6b656e20616c7265616479206d696e74656400000000600082015250565b6000615888601c83613f71565b915061589382615852565b602082019050919050565b600060208201905081810360008301526158b78161587b565b9050919050565b7f5061757361626c653a2070617573656400000000000000000000000000000000600082015250565b60006158f4601083613f71565b91506158ff826158be565b602082019050919050565b60006020820190508181036000830152615923816158e7565b9050919050565b7f4552433732313a207472616e7366657220746f206e6f6e20455243373231526560008201527f63656976657220696d706c656d656e7465720000000000000000000000000000602082015250565b6000615986603283613f71565b91506159918261592a565b604082019050919050565b600060208201905081810360008301526159b581615979565b9050919050565b7f4e487b7100000000000000000000000000000000000000000000000000000000600052601260045260246000fd5b60006159f682614021565b9150615a0183614021565b925082615a1157615a106159bc565b5b828204905092915050565b6000615a2782614021565b9150615a3283614021565b925082615a4257615a416159bc565b5b828206905092915050565b600081519050919050565b600082825260208201905092915050565b6000615a7482615a4d565b615a7e8185615a58565b9350615a8e818560208601613f82565b615a9781613fb5565b840191505092915050565b6000608082019050615ab760008301876140b6565b615ac460208301866140b6565b615ad16040830185614253565b8181036060830152615ae38184615a69565b905095945050505050565b600081519050615afd81613ed7565b92915050565b600060208284031215615b1957615b18613ea1565b5b6000615b2784828501615aee565b91505092915050565b7f4552433732315061757361626c653a20746f6b656e207472616e73666572207760008201527f68696c6520706175736564000000000000000000000000000000000000000000602082015250565b6000615b8c602b83613f71565b9150615b9782615b30565b604082019050919050565b60006020820190508181036000830152615bbb81615b7f565b9050919050565b7f4e487b7100000000000000000000000000000000000000000000000000000000600052603160045260246000fdfea26469706673582212203088a70e02c9f15e0a26b900369760995005ab6f4c1c95dd81b8e7f9fa9c16b364736f6c634300080d0033",
  "immutableReferences": {},
  "source": "// SPDX-License-Identifier: MIT\npragma solidity >=0.4.22 <0.9.0;\npragma experimental ABIEncoderV2;\n\nimport \"../node_modules/@openzeppelin/contracts-upgradeable/token/ERC721/ERC721Upgradeable.sol\";\nimport \"../node_modules/@openzeppelin/contracts-upgradeable/token/ERC721/extensions/ERC721EnumerableUpgradeable.sol\";\nimport \"../node_modules/@openzeppelin/contracts-upgradeable/token/ERC721/extensions/ERC721BurnableUpgradeable.sol\";\nimport \"../node_modules/@openzeppelin/contracts-upgradeable/token/ERC721/extensions/ERC721PausableUpgradeable.sol\";\nimport \"../node_modules/@openzeppelin/contracts-upgradeable/access/OwnableUpgradeable.sol\";\nimport \"../node_modules/@openzeppelin/contracts-upgradeable/security/ReentrancyGuardUpgradeable.sol\";\nimport \"../node_modules/@openzeppelin/contracts-upgradeable/utils/CountersUpgradeable.sol\";\n\n\ncontract BXPP is \n    ContextUpgradeable,\n    ERC721Upgradeable, \n    OwnableUpgradeable, \n    ReentrancyGuardUpgradeable,\n    ERC721EnumerableUpgradeable,\n    ERC721BurnableUpgradeable,\n    ERC721PausableUpgradeable\n{\n    function initialize(\n    ) public virtual initializer {\n        __BXPP_init(\"Bai Xue Piao Piao Test11\", \n                     \"BXPPTEST11\", \n                     // \"https://2kz9yd8ztj.execute-api.us-east-1.amazonaws.com/Prod/token/\",\n                     \"http://localhost:4000/dev/token/\"\n\n        );\n    }\n    using CountersUpgradeable for CountersUpgradeable.Counter;\n    CountersUpgradeable.Counter private _tokenIds;\n\n    string private _baseTokenURI;\n\n    mapping (uint256 => TokenMeta) private _tokenMeta;\n    struct TokenMeta {\n        uint256 id;\n        uint256 price;\n        string name;\n        string image;\n        bool sale;\n    }\n\n    /**\n     * @dev Grants `DEFAULT_ADMIN_ROLE`, `MINTER_ROLE` and `PAUSER_ROLE` to the\n     * account that deploys the contract.\n     *\n     * Token URIs will be autogenerated based on `baseURI` and their token IDs.\n     * See {ERC721-tokenURI}.\n     */\n    function __BXPP_init(\n        string memory name,\n        string memory symbol,\n        string memory baseTokenURI\n    ) internal initializer {\n        __Context_init_unchained();\n        __ERC165_init_unchained();\n        __ERC721_init_unchained(name, symbol);\n        __ERC721Enumerable_init_unchained();\n        __ERC721Burnable_init_unchained();\n        __ERC721Pausable_init_unchained();\n        __Pausable_init_unchained();\n        __Ownable_init_unchained();\n        __ReentrancyGuard_init_unchained();\n        __BXPP_init_unchained(baseTokenURI);\n    }\n\n    function __BXPP_init_unchained( string memory baseTokenURI ) internal initializer {\n        _baseTokenURI = baseTokenURI;\n    }\n\n    /**\n     * @dev Base URI for computing {tokenURI}. Empty by default, can be overriden\n     * in child contracts.\n     */\n\n    function _baseURI() internal view virtual override returns (string memory) {\n        return _baseTokenURI;\n    }\n\n    function setBaseURI(string memory _newBaseURI) public virtual onlyOwner {\n        _baseTokenURI = _newBaseURI;\n    }\n\n    function getAllOnSale () public view virtual returns( TokenMeta[] memory ) {\n        TokenMeta[] memory tokensOnSale = new TokenMeta[](_tokenIds.current());\n        uint256 counter = 0;\n\n        for(uint i = 0; i < _tokenIds.current(); i++) {\n            if(_tokenMeta[i].sale == true) {\n                tokensOnSale[counter] = _tokenMeta[i];\n                counter++;\n            }\n        }\n        return tokensOnSale;\n    }\n\n    /**\n     * @dev sets maps token to its price\n     * @param _tokenId uint256 token ID (token number)\n     * @param _sale bool token on sale\n     * @param _price unit256 token price\n     * \n     * Requirements: \n     * `tokenId` must exist\n     * `price` must be more than 0\n     * `owner` must the msg.owner\n     */\n    function setTokenSale(uint256 _tokenId, bool _sale, uint256 _price) public {\n        require(_exists(_tokenId), \"ERC721Metadata: Sale set of nonexistent token\");\n        require(_price > 0);\n        require(ownerOf(_tokenId) == _msgSender());\n\n        _tokenMeta[_tokenId].sale = _sale;\n        setTokenPrice(_tokenId, _price);\n    }\n\n    /**\n     * @dev sets maps token to its price\n     * @param _tokenId uint256 token ID (token number)\n     * @param _price uint256 token price\n     * \n     * Requirements: \n     * `tokenId` must exist\n     * `owner` must the msg.owner\n     */\n    function setTokenPrice(uint256 _tokenId, uint256 _price) public {\n        require(_exists(_tokenId), \"ERC721Metadata: Price set of nonexistent token\");\n        require(ownerOf(_tokenId) == _msgSender());\n        _tokenMeta[_tokenId].price = _price;\n    }\n\n    function tokenPrice(uint256 tokenId) public view virtual returns (uint256) {\n        require(_exists(tokenId), \"ERC721Metadata: Price query for nonexistent token\");\n        return _tokenMeta[tokenId].price;\n    }\n\n    /**\n     * @dev sets token meta\n     * @param _tokenId uint256 token ID (token number)\n     * @param _meta TokenMeta \n     * \n     * Requirements: \n     * `tokenId` must exist\n     * `owner` must the msg.owner\n     */\n    function _setTokenMeta(uint256 _tokenId, TokenMeta memory _meta) private {\n        require(_exists(_tokenId));\n        require(ownerOf(_tokenId) == _msgSender());\n        _tokenMeta[_tokenId] = _meta;\n    }\n\n    function tokenMeta(uint256 _tokenId) public view returns (TokenMeta memory) {\n        require(_exists(_tokenId));\n        return _tokenMeta[_tokenId];\n    }\n\n    /**\n     * @dev purchase _tokenId\n     * @param _tokenId uint256 token ID (token number)\n     */\n    function purchaseToken(uint256 _tokenId) public payable nonReentrant {\n        require(msg.sender != address(0) && msg.sender != ownerOf(_tokenId));\n        require(msg.value >= _tokenMeta[_tokenId].price);\n        address tokenSeller = ownerOf(_tokenId);\n\n        payable(tokenSeller).transfer(msg.value);\n\n        setApprovalForAll(tokenSeller, true);\n        _transfer(tokenSeller, msg.sender, _tokenId);\n        _tokenMeta[_tokenId].sale = false;\n    }\n\n\n    /**\n     * @dev Creates a new token for `to`. Its token ID will be automatically\n     * assigned (and available on the emitted {IERC721-Transfer} event), and the token\n     * URI autogenerated based on the base URI passed at construction.\n     *\n     * See {ERC721-_mint}.\n     *\n     * Requirements:\n     *\n     * - the caller must have the `MINTER_ROLE`.\n     */\n    function mintCollectable(\n        address to, \n        uint256 _price, \n        string memory _name, \n        string memory _image\n    ) public payable nonReentrant returns (uint256) {\n        require(msg.value >= _price, \"BXPP: must have enough money to mint.\");\n        require(_price > 0, \"BXPP: Something wrong! Price must more than 0.\");\n\n        address creator = 0x21540DA960C1C575BEAe67b37B8a538e697c79eD; // RinkebyUser2\n        payable(creator).transfer(msg.value);\n\n        \n        _mint(to, _tokenIds.current());\n\n        // Mintsalefalse\n        TokenMeta memory meta = TokenMeta(_tokenIds.current(), _price, _name, _image, false);\n        _setTokenMeta(_tokenIds.current(), meta);    \n\n        _tokenIds.increment();\n\n        return _tokenIds.current() - 1;\n    }\n\n    /**\n     * @dev Pauses all token transfers.\n     *\n     * See {ERC721Pausable} and {Pausable-_pause}.\n     *\n     * Requirements:\n     *\n     * - the caller must have the `PAUSER_ROLE`.\n     */\n    function pause() public virtual onlyOwner {\n        // require(hasRole(PAUSER_ROLE, _msgSender()), \"ERC721PresetMinterPauserAutoId: must have pauser role to pause\");\n        _pause();\n    }\n\n    /**\n     * @dev Unpauses all token transfers.\n     *\n     * See {ERC721Pausable} and {Pausable-_unpause}.\n     *\n     * Requirements:\n     *\n     * - the caller must have the `PAUSER_ROLE`.\n     */\n    function unpause() public virtual onlyOwner {\n        // require(hasRole(PAUSER_ROLE, _msgSender()), \"ERC721PresetMinterPauserAutoId: must have pauser role to unpause\");\n        _unpause();\n    }\n\n    function _beforeTokenTransfer(\n        address from,\n        address to,\n        uint256 tokenId\n    ) internal virtual override(ERC721Upgradeable, ERC721EnumerableUpgradeable, ERC721PausableUpgradeable) {\n        super._beforeTokenTransfer(from, to, tokenId);\n    }\n\n    /**\n     * @dev See {IERC165-supportsInterface}.\n     */\n    function supportsInterface(bytes4 interfaceId)\n        public\n        view\n        virtual\n        override(ERC721Upgradeable, ERC721EnumerableUpgradeable)\n        returns (bool)\n    {\n        return super.supportsInterface(interfaceId);\n    }\n    uint256[48] private __gap;\n}",
  "sourcePath": "/Users/liyufei/nft-contracts/contracts/BXPP.sol",
  "compiler": {
    "name": "solc",
    "version": "0.8.13+commit.abaa5c0e.Emscripten.clang"
  },
  "schemaVersion": "3.4.1",
  "updatedAt": "2022-04-19T07:48:22.536Z",
  "networkType": "ethereum",
  "devdoc": {
    "kind": "dev",
    "methods": {
      "approve(address,uint256)": {
        "details": "See {IERC721-approve}."
      },
      "balanceOf(address)": {
        "details": "See {IERC721-balanceOf}."
      },
      "burn(uint256)": {
        "details": "Burns `tokenId`. See {ERC721-_burn}. Requirements: - The caller must own `tokenId` or be an approved operator."
      },
      "getApproved(uint256)": {
        "details": "See {IERC721-getApproved}."
      },
      "isApprovedForAll(address,address)": {
        "details": "See {IERC721-isApprovedForAll}."
      },
      "mintCollectable(address,uint256,string,string)": {
        "details": "Creates a new token for `to`. Its token ID will be automatically assigned (and available on the emitted {IERC721-Transfer} event), and the token URI autogenerated based on the base URI passed at construction. See {ERC721-_mint}. Requirements: - the caller must have the `MINTER_ROLE`."
      },
      "name()": {
        "details": "See {IERC721Metadata-name}."
      },
      "owner()": {
        "details": "Returns the address of the current owner."
      },
      "ownerOf(uint256)": {
        "details": "See {IERC721-ownerOf}."
      },
      "pause()": {
        "details": "Pauses all token transfers. See {ERC721Pausable} and {Pausable-_pause}. Requirements: - the caller must have the `PAUSER_ROLE`."
      },
      "paused()": {
        "details": "Returns true if the contract is paused, and false otherwise."
      },
      "purchaseToken(uint256)": {
        "details": "purchase _tokenId",
        "params": {
          "_tokenId": "uint256 token ID (token number)"
        }
      },
      "renounceOwnership()": {
        "details": "Leaves the contract without owner. It will not be possible to call `onlyOwner` functions anymore. Can only be called by the current owner. NOTE: Renouncing ownership will leave the contract without an owner, thereby removing any functionality that is only available to the owner."
      },
      "safeTransferFrom(address,address,uint256)": {
        "details": "See {IERC721-safeTransferFrom}."
      },
      "safeTransferFrom(address,address,uint256,bytes)": {
        "details": "See {IERC721-safeTransferFrom}."
      },
      "setApprovalForAll(address,bool)": {
        "details": "See {IERC721-setApprovalForAll}."
      },
      "setTokenPrice(uint256,uint256)": {
        "details": "sets maps token to its price",
        "params": {
          "_price": "uint256 token price  Requirements:  `tokenId` must exist `owner` must the msg.owner",
          "_tokenId": "uint256 token ID (token number)"
        }
      },
      "setTokenSale(uint256,bool,uint256)": {
        "details": "sets maps token to its price",
        "params": {
          "_price": "unit256 token price  Requirements:  `tokenId` must exist `price` must be more than 0 `owner` must the msg.owner",
          "_sale": "bool token on sale",
          "_tokenId": "uint256 token ID (token number)"
        }
      },
      "supportsInterface(bytes4)": {
        "details": "See {IERC165-supportsInterface}."
      },
      "symbol()": {
        "details": "See {IERC721Metadata-symbol}."
      },
      "tokenByIndex(uint256)": {
        "details": "See {IERC721Enumerable-tokenByIndex}."
      },
      "tokenOfOwnerByIndex(address,uint256)": {
        "details": "See {IERC721Enumerable-tokenOfOwnerByIndex}."
      },
      "tokenURI(uint256)": {
        "details": "See {IERC721Metadata-tokenURI}."
      },
      "totalSupply()": {
        "details": "See {IERC721Enumerable-totalSupply}."
      },
      "transferFrom(address,address,uint256)": {
        "details": "See {IERC721-transferFrom}."
      },
      "transferOwnership(address)": {
        "details": "Transfers ownership of the contract to a new account (`newOwner`). Can only be called by the current owner."
      },
      "unpause()": {
        "details": "Unpauses all token transfers. See {ERC721Pausable} and {Pausable-_unpause}. Requirements: - the caller must have the `PAUSER_ROLE`."
      }
    },
    "version": 1
  },
  "userdoc": {
    "kind": "user",
    "methods": {},
    "version": 1
  }
}