{
  "contractName": "BXPP",
  "abi": [
    {
      "anonymous": false,
      "inputs": [
        {
          "indexed": true,
          "internalType": "address",
          "name": "owner",
          "type": "address"
        },
        {
          "indexed": true,
          "internalType": "address",
          "name": "approved",
          "type": "address"
        },
        {
          "indexed": true,
          "internalType": "uint256",
          "name": "tokenId",
          "type": "uint256"
        }
      ],
      "name": "Approval",
      "type": "event"
    },
    {
      "anonymous": false,
      "inputs": [
        {
          "indexed": true,
          "internalType": "address",
          "name": "owner",
          "type": "address"
        },
        {
          "indexed": true,
          "internalType": "address",
          "name": "operator",
          "type": "address"
        },
        {
          "indexed": false,
          "internalType": "bool",
          "name": "approved",
          "type": "bool"
        }
      ],
      "name": "ApprovalForAll",
      "type": "event"
    },
    {
      "anonymous": false,
      "inputs": [
        {
          "indexed": false,
          "internalType": "uint8",
          "name": "version",
          "type": "uint8"
        }
      ],
      "name": "Initialized",
      "type": "event"
    },
    {
      "anonymous": false,
      "inputs": [
        {
          "indexed": true,
          "internalType": "address",
          "name": "previousOwner",
          "type": "address"
        },
        {
          "indexed": true,
          "internalType": "address",
          "name": "newOwner",
          "type": "address"
        }
      ],
      "name": "OwnershipTransferred",
      "type": "event"
    },
    {
      "anonymous": false,
      "inputs": [
        {
          "indexed": false,
          "internalType": "address",
          "name": "account",
          "type": "address"
        }
      ],
      "name": "Paused",
      "type": "event"
    },
    {
      "anonymous": false,
      "inputs": [
        {
          "indexed": true,
          "internalType": "address",
          "name": "from",
          "type": "address"
        },
        {
          "indexed": true,
          "internalType": "address",
          "name": "to",
          "type": "address"
        },
        {
          "indexed": true,
          "internalType": "uint256",
          "name": "tokenId",
          "type": "uint256"
        }
      ],
      "name": "Transfer",
      "type": "event"
    },
    {
      "anonymous": false,
      "inputs": [
        {
          "indexed": false,
          "internalType": "address",
          "name": "account",
          "type": "address"
        }
      ],
      "name": "Unpaused",
      "type": "event"
    },
    {
      "inputs": [
        {
          "internalType": "address",
          "name": "to",
          "type": "address"
        },
        {
          "internalType": "uint256",
          "name": "tokenId",
          "type": "uint256"
        }
      ],
      "name": "approve",
      "outputs": [],
      "stateMutability": "nonpayable",
      "type": "function"
    },
    {
      "inputs": [
        {
          "internalType": "address",
          "name": "owner",
          "type": "address"
        }
      ],
      "name": "balanceOf",
      "outputs": [
        {
          "internalType": "uint256",
          "name": "",
          "type": "uint256"
        }
      ],
      "stateMutability": "view",
      "type": "function",
      "constant": true
    },
    {
      "inputs": [
        {
          "internalType": "uint256",
          "name": "tokenId",
          "type": "uint256"
        }
      ],
      "name": "burn",
      "outputs": [],
      "stateMutability": "nonpayable",
      "type": "function"
    },
    {
      "inputs": [
        {
          "internalType": "uint256",
          "name": "tokenId",
          "type": "uint256"
        }
      ],
      "name": "getApproved",
      "outputs": [
        {
          "internalType": "address",
          "name": "",
          "type": "address"
        }
      ],
      "stateMutability": "view",
      "type": "function",
      "constant": true
    },
    {
      "inputs": [
        {
          "internalType": "address",
          "name": "owner",
          "type": "address"
        },
        {
          "internalType": "address",
          "name": "operator",
          "type": "address"
        }
      ],
      "name": "isApprovedForAll",
      "outputs": [
        {
          "internalType": "bool",
          "name": "",
          "type": "bool"
        }
      ],
      "stateMutability": "view",
      "type": "function",
      "constant": true
    },
    {
      "inputs": [],
      "name": "name",
      "outputs": [
        {
          "internalType": "string",
          "name": "",
          "type": "string"
        }
      ],
      "stateMutability": "view",
      "type": "function",
      "constant": true
    },
    {
      "inputs": [],
      "name": "owner",
      "outputs": [
        {
          "internalType": "address",
          "name": "",
          "type": "address"
        }
      ],
      "stateMutability": "view",
      "type": "function",
      "constant": true
    },
    {
      "inputs": [
        {
          "internalType": "uint256",
          "name": "tokenId",
          "type": "uint256"
        }
      ],
      "name": "ownerOf",
      "outputs": [
        {
          "internalType": "address",
          "name": "",
          "type": "address"
        }
      ],
      "stateMutability": "view",
      "type": "function",
      "constant": true
    },
    {
      "inputs": [],
      "name": "paused",
      "outputs": [
        {
          "internalType": "bool",
          "name": "",
          "type": "bool"
        }
      ],
      "stateMutability": "view",
      "type": "function",
      "constant": true
    },
    {
      "inputs": [],
      "name": "renounceOwnership",
      "outputs": [],
      "stateMutability": "nonpayable",
      "type": "function"
    },
    {
      "inputs": [
        {
          "internalType": "address",
          "name": "from",
          "type": "address"
        },
        {
          "internalType": "address",
          "name": "to",
          "type": "address"
        },
        {
          "internalType": "uint256",
          "name": "tokenId",
          "type": "uint256"
        }
      ],
      "name": "safeTransferFrom",
      "outputs": [],
      "stateMutability": "nonpayable",
      "type": "function"
    },
    {
      "inputs": [
        {
          "internalType": "address",
          "name": "from",
          "type": "address"
        },
        {
          "internalType": "address",
          "name": "to",
          "type": "address"
        },
        {
          "internalType": "uint256",
          "name": "tokenId",
          "type": "uint256"
        },
        {
          "internalType": "bytes",
          "name": "_data",
          "type": "bytes"
        }
      ],
      "name": "safeTransferFrom",
      "outputs": [],
      "stateMutability": "nonpayable",
      "type": "function"
    },
    {
      "inputs": [
        {
          "internalType": "address",
          "name": "operator",
          "type": "address"
        },
        {
          "internalType": "bool",
          "name": "approved",
          "type": "bool"
        }
      ],
      "name": "setApprovalForAll",
      "outputs": [],
      "stateMutability": "nonpayable",
      "type": "function"
    },
    {
      "inputs": [],
      "name": "symbol",
      "outputs": [
        {
          "internalType": "string",
          "name": "",
          "type": "string"
        }
      ],
      "stateMutability": "view",
      "type": "function",
      "constant": true
    },
    {
      "inputs": [
        {
          "internalType": "uint256",
          "name": "index",
          "type": "uint256"
        }
      ],
      "name": "tokenByIndex",
      "outputs": [
        {
          "internalType": "uint256",
          "name": "",
          "type": "uint256"
        }
      ],
      "stateMutability": "view",
      "type": "function",
      "constant": true
    },
    {
      "inputs": [
        {
          "internalType": "address",
          "name": "owner",
          "type": "address"
        },
        {
          "internalType": "uint256",
          "name": "index",
          "type": "uint256"
        }
      ],
      "name": "tokenOfOwnerByIndex",
      "outputs": [
        {
          "internalType": "uint256",
          "name": "",
          "type": "uint256"
        }
      ],
      "stateMutability": "view",
      "type": "function",
      "constant": true
    },
    {
      "inputs": [
        {
          "internalType": "uint256",
          "name": "tokenId",
          "type": "uint256"
        }
      ],
      "name": "tokenURI",
      "outputs": [
        {
          "internalType": "string",
          "name": "",
          "type": "string"
        }
      ],
      "stateMutability": "view",
      "type": "function",
      "constant": true
    },
    {
      "inputs": [],
      "name": "totalSupply",
      "outputs": [
        {
          "internalType": "uint256",
          "name": "",
          "type": "uint256"
        }
      ],
      "stateMutability": "view",
      "type": "function",
      "constant": true
    },
    {
      "inputs": [
        {
          "internalType": "address",
          "name": "from",
          "type": "address"
        },
        {
          "internalType": "address",
          "name": "to",
          "type": "address"
        },
        {
          "internalType": "uint256",
          "name": "tokenId",
          "type": "uint256"
        }
      ],
      "name": "transferFrom",
      "outputs": [],
      "stateMutability": "nonpayable",
      "type": "function"
    },
    {
      "inputs": [
        {
          "internalType": "address",
          "name": "newOwner",
          "type": "address"
        }
      ],
      "name": "transferOwnership",
      "outputs": [],
      "stateMutability": "nonpayable",
      "type": "function"
    },
    {
      "inputs": [
        {
          "internalType": "string",
          "name": "name",
          "type": "string"
        },
        {
          "internalType": "string",
          "name": "symbol",
          "type": "string"
        },
        {
          "internalType": "string",
          "name": "url",
          "type": "string"
        }
      ],
      "name": "initialize",
      "outputs": [],
      "stateMutability": "nonpayable",
      "type": "function"
    },
    {
      "inputs": [
        {
          "internalType": "string",
          "name": "_newBaseURI",
          "type": "string"
        }
      ],
      "name": "setBaseURI",
      "outputs": [],
      "stateMutability": "nonpayable",
      "type": "function"
    },
    {
      "inputs": [],
      "name": "getAllOnSale",
      "outputs": [
        {
          "components": [
            {
              "internalType": "uint256",
              "name": "id",
              "type": "uint256"
            },
            {
              "internalType": "uint256",
              "name": "price",
              "type": "uint256"
            },
            {
              "internalType": "string",
              "name": "name",
              "type": "string"
            },
            {
              "internalType": "string",
              "name": "image",
              "type": "string"
            },
            {
              "internalType": "bool",
              "name": "sale",
              "type": "bool"
            }
          ],
          "internalType": "struct BXPP.TokenMeta[]",
          "name": "",
          "type": "tuple[]"
        }
      ],
      "stateMutability": "view",
      "type": "function",
      "constant": true
    },
    {
      "inputs": [
        {
          "internalType": "uint256",
          "name": "_tokenId",
          "type": "uint256"
        },
        {
          "internalType": "bool",
          "name": "_sale",
          "type": "bool"
        },
        {
          "internalType": "uint256",
          "name": "_price",
          "type": "uint256"
        }
      ],
      "name": "setTokenSale",
      "outputs": [],
      "stateMutability": "nonpayable",
      "type": "function"
    },
    {
      "inputs": [
        {
          "internalType": "uint256",
          "name": "_tokenId",
          "type": "uint256"
        },
        {
          "internalType": "uint256",
          "name": "_price",
          "type": "uint256"
        }
      ],
      "name": "setTokenPrice",
      "outputs": [],
      "stateMutability": "nonpayable",
      "type": "function"
    },
    {
      "inputs": [
        {
          "internalType": "uint256",
          "name": "tokenId",
          "type": "uint256"
        }
      ],
      "name": "tokenPrice",
      "outputs": [
        {
          "internalType": "uint256",
          "name": "",
          "type": "uint256"
        }
      ],
      "stateMutability": "view",
      "type": "function",
      "constant": true
    },
    {
      "inputs": [
        {
          "internalType": "uint256",
          "name": "_tokenId",
          "type": "uint256"
        }
      ],
      "name": "tokenMeta",
      "outputs": [
        {
          "components": [
            {
              "internalType": "uint256",
              "name": "id",
              "type": "uint256"
            },
            {
              "internalType": "uint256",
              "name": "price",
              "type": "uint256"
            },
            {
              "internalType": "string",
              "name": "name",
              "type": "string"
            },
            {
              "internalType": "string",
              "name": "image",
              "type": "string"
            },
            {
              "internalType": "bool",
              "name": "sale",
              "type": "bool"
            }
          ],
          "internalType": "struct BXPP.TokenMeta",
          "name": "",
          "type": "tuple"
        }
      ],
      "stateMutability": "view",
      "type": "function",
      "constant": true
    },
    {
      "inputs": [
        {
          "internalType": "uint256",
          "name": "_tokenId",
          "type": "uint256"
        }
      ],
      "name": "purchaseToken",
      "outputs": [],
      "stateMutability": "payable",
      "type": "function",
      "payable": true
    },
    {
      "inputs": [
        {
          "internalType": "address",
          "name": "to",
          "type": "address"
        },
        {
          "internalType": "uint256",
          "name": "_price",
          "type": "uint256"
        },
        {
          "internalType": "string",
          "name": "_name",
          "type": "string"
        },
        {
          "internalType": "string",
          "name": "_image",
          "type": "string"
        }
      ],
      "name": "mintCollectable",
      "outputs": [
        {
          "internalType": "uint256",
          "name": "",
          "type": "uint256"
        }
      ],
      "stateMutability": "payable",
      "type": "function",
      "payable": true
    },
    {
      "inputs": [],
      "name": "pause",
      "outputs": [],
      "stateMutability": "nonpayable",
      "type": "function"
    },
    {
      "inputs": [],
      "name": "unpause",
      "outputs": [],
      "stateMutability": "nonpayable",
      "type": "function"
    },
    {
      "inputs": [
        {
          "internalType": "bytes4",
          "name": "interfaceId",
          "type": "bytes4"
        }
      ],
      "name": "supportsInterface",
      "outputs": [
        {
          "internalType": "bool",
          "name": "",
          "type": "bool"
        }
      ],
      "stateMutability": "view",
      "type": "function",
      "constant": true
    }
  ],
  "bytecode": "0x608060405234801561001057600080fd5b50615a6580620000216000396000f3fe6080604052600436106101e35760003560e01c80636387ede611610102578063a6487c5311610095578063d4ddce8a11610064578063d4ddce8a146106d4578063e985e9c514610711578063eb685c471461074e578063f2fde38b14610777576101e3565b8063a6487c5314610629578063b88d4fde14610652578063c2db2c421461067b578063c87b56dd14610697576101e3565b80638da5cb5b116100d15780638da5cb5b1461057f57806390894559146105aa57806395d89b41146105d5578063a22cb46514610600576101e3565b80636387ede6146104eb57806370a0823114610514578063715018a6146105515780638456cb5914610568576101e3565b80633f4ba83a1161017a5780634f6ccce7116101495780634f6ccce71461041d57806355f804b31461045a5780635c975abb146104835780636352211e146104ae576101e3565b80633f4ba83a1461038457806342842e0e1461039b57806342966c68146103c457806345b6f9bd146103ed576101e3565b80630ae7a310116101b65780630ae7a310146102b657806318160ddd146102f357806323b872dd1461031e5780632f745c5914610347576101e3565b806301ffc9a7146101e857806306fdde0314610225578063081812fc14610250578063095ea7b31461028d575b600080fd5b3480156101f457600080fd5b5061020f600480360381019061020a9190613927565b6107a0565b60405161021c919061396f565b60405180910390f35b34801561023157600080fd5b5061023a6107b2565b6040516102479190613a23565b60405180910390f35b34801561025c57600080fd5b5061027760048036038101906102729190613a7b565b610844565b6040516102849190613ae9565b60405180910390f35b34801561029957600080fd5b506102b460048036038101906102af9190613b30565b6108c9565b005b3480156102c257600080fd5b506102dd60048036038101906102d89190613a7b565b6109e0565b6040516102ea9190613c55565b60405180910390f35b3480156102ff57600080fd5b50610308610b73565b6040516103159190613c86565b60405180910390f35b34801561032a57600080fd5b5061034560048036038101906103409190613ca1565b610b80565b005b34801561035357600080fd5b5061036e60048036038101906103699190613b30565b610be0565b60405161037b9190613c86565b60405180910390f35b34801561039057600080fd5b50610399610c85565b005b3480156103a757600080fd5b506103c260048036038101906103bd9190613ca1565b610d0b565b005b3480156103d057600080fd5b506103eb60048036038101906103e69190613a7b565b610d2b565b005b61040760048036038101906104029190613e29565b610d87565b6040516104149190613c86565b60405180910390f35b34801561042957600080fd5b50610444600480360381019061043f9190613a7b565b610f52565b6040516104519190613c86565b60405180910390f35b34801561046657600080fd5b50610481600480360381019061047c9190613ec8565b610fc3565b005b34801561048f57600080fd5b50610498611053565b6040516104a5919061396f565b60405180910390f35b3480156104ba57600080fd5b506104d560048036038101906104d09190613a7b565b61106b565b6040516104e29190613ae9565b60405180910390f35b3480156104f757600080fd5b50610512600480360381019061050d9190613f3d565b61111c565b005b34801561052057600080fd5b5061053b60048036038101906105369190613f90565b6111f6565b6040516105489190613c86565b60405180910390f35b34801561055d57600080fd5b506105666112ad565b005b34801561057457600080fd5b5061057d611335565b005b34801561058b57600080fd5b506105946113bb565b6040516105a19190613ae9565b60405180910390f35b3480156105b657600080fd5b506105bf6113e5565b6040516105cc91906140fc565b60405180910390f35b3480156105e157600080fd5b506105ea61164a565b6040516105f79190613a23565b60405180910390f35b34801561060c57600080fd5b506106276004803603810190610622919061411e565b6116dc565b005b34801561063557600080fd5b50610650600480360381019061064b919061415e565b6116f2565b005b34801561065e57600080fd5b50610679600480360381019061067491906142a6565b61178c565b005b61069560048036038101906106909190613a7b565b6117ee565b005b3480156106a357600080fd5b506106be60048036038101906106b99190613a7b565b61197f565b6040516106cb9190613a23565b60405180910390f35b3480156106e057600080fd5b506106fb60048036038101906106f69190613a7b565b611a26565b6040516107089190613c86565b60405180910390f35b34801561071d57600080fd5b5061073860048036038101906107339190614329565b611a8f565b604051610745919061396f565b60405180910390f35b34801561075a57600080fd5b5061077560048036038101906107709190614369565b611b23565b005b34801561078357600080fd5b5061079e60048036038101906107999190613f90565b611bd2565b005b60006107ab82611cc9565b9050919050565b6060606580546107c1906143d8565b80601f01602080910402602001604051908101604052809291908181526020018280546107ed906143d8565b801561083a5780601f1061080f5761010080835404028352916020019161083a565b820191906000526020600020905b81548152906001019060200180831161081d57829003601f168201915b5050505050905090565b600061084f82611d43565b61088e576040517f08c379a00000000000000000000000000000000000000000000000000000000081526004016108859061447b565b60405180910390fd5b6069600083815260200190815260200160002060009054906101000a900473ffffffffffffffffffffffffffffffffffffffff169050919050565b60006108d48261106b565b90508073ffffffffffffffffffffffffffffffffffffffff168373ffffffffffffffffffffffffffffffffffffffff1603610944576040517f08c379a000000000000000000000000000000000000000000000000000000000815260040161093b9061450d565b60405180910390fd5b8073ffffffffffffffffffffffffffffffffffffffff16610963611daf565b73ffffffffffffffffffffffffffffffffffffffff16148061099257506109918161098c611daf565b611a8f565b5b6109d1576040517f08c379a00000000000000000000000000000000000000000000000000000000081526004016109c89061459f565b60405180910390fd5b6109db8383611db7565b505050565b6109e861388a565b6109f182611d43565b6109fa57600080fd5b6101c560008381526020019081526020016000206040518060a00160405290816000820154815260200160018201548152602001600282018054610a3d906143d8565b80601f0160208091040260200160405190810160405280929190818152602001828054610a69906143d8565b8015610ab65780601f10610a8b57610100808354040283529160200191610ab6565b820191906000526020600020905b815481529060010190602001808311610a9957829003601f168201915b50505050508152602001600382018054610acf906143d8565b80601f0160208091040260200160405190810160405280929190818152602001828054610afb906143d8565b8015610b485780601f10610b1d57610100808354040283529160200191610b48565b820191906000526020600020905b815481529060010190602001808311610b2b57829003601f168201915b505050505081526020016004820160009054906101000a900460ff1615151515815250509050919050565b600060fd80549050905090565b610b91610b8b611daf565b82611e70565b610bd0576040517f08c379a0000000000000000000000000000000000000000000000000000000008152600401610bc790614631565b60405180910390fd5b610bdb838383611f4e565b505050565b6000610beb836111f6565b8210610c2c576040517f08c379a0000000000000000000000000000000000000000000000000000000008152600401610c23906146c3565b60405180910390fd5b60fb60008473ffffffffffffffffffffffffffffffffffffffff1673ffffffffffffffffffffffffffffffffffffffff168152602001908152602001600020600083815260200190815260200160002054905092915050565b610c8d611daf565b73ffffffffffffffffffffffffffffffffffffffff16610cab6113bb565b73ffffffffffffffffffffffffffffffffffffffff1614610d01576040517f08c379a0000000000000000000000000000000000000000000000000000000008152600401610cf89061472f565b60405180910390fd5b610d096121b4565b565b610d268383836040518060200160405280600081525061178c565b505050565b610d3c610d36611daf565b82611e70565b610d7b576040517f08c379a0000000000000000000000000000000000000000000000000000000008152600401610d72906147c1565b60405180910390fd5b610d8481612257565b50565b6000600260c95403610dce576040517f08c379a0000000000000000000000000000000000000000000000000000000008152600401610dc59061482d565b60405180910390fd5b600260c98190555083341015610e19576040517f08c379a0000000000000000000000000000000000000000000000000000000008152600401610e10906148bf565b60405180910390fd5b60008411610e5c576040517f08c379a0000000000000000000000000000000000000000000000000000000008152600401610e5390614951565b60405180910390fd5b60007321540da960c1c575beae67b37b8a538e697c79ed90508073ffffffffffffffffffffffffffffffffffffffff166108fc349081150290604051600060405180830381858888f19350505050158015610ebb573d6000803e3d6000fd5b50610ed086610ecb6101c3612374565b612382565b60006040518060a00160405280610ee86101c3612374565b8152602001878152602001868152602001858152602001600015158152509050610f1c610f166101c3612374565b8261255b565b610f276101c3612630565b6001610f346101c3612374565b610f3e91906149a0565b92505050600160c981905550949350505050565b6000610f5c610b73565b8210610f9d576040517f08c379a0000000000000000000000000000000000000000000000000000000008152600401610f9490614a46565b60405180910390fd5b60fd8281548110610fb157610fb0614a66565b5b90600052602060002001549050919050565b610fcb611daf565b73ffffffffffffffffffffffffffffffffffffffff16610fe96113bb565b73ffffffffffffffffffffffffffffffffffffffff161461103f576040517f08c379a00000000000000000000000000000000000000000000000000000000081526004016110369061472f565b60405180910390fd5b806101c4908161104f9190614c41565b5050565b600061015f60009054906101000a900460ff16905090565b6000806067600084815260200190815260200160002060009054906101000a900473ffffffffffffffffffffffffffffffffffffffff169050600073ffffffffffffffffffffffffffffffffffffffff168173ffffffffffffffffffffffffffffffffffffffff1603611113576040517f08c379a000000000000000000000000000000000000000000000000000000000815260040161110a90614d85565b60405180910390fd5b80915050919050565b61112583611d43565b611164576040517f08c379a000000000000000000000000000000000000000000000000000000000815260040161115b90614e17565b60405180910390fd5b6000811161117157600080fd5b611179611daf565b73ffffffffffffffffffffffffffffffffffffffff166111988461106b565b73ffffffffffffffffffffffffffffffffffffffff16146111b857600080fd5b816101c5600085815260200190815260200160002060040160006101000a81548160ff0219169083151502179055506111f18382611b23565b505050565b60008073ffffffffffffffffffffffffffffffffffffffff168273ffffffffffffffffffffffffffffffffffffffff1603611266576040517f08c379a000000000000000000000000000000000000000000000000000000000815260040161125d90614ea9565b60405180910390fd5b606860008373ffffffffffffffffffffffffffffffffffffffff1673ffffffffffffffffffffffffffffffffffffffff168152602001908152602001600020549050919050565b6112b5611daf565b73ffffffffffffffffffffffffffffffffffffffff166112d36113bb565b73ffffffffffffffffffffffffffffffffffffffff1614611329576040517f08c379a00000000000000000000000000000000000000000000000000000000081526004016113209061472f565b60405180910390fd5b6113336000612646565b565b61133d611daf565b73ffffffffffffffffffffffffffffffffffffffff1661135b6113bb565b73ffffffffffffffffffffffffffffffffffffffff16146113b1576040517f08c379a00000000000000000000000000000000000000000000000000000000081526004016113a89061472f565b60405180910390fd5b6113b961270c565b565b6000609760009054906101000a900473ffffffffffffffffffffffffffffffffffffffff16905090565b606060006113f46101c3612374565b67ffffffffffffffff81111561140d5761140c613cfe565b5b60405190808252806020026020018201604052801561144657816020015b61143361388a565b81526020019060019003908161142b5790505b5090506000805b6114586101c3612374565b81101561164157600115156101c5600083815260200190815260200160002060040160009054906101000a900460ff1615150361162e576101c560008281526020019081526020016000206040518060a001604052908160008201548152602001600182015481526020016002820180546114d2906143d8565b80601f01602080910402602001604051908101604052809291908181526020018280546114fe906143d8565b801561154b5780601f106115205761010080835404028352916020019161154b565b820191906000526020600020905b81548152906001019060200180831161152e57829003601f168201915b50505050508152602001600382018054611564906143d8565b80601f0160208091040260200160405190810160405280929190818152602001828054611590906143d8565b80156115dd5780601f106115b2576101008083540402835291602001916115dd565b820191906000526020600020905b8154815290600101906020018083116115c057829003601f168201915b505050505081526020016004820160009054906101000a900460ff16151515158152505083838151811061161457611613614a66565b5b6020026020010181905250818061162a90614ec9565b9250505b808061163990614ec9565b91505061144d565b50819250505090565b606060668054611659906143d8565b80601f0160208091040260200160405190810160405280929190818152602001828054611685906143d8565b80156116d25780601f106116a7576101008083540402835291602001916116d2565b820191906000526020600020905b8154815290600101906020018083116116b557829003601f168201915b5050505050905090565b6116ee6116e7611daf565b83836127b0565b5050565b60006116fe600161291c565b90508015611722576001600060016101000a81548160ff0219169083151502179055505b61172d848484612a0c565b80156117865760008060016101000a81548160ff0219169083151502179055507f7f26b83ff96e1f2b6a682f133852f6798a09c465da95921460cefb3847402498600160405161177d9190614f59565b60405180910390a15b50505050565b61179d611797611daf565b83611e70565b6117dc576040517f08c379a00000000000000000000000000000000000000000000000000000000081526004016117d390614631565b60405180910390fd5b6117e884848484612aee565b50505050565b600260c95403611833576040517f08c379a000000000000000000000000000000000000000000000000000000000815260040161182a9061482d565b60405180910390fd5b600260c981905550600073ffffffffffffffffffffffffffffffffffffffff163373ffffffffffffffffffffffffffffffffffffffff16141580156118ac575061187c8161106b565b73ffffffffffffffffffffffffffffffffffffffff163373ffffffffffffffffffffffffffffffffffffffff1614155b6118b557600080fd5b6101c56000828152602001908152602001600020600101543410156118d957600080fd5b60006118e48261106b565b90508073ffffffffffffffffffffffffffffffffffffffff166108fc349081150290604051600060405180830381858888f1935050505015801561192c573d6000803e3d6000fd5b506119388160016116dc565b611943813384611f4e565b60006101c5600084815260200190815260200160002060040160006101000a81548160ff02191690831515021790555050600160c98190555050565b606061198a82611d43565b6119c9576040517f08c379a00000000000000000000000000000000000000000000000000000000081526004016119c090614fe6565b60405180910390fd5b60006119d3612b4a565b905060008151116119f35760405180602001604052806000815250611a1e565b806119fd84612bdd565b604051602001611a0e929190615042565b6040516020818303038152906040525b915050919050565b6000611a3182611d43565b611a70576040517f08c379a0000000000000000000000000000000000000000000000000000000008152600401611a67906150d8565b60405180910390fd5b6101c56000838152602001908152602001600020600101549050919050565b6000606a60008473ffffffffffffffffffffffffffffffffffffffff1673ffffffffffffffffffffffffffffffffffffffff16815260200190815260200160002060008373ffffffffffffffffffffffffffffffffffffffff1673ffffffffffffffffffffffffffffffffffffffff16815260200190815260200160002060009054906101000a900460ff16905092915050565b611b2c82611d43565b611b6b576040517f08c379a0000000000000000000000000000000000000000000000000000000008152600401611b629061516a565b60405180910390fd5b611b73611daf565b73ffffffffffffffffffffffffffffffffffffffff16611b928361106b565b73ffffffffffffffffffffffffffffffffffffffff1614611bb257600080fd5b806101c56000848152602001908152602001600020600101819055505050565b611bda611daf565b73ffffffffffffffffffffffffffffffffffffffff16611bf86113bb565b73ffffffffffffffffffffffffffffffffffffffff1614611c4e576040517f08c379a0000000000000000000000000000000000000000000000000000000008152600401611c459061472f565b60405180910390fd5b600073ffffffffffffffffffffffffffffffffffffffff168173ffffffffffffffffffffffffffffffffffffffff1603611cbd576040517f08c379a0000000000000000000000000000000000000000000000000000000008152600401611cb4906151fc565b60405180910390fd5b611cc681612646565b50565b60007f780e9d63000000000000000000000000000000000000000000000000000000007bffffffffffffffffffffffffffffffffffffffffffffffffffffffff1916827bffffffffffffffffffffffffffffffffffffffffffffffffffffffff19161480611d3c5750611d3b82612d3d565b5b9050919050565b60008073ffffffffffffffffffffffffffffffffffffffff166067600084815260200190815260200160002060009054906101000a900473ffffffffffffffffffffffffffffffffffffffff1673ffffffffffffffffffffffffffffffffffffffff1614159050919050565b600033905090565b816069600083815260200190815260200160002060006101000a81548173ffffffffffffffffffffffffffffffffffffffff021916908373ffffffffffffffffffffffffffffffffffffffff160217905550808273ffffffffffffffffffffffffffffffffffffffff16611e2a8361106b565b73ffffffffffffffffffffffffffffffffffffffff167f8c5be1e5ebec7d5bd14f71427d1e84f3dd0314c0f7b2291e5b200ac8c7c3b92560405160405180910390a45050565b6000611e7b82611d43565b611eba576040517f08c379a0000000000000000000000000000000000000000000000000000000008152600401611eb19061528e565b60405180910390fd5b6000611ec58361106b565b90508073ffffffffffffffffffffffffffffffffffffffff168473ffffffffffffffffffffffffffffffffffffffff161480611f075750611f068185611a8f565b5b80611f4557508373ffffffffffffffffffffffffffffffffffffffff16611f2d84610844565b73ffffffffffffffffffffffffffffffffffffffff16145b91505092915050565b8273ffffffffffffffffffffffffffffffffffffffff16611f6e8261106b565b73ffffffffffffffffffffffffffffffffffffffff1614611fc4576040517f08c379a0000000000000000000000000000000000000000000000000000000008152600401611fbb90615320565b60405180910390fd5b600073ffffffffffffffffffffffffffffffffffffffff168273ffffffffffffffffffffffffffffffffffffffff1603612033576040517f08c379a000000000000000000000000000000000000000000000000000000000815260040161202a906153b2565b60405180910390fd5b61203e838383612e1f565b612049600082611db7565b6001606860008573ffffffffffffffffffffffffffffffffffffffff1673ffffffffffffffffffffffffffffffffffffffff168152602001908152602001600020600082825461209991906149a0565b925050819055506001606860008473ffffffffffffffffffffffffffffffffffffffff1673ffffffffffffffffffffffffffffffffffffffff16815260200190815260200160002060008282546120f091906153d2565b92505081905550816067600083815260200190815260200160002060006101000a81548173ffffffffffffffffffffffffffffffffffffffff021916908373ffffffffffffffffffffffffffffffffffffffff160217905550808273ffffffffffffffffffffffffffffffffffffffff168473ffffffffffffffffffffffffffffffffffffffff167fddf252ad1be2c89b69c2b068fc378daa952ba7f163c4a11628f55a4df523b3ef60405160405180910390a46121af838383612e2f565b505050565b6121bc611053565b6121fb576040517f08c379a00000000000000000000000000000000000000000000000000000000081526004016121f290615474565b60405180910390fd5b600061015f60006101000a81548160ff0219169083151502179055507f5db9ee0a495bf2e6ff9c91a7834c1ba4fdd244a5e8aa4e537bd38aeae4b073aa612240611daf565b60405161224d9190613ae9565b60405180910390a1565b60006122628261106b565b905061227081600084612e1f565b61227b600083611db7565b6001606860008373ffffffffffffffffffffffffffffffffffffffff1673ffffffffffffffffffffffffffffffffffffffff16815260200190815260200160002060008282546122cb91906149a0565b925050819055506067600083815260200190815260200160002060006101000a81549073ffffffffffffffffffffffffffffffffffffffff021916905581600073ffffffffffffffffffffffffffffffffffffffff168273ffffffffffffffffffffffffffffffffffffffff167fddf252ad1be2c89b69c2b068fc378daa952ba7f163c4a11628f55a4df523b3ef60405160405180910390a461237081600084612e2f565b5050565b600081600001549050919050565b600073ffffffffffffffffffffffffffffffffffffffff168273ffffffffffffffffffffffffffffffffffffffff16036123f1576040517f08c379a00000000000000000000000000000000000000000000000000000000081526004016123e8906154e0565b60405180910390fd5b6123fa81611d43565b1561243a576040517f08c379a00000000000000000000000000000000000000000000000000000000081526004016124319061554c565b60405180910390fd5b61244660008383612e1f565b6001606860008473ffffffffffffffffffffffffffffffffffffffff1673ffffffffffffffffffffffffffffffffffffffff168152602001908152602001600020600082825461249691906153d2565b92505081905550816067600083815260200190815260200160002060006101000a81548173ffffffffffffffffffffffffffffffffffffffff021916908373ffffffffffffffffffffffffffffffffffffffff160217905550808273ffffffffffffffffffffffffffffffffffffffff16600073ffffffffffffffffffffffffffffffffffffffff167fddf252ad1be2c89b69c2b068fc378daa952ba7f163c4a11628f55a4df523b3ef60405160405180910390a461255760008383612e2f565b5050565b61256482611d43565b61256d57600080fd5b612575611daf565b73ffffffffffffffffffffffffffffffffffffffff166125948361106b565b73ffffffffffffffffffffffffffffffffffffffff16146125b457600080fd5b806101c56000848152602001908152602001600020600082015181600001556020820151816001015560408201518160020190816125f29190614c41565b5060608201518160030190816126089190614c41565b5060808201518160040160006101000a81548160ff0219169083151502179055509050505050565b6001816000016000828254019250508190555050565b6000609760009054906101000a900473ffffffffffffffffffffffffffffffffffffffff16905081609760006101000a81548173ffffffffffffffffffffffffffffffffffffffff021916908373ffffffffffffffffffffffffffffffffffffffff1602179055508173ffffffffffffffffffffffffffffffffffffffff168173ffffffffffffffffffffffffffffffffffffffff167f8be0079c531659141344cd1fd0a4f28419497f9722a3daafe3b4186f6b6457e060405160405180910390a35050565b612714611053565b15612754576040517f08c379a000000000000000000000000000000000000000000000000000000000815260040161274b906155b8565b60405180910390fd5b600161015f60006101000a81548160ff0219169083151502179055507f62e78cea01bee320cd4e420270b5ea74000d11b0c9f74754ebdbfc544b05a258612799611daf565b6040516127a69190613ae9565b60405180910390a1565b8173ffffffffffffffffffffffffffffffffffffffff168373ffffffffffffffffffffffffffffffffffffffff160361281e576040517f08c379a000000000000000000000000000000000000000000000000000000000815260040161281590615624565b60405180910390fd5b80606a60008573ffffffffffffffffffffffffffffffffffffffff1673ffffffffffffffffffffffffffffffffffffffff16815260200190815260200160002060008473ffffffffffffffffffffffffffffffffffffffff1673ffffffffffffffffffffffffffffffffffffffff16815260200190815260200160002060006101000a81548160ff0219169083151502179055508173ffffffffffffffffffffffffffffffffffffffff168373ffffffffffffffffffffffffffffffffffffffff167f17307eab39ab6107e8899845ad3d59bd9653f200f220920489ca2b5937696c318360405161290f919061396f565b60405180910390a3505050565b60008060019054906101000a900460ff16156129935760018260ff1614801561294b575061294930612e34565b155b61298a576040517f08c379a0000000000000000000000000000000000000000000000000000000008152600401612981906156b6565b60405180910390fd5b60009050612a07565b8160ff1660008054906101000a900460ff1660ff16106129e8576040517f08c379a00000000000000000000000000000000000000000000000000000000081526004016129df906156b6565b60405180910390fd5b816000806101000a81548160ff021916908360ff160217905550600190505b919050565b6000612a18600161291c565b90508015612a3c576001600060016101000a81548160ff0219169083151502179055505b612a44612e57565b612a4c612ea8565b612a568484612ef9565b612a5e612f6c565b612a66612fbd565b612a6e61300e565b612a7661305f565b612a7e6130cc565b612a8661312d565b612a8f82613186565b8015612ae85760008060016101000a81548160ff0219169083151502179055507f7f26b83ff96e1f2b6a682f133852f6798a09c465da95921460cefb38474024986001604051612adf9190614f59565b60405180910390a15b50505050565b612af9848484611f4e565b612b0584848484613224565b612b44576040517f08c379a0000000000000000000000000000000000000000000000000000000008152600401612b3b90615748565b60405180910390fd5b50505050565b60606101c48054612b5a906143d8565b80601f0160208091040260200160405190810160405280929190818152602001828054612b86906143d8565b8015612bd35780601f10612ba857610100808354040283529160200191612bd3565b820191906000526020600020905b815481529060010190602001808311612bb657829003601f168201915b5050505050905090565b606060008203612c24576040518060400160405280600181526020017f30000000000000000000000000000000000000000000000000000000000000008152509050612d38565b600082905060005b60008214612c56578080612c3f90614ec9565b915050600a82612c4f9190615797565b9150612c2c565b60008167ffffffffffffffff811115612c7257612c71613cfe565b5b6040519080825280601f01601f191660200182016040528015612ca45781602001600182028036833780820191505090505b5090505b60008514612d3157600182612cbd91906149a0565b9150600a85612ccc91906157c8565b6030612cd891906153d2565b60f81b818381518110612cee57612ced614a66565b5b60200101907effffffffffffffffffffffffffffffffffffffffffffffffffffffffffffff1916908160001a905350600a85612d2a9190615797565b9450612ca8565b8093505050505b919050565b60007f80ac58cd000000000000000000000000000000000000000000000000000000007bffffffffffffffffffffffffffffffffffffffffffffffffffffffff1916827bffffffffffffffffffffffffffffffffffffffffffffffffffffffff19161480612e0857507f5b5e139f000000000000000000000000000000000000000000000000000000007bffffffffffffffffffffffffffffffffffffffffffffffffffffffff1916827bffffffffffffffffffffffffffffffffffffffffffffffffffffffff1916145b80612e185750612e17826133ab565b5b9050919050565b612e2a838383613415565b505050565b505050565b6000808273ffffffffffffffffffffffffffffffffffffffff163b119050919050565b600060019054906101000a900460ff16612ea6576040517f08c379a0000000000000000000000000000000000000000000000000000000008152600401612e9d9061586b565b60405180910390fd5b565b600060019054906101000a900460ff16612ef7576040517f08c379a0000000000000000000000000000000000000000000000000000000008152600401612eee9061586b565b60405180910390fd5b565b600060019054906101000a900460ff16612f48576040517f08c379a0000000000000000000000000000000000000000000000000000000008152600401612f3f9061586b565b60405180910390fd5b8160659081612f579190614c41565b508060669081612f679190614c41565b505050565b600060019054906101000a900460ff16612fbb576040517f08c379a0000000000000000000000000000000000000000000000000000000008152600401612fb29061586b565b60405180910390fd5b565b600060019054906101000a900460ff1661300c576040517f08c379a00000000000000000000000000000000000000000000000000000000081526004016130039061586b565b60405180910390fd5b565b600060019054906101000a900460ff1661305d576040517f08c379a00000000000000000000000000000000000000000000000000000000081526004016130549061586b565b60405180910390fd5b565b600060019054906101000a900460ff166130ae576040517f08c379a00000000000000000000000000000000000000000000000000000000081526004016130a59061586b565b60405180910390fd5b600061015f60006101000a81548160ff021916908315150217905550565b600060019054906101000a900460ff1661311b576040517f08c379a00000000000000000000000000000000000000000000000000000000081526004016131129061586b565b60405180910390fd5b61312b613126611daf565b612646565b565b600060019054906101000a900460ff1661317c576040517f08c379a00000000000000000000000000000000000000000000000000000000081526004016131739061586b565b60405180910390fd5b600160c981905550565b6000613192600161291c565b905080156131b6576001600060016101000a81548160ff0219169083151502179055505b816101c490816131c69190614c41565b5080156132205760008060016101000a81548160ff0219169083151502179055507f7f26b83ff96e1f2b6a682f133852f6798a09c465da95921460cefb384740249860016040516132179190614f59565b60405180910390a15b5050565b60006132458473ffffffffffffffffffffffffffffffffffffffff16612e34565b1561339e578373ffffffffffffffffffffffffffffffffffffffff1663150b7a0261326e611daf565b8786866040518563ffffffff1660e01b815260040161329094939291906158e0565b6020604051808303816000875af19250505080156132cc57506040513d601f19601f820116820180604052508101906132c99190615941565b60015b61334e573d80600081146132fc576040519150601f19603f3d011682016040523d82523d6000602084013e613301565b606091505b506000815103613346576040517f08c379a000000000000000000000000000000000000000000000000000000000815260040161333d90615748565b60405180910390fd5b805181602001fd5b63150b7a0260e01b7bffffffffffffffffffffffffffffffffffffffffffffffffffffffff1916817bffffffffffffffffffffffffffffffffffffffffffffffffffffffff1916149150506133a3565b600190505b949350505050565b60007f01ffc9a7000000000000000000000000000000000000000000000000000000007bffffffffffffffffffffffffffffffffffffffffffffffffffffffff1916827bffffffffffffffffffffffffffffffffffffffffffffffffffffffff1916149050919050565b61342083838361346d565b613428611053565b15613468576040517f08c379a000000000000000000000000000000000000000000000000000000000815260040161345f906159e0565b60405180910390fd5b505050565b61347883838361357f565b600073ffffffffffffffffffffffffffffffffffffffff168373ffffffffffffffffffffffffffffffffffffffff16036134ba576134b581613584565b6134f9565b8173ffffffffffffffffffffffffffffffffffffffff168373ffffffffffffffffffffffffffffffffffffffff16146134f8576134f783826135cd565b5b5b600073ffffffffffffffffffffffffffffffffffffffff168273ffffffffffffffffffffffffffffffffffffffff160361353b576135368161373a565b61357a565b8273ffffffffffffffffffffffffffffffffffffffff168273ffffffffffffffffffffffffffffffffffffffff161461357957613578828261380b565b5b5b505050565b505050565b60fd8054905060fe60008381526020019081526020016000208190555060fd81908060018154018082558091505060019003906000526020600020016000909190919091505550565b600060016135da846111f6565b6135e491906149a0565b9050600060fc60008481526020019081526020016000205490508181146136c957600060fb60008673ffffffffffffffffffffffffffffffffffffffff1673ffffffffffffffffffffffffffffffffffffffff16815260200190815260200160002060008481526020019081526020016000205490508060fb60008773ffffffffffffffffffffffffffffffffffffffff1673ffffffffffffffffffffffffffffffffffffffff1681526020019081526020016000206000848152602001908152602001600020819055508160fc600083815260200190815260200160002081905550505b60fc60008481526020019081526020016000206000905560fb60008573ffffffffffffffffffffffffffffffffffffffff1673ffffffffffffffffffffffffffffffffffffffff16815260200190815260200160002060008381526020019081526020016000206000905550505050565b6000600160fd8054905061374e91906149a0565b9050600060fe6000848152602001908152602001600020549050600060fd838154811061377e5761377d614a66565b5b906000526020600020015490508060fd83815481106137a05761379f614a66565b5b90600052602060002001819055508160fe60008381526020019081526020016000208190555060fe60008581526020019081526020016000206000905560fd8054806137ef576137ee615a00565b5b6001900381819060005260206000200160009055905550505050565b6000613816836111f6565b90508160fb60008573ffffffffffffffffffffffffffffffffffffffff1673ffffffffffffffffffffffffffffffffffffffff1681526020019081526020016000206000838152602001908152602001600020819055508060fc600084815260200190815260200160002081905550505050565b6040518060a00160405280600081526020016000815260200160608152602001606081526020016000151581525090565b6000604051905090565b600080fd5b600080fd5b60007fffffffff0000000000000000000000000000000000000000000000000000000082169050919050565b613904816138cf565b811461390f57600080fd5b50565b600081359050613921816138fb565b92915050565b60006020828403121561393d5761393c6138c5565b5b600061394b84828501613912565b91505092915050565b60008115159050919050565b61396981613954565b82525050565b60006020820190506139846000830184613960565b92915050565b600081519050919050565b600082825260208201905092915050565b60005b838110156139c45780820151818401526020810190506139a9565b838111156139d3576000848401525b50505050565b6000601f19601f8301169050919050565b60006139f58261398a565b6139ff8185613995565b9350613a0f8185602086016139a6565b613a18816139d9565b840191505092915050565b60006020820190508181036000830152613a3d81846139ea565b905092915050565b6000819050919050565b613a5881613a45565b8114613a6357600080fd5b50565b600081359050613a7581613a4f565b92915050565b600060208284031215613a9157613a906138c5565b5b6000613a9f84828501613a66565b91505092915050565b600073ffffffffffffffffffffffffffffffffffffffff82169050919050565b6000613ad382613aa8565b9050919050565b613ae381613ac8565b82525050565b6000602082019050613afe6000830184613ada565b92915050565b613b0d81613ac8565b8114613b1857600080fd5b50565b600081359050613b2a81613b04565b92915050565b60008060408385031215613b4757613b466138c5565b5b6000613b5585828601613b1b565b9250506020613b6685828601613a66565b9150509250929050565b613b7981613a45565b82525050565b600082825260208201905092915050565b6000613b9b8261398a565b613ba58185613b7f565b9350613bb58185602086016139a6565b613bbe816139d9565b840191505092915050565b613bd281613954565b82525050565b600060a083016000830151613bf06000860182613b70565b506020830151613c036020860182613b70565b5060408301518482036040860152613c1b8282613b90565b91505060608301518482036060860152613c358282613b90565b9150506080830151613c4a6080860182613bc9565b508091505092915050565b60006020820190508181036000830152613c6f8184613bd8565b905092915050565b613c8081613a45565b82525050565b6000602082019050613c9b6000830184613c77565b92915050565b600080600060608486031215613cba57613cb96138c5565b5b6000613cc886828701613b1b565b9350506020613cd986828701613b1b565b9250506040613cea86828701613a66565b9150509250925092565b600080fd5b600080fd5b7f4e487b7100000000000000000000000000000000000000000000000000000000600052604160045260246000fd5b613d36826139d9565b810181811067ffffffffffffffff82111715613d5557613d54613cfe565b5b80604052505050565b6000613d686138bb565b9050613d748282613d2d565b919050565b600067ffffffffffffffff821115613d9457613d93613cfe565b5b613d9d826139d9565b9050602081019050919050565b82818337600083830152505050565b6000613dcc613dc784613d79565b613d5e565b905082815260208101848484011115613de857613de7613cf9565b5b613df3848285613daa565b509392505050565b600082601f830112613e1057613e0f613cf4565b5b8135613e20848260208601613db9565b91505092915050565b60008060008060808587031215613e4357613e426138c5565b5b6000613e5187828801613b1b565b9450506020613e6287828801613a66565b935050604085013567ffffffffffffffff811115613e8357613e826138ca565b5b613e8f87828801613dfb565b925050606085013567ffffffffffffffff811115613eb057613eaf6138ca565b5b613ebc87828801613dfb565b91505092959194509250565b600060208284031215613ede57613edd6138c5565b5b600082013567ffffffffffffffff811115613efc57613efb6138ca565b5b613f0884828501613dfb565b91505092915050565b613f1a81613954565b8114613f2557600080fd5b50565b600081359050613f3781613f11565b92915050565b600080600060608486031215613f5657613f556138c5565b5b6000613f6486828701613a66565b9350506020613f7586828701613f28565b9250506040613f8686828701613a66565b9150509250925092565b600060208284031215613fa657613fa56138c5565b5b6000613fb484828501613b1b565b91505092915050565b600081519050919050565b600082825260208201905092915050565b6000819050602082019050919050565b600060a0830160008301516140016000860182613b70565b5060208301516140146020860182613b70565b506040830151848203604086015261402c8282613b90565b915050606083015184820360608601526140468282613b90565b915050608083015161405b6080860182613bc9565b508091505092915050565b60006140728383613fe9565b905092915050565b6000602082019050919050565b600061409282613fbd565b61409c8185613fc8565b9350836020820285016140ae85613fd9565b8060005b858110156140ea57848403895281516140cb8582614066565b94506140d68361407a565b925060208a019950506001810190506140b2565b50829750879550505050505092915050565b600060208201905081810360008301526141168184614087565b905092915050565b60008060408385031215614135576141346138c5565b5b600061414385828601613b1b565b925050602061415485828601613f28565b9150509250929050565b600080600060608486031215614177576141766138c5565b5b600084013567ffffffffffffffff811115614195576141946138ca565b5b6141a186828701613dfb565b935050602084013567ffffffffffffffff8111156141c2576141c16138ca565b5b6141ce86828701613dfb565b925050604084013567ffffffffffffffff8111156141ef576141ee6138ca565b5b6141fb86828701613dfb565b9150509250925092565b600067ffffffffffffffff8211156142205761421f613cfe565b5b614229826139d9565b9050602081019050919050565b600061424961424484614205565b613d5e565b90508281526020810184848401111561426557614264613cf9565b5b614270848285613daa565b509392505050565b600082601f83011261428d5761428c613cf4565b5b813561429d848260208601614236565b91505092915050565b600080600080608085870312156142c0576142bf6138c5565b5b60006142ce87828801613b1b565b94505060206142df87828801613b1b565b93505060406142f087828801613a66565b925050606085013567ffffffffffffffff811115614311576143106138ca565b5b61431d87828801614278565b91505092959194509250565b600080604083850312156143405761433f6138c5565b5b600061434e85828601613b1b565b925050602061435f85828601613b1b565b9150509250929050565b600080604083850312156143805761437f6138c5565b5b600061438e85828601613a66565b925050602061439f85828601613a66565b9150509250929050565b7f4e487b7100000000000000000000000000000000000000000000000000000000600052602260045260246000fd5b600060028204905060018216806143f057607f821691505b602082108103614403576144026143a9565b5b50919050565b7f4552433732313a20617070726f76656420717565727920666f72206e6f6e657860008201527f697374656e7420746f6b656e0000000000000000000000000000000000000000602082015250565b6000614465602c83613995565b915061447082614409565b604082019050919050565b6000602082019050818103600083015261449481614458565b9050919050565b7f4552433732313a20617070726f76616c20746f2063757272656e74206f776e6560008201527f7200000000000000000000000000000000000000000000000000000000000000602082015250565b60006144f7602183613995565b91506145028261449b565b604082019050919050565b60006020820190508181036000830152614526816144ea565b9050919050565b7f4552433732313a20617070726f76652063616c6c6572206973206e6f74206f7760008201527f6e6572206e6f7220617070726f76656420666f7220616c6c0000000000000000602082015250565b6000614589603883613995565b91506145948261452d565b604082019050919050565b600060208201905081810360008301526145b88161457c565b9050919050565b7f4552433732313a207472616e736665722063616c6c6572206973206e6f74206f60008201527f776e6572206e6f7220617070726f766564000000000000000000000000000000602082015250565b600061461b603183613995565b9150614626826145bf565b604082019050919050565b6000602082019050818103600083015261464a8161460e565b9050919050565b7f455243373231456e756d657261626c653a206f776e657220696e646578206f7560008201527f74206f6620626f756e6473000000000000000000000000000000000000000000602082015250565b60006146ad602b83613995565b91506146b882614651565b604082019050919050565b600060208201905081810360008301526146dc816146a0565b9050919050565b7f4f776e61626c653a2063616c6c6572206973206e6f7420746865206f776e6572600082015250565b6000614719602083613995565b9150614724826146e3565b602082019050919050565b600060208201905081810360008301526147488161470c565b9050919050565b7f4552433732314275726e61626c653a2063616c6c6572206973206e6f74206f7760008201527f6e6572206e6f7220617070726f76656400000000000000000000000000000000602082015250565b60006147ab603083613995565b91506147b68261474f565b604082019050919050565b600060208201905081810360008301526147da8161479e565b9050919050565b7f5265656e7472616e637947756172643a207265656e7472616e742063616c6c00600082015250565b6000614817601f83613995565b9150614822826147e1565b602082019050919050565b600060208201905081810360008301526148468161480a565b9050919050565b7f425850503a206d757374206861766520656e6f756768206d6f6e657920746f2060008201527f6d696e742e000000000000000000000000000000000000000000000000000000602082015250565b60006148a9602583613995565b91506148b48261484d565b604082019050919050565b600060208201905081810360008301526148d88161489c565b9050919050565b7f425850503a20536f6d657468696e672077726f6e6721205072696365206d757360008201527f74206d6f7265207468616e20302e000000000000000000000000000000000000602082015250565b600061493b602e83613995565b9150614946826148df565b604082019050919050565b6000602082019050818103600083015261496a8161492e565b9050919050565b7f4e487b7100000000000000000000000000000000000000000000000000000000600052601160045260246000fd5b60006149ab82613a45565b91506149b683613a45565b9250828210156149c9576149c8614971565b5b828203905092915050565b7f455243373231456e756d657261626c653a20676c6f62616c20696e646578206f60008201527f7574206f6620626f756e64730000000000000000000000000000000000000000602082015250565b6000614a30602c83613995565b9150614a3b826149d4565b604082019050919050565b60006020820190508181036000830152614a5f81614a23565b9050919050565b7f4e487b7100000000000000000000000000000000000000000000000000000000600052603260045260246000fd5b60008190508160005260206000209050919050565b60006020601f8301049050919050565b600082821b905092915050565b600060088302614af77fffffffffffffffffffffffffffffffffffffffffffffffffffffffffffffffff82614aba565b614b018683614aba565b95508019841693508086168417925050509392505050565b6000819050919050565b6000614b3e614b39614b3484613a45565b614b19565b613a45565b9050919050565b6000819050919050565b614b5883614b23565b614b6c614b6482614b45565b848454614ac7565b825550505050565b600090565b614b81614b74565b614b8c818484614b4f565b505050565b5b81811015614bb057614ba5600082614b79565b600181019050614b92565b5050565b601f821115614bf557614bc681614a95565b614bcf84614aaa565b81016020851015614bde578190505b614bf2614bea85614aaa565b830182614b91565b50505b505050565b600082821c905092915050565b6000614c1860001984600802614bfa565b1980831691505092915050565b6000614c318383614c07565b9150826002028217905092915050565b614c4a8261398a565b67ffffffffffffffff811115614c6357614c62613cfe565b5b614c6d82546143d8565b614c78828285614bb4565b600060209050601f831160018114614cab5760008415614c99578287015190505b614ca38582614c25565b865550614d0b565b601f198416614cb986614a95565b60005b82811015614ce157848901518255600182019150602085019450602081019050614cbc565b86831015614cfe5784890151614cfa601f891682614c07565b8355505b6001600288020188555050505b505050505050565b7f4552433732313a206f776e657220717565727920666f72206e6f6e657869737460008201527f656e7420746f6b656e0000000000000000000000000000000000000000000000602082015250565b6000614d6f602983613995565b9150614d7a82614d13565b604082019050919050565b60006020820190508181036000830152614d9e81614d62565b9050919050565b7f4552433732314d657461646174613a2053616c6520736574206f66206e6f6e6560008201527f78697374656e7420746f6b656e00000000000000000000000000000000000000602082015250565b6000614e01602d83613995565b9150614e0c82614da5565b604082019050919050565b60006020820190508181036000830152614e3081614df4565b9050919050565b7f4552433732313a2062616c616e636520717565727920666f7220746865207a6560008201527f726f206164647265737300000000000000000000000000000000000000000000602082015250565b6000614e93602a83613995565b9150614e9e82614e37565b604082019050919050565b60006020820190508181036000830152614ec281614e86565b9050919050565b6000614ed482613a45565b91507fffffffffffffffffffffffffffffffffffffffffffffffffffffffffffffffff8203614f0657614f05614971565b5b600182019050919050565b6000819050919050565b600060ff82169050919050565b6000614f43614f3e614f3984614f11565b614b19565b614f1b565b9050919050565b614f5381614f28565b82525050565b6000602082019050614f6e6000830184614f4a565b92915050565b7f4552433732314d657461646174613a2055524920717565727920666f72206e6f60008201527f6e6578697374656e7420746f6b656e0000000000000000000000000000000000602082015250565b6000614fd0602f83613995565b9150614fdb82614f74565b604082019050919050565b60006020820190508181036000830152614fff81614fc3565b9050919050565b600081905092915050565b600061501c8261398a565b6150268185615006565b93506150368185602086016139a6565b80840191505092915050565b600061504e8285615011565b915061505a8284615011565b91508190509392505050565b7f4552433732314d657461646174613a20507269636520717565727920666f722060008201527f6e6f6e6578697374656e7420746f6b656e000000000000000000000000000000602082015250565b60006150c2603183613995565b91506150cd82615066565b604082019050919050565b600060208201905081810360008301526150f1816150b5565b9050919050565b7f4552433732314d657461646174613a20507269636520736574206f66206e6f6e60008201527f6578697374656e7420746f6b656e000000000000000000000000000000000000602082015250565b6000615154602e83613995565b915061515f826150f8565b604082019050919050565b6000602082019050818103600083015261518381615147565b9050919050565b7f4f776e61626c653a206e6577206f776e657220697320746865207a65726f206160008201527f6464726573730000000000000000000000000000000000000000000000000000602082015250565b60006151e6602683613995565b91506151f18261518a565b604082019050919050565b60006020820190508181036000830152615215816151d9565b9050919050565b7f4552433732313a206f70657261746f7220717565727920666f72206e6f6e657860008201527f697374656e7420746f6b656e0000000000000000000000000000000000000000602082015250565b6000615278602c83613995565b91506152838261521c565b604082019050919050565b600060208201905081810360008301526152a78161526b565b9050919050565b7f4552433732313a207472616e736665722066726f6d20696e636f72726563742060008201527f6f776e6572000000000000000000000000000000000000000000000000000000602082015250565b600061530a602583613995565b9150615315826152ae565b604082019050919050565b60006020820190508181036000830152615339816152fd565b9050919050565b7f4552433732313a207472616e7366657220746f20746865207a65726f2061646460008201527f7265737300000000000000000000000000000000000000000000000000000000602082015250565b600061539c602483613995565b91506153a782615340565b604082019050919050565b600060208201905081810360008301526153cb8161538f565b9050919050565b60006153dd82613a45565b91506153e883613a45565b9250827fffffffffffffffffffffffffffffffffffffffffffffffffffffffffffffffff0382111561541d5761541c614971565b5b828201905092915050565b7f5061757361626c653a206e6f7420706175736564000000000000000000000000600082015250565b600061545e601483613995565b915061546982615428565b602082019050919050565b6000602082019050818103600083015261548d81615451565b9050919050565b7f4552433732313a206d696e7420746f20746865207a65726f2061646472657373600082015250565b60006154ca602083613995565b91506154d582615494565b602082019050919050565b600060208201905081810360008301526154f9816154bd565b9050919050565b7f4552433732313a20746f6b656e20616c7265616479206d696e74656400000000600082015250565b6000615536601c83613995565b915061554182615500565b602082019050919050565b6000602082019050818103600083015261556581615529565b9050919050565b7f5061757361626c653a2070617573656400000000000000000000000000000000600082015250565b60006155a2601083613995565b91506155ad8261556c565b602082019050919050565b600060208201905081810360008301526155d181615595565b9050919050565b7f4552433732313a20617070726f766520746f2063616c6c657200000000000000600082015250565b600061560e601983613995565b9150615619826155d8565b602082019050919050565b6000602082019050818103600083015261563d81615601565b9050919050565b7f496e697469616c697a61626c653a20636f6e747261637420697320616c72656160008201527f647920696e697469616c697a6564000000000000000000000000000000000000602082015250565b60006156a0602e83613995565b91506156ab82615644565b604082019050919050565b600060208201905081810360008301526156cf81615693565b9050919050565b7f4552433732313a207472616e7366657220746f206e6f6e20455243373231526560008201527f63656976657220696d706c656d656e7465720000000000000000000000000000602082015250565b6000615732603283613995565b915061573d826156d6565b604082019050919050565b6000602082019050818103600083015261576181615725565b9050919050565b7f4e487b7100000000000000000000000000000000000000000000000000000000600052601260045260246000fd5b60006157a282613a45565b91506157ad83613a45565b9250826157bd576157bc615768565b5b828204905092915050565b60006157d382613a45565b91506157de83613a45565b9250826157ee576157ed615768565b5b828206905092915050565b7f496e697469616c697a61626c653a20636f6e7472616374206973206e6f74206960008201527f6e697469616c697a696e67000000000000000000000000000000000000000000602082015250565b6000615855602b83613995565b9150615860826157f9565b604082019050919050565b6000602082019050818103600083015261588481615848565b9050919050565b600081519050919050565b600082825260208201905092915050565b60006158b28261588b565b6158bc8185615896565b93506158cc8185602086016139a6565b6158d5816139d9565b840191505092915050565b60006080820190506158f56000830187613ada565b6159026020830186613ada565b61590f6040830185613c77565b818103606083015261592181846158a7565b905095945050505050565b60008151905061593b816138fb565b92915050565b600060208284031215615957576159566138c5565b5b60006159658482850161592c565b91505092915050565b7f4552433732315061757361626c653a20746f6b656e207472616e73666572207760008201527f68696c6520706175736564000000000000000000000000000000000000000000602082015250565b60006159ca602b83613995565b91506159d58261596e565b604082019050919050565b600060208201905081810360008301526159f9816159bd565b9050919050565b7f4e487b7100000000000000000000000000000000000000000000000000000000600052603160045260246000fdfea2646970667358221220a26bb185e52267f3443988d0e29eb0b9645dad10b37a6d918f1600b87e55136764736f6c634300080f0033",
  "immutableReferences": {},
  "source": "// SPDX-License-Identifier: MIT\r\npragma solidity >=0.4.22 <0.9.0;\r\npragma experimental ABIEncoderV2;\r\n\r\nimport \"../node_modules/@openzeppelin/contracts-upgradeable/token/ERC721/ERC721Upgradeable.sol\";\r\nimport \"../node_modules/@openzeppelin/contracts-upgradeable/token/ERC721/extensions/ERC721EnumerableUpgradeable.sol\";\r\nimport \"../node_modules/@openzeppelin/contracts-upgradeable/token/ERC721/extensions/ERC721BurnableUpgradeable.sol\";\r\nimport \"../node_modules/@openzeppelin/contracts-upgradeable/token/ERC721/extensions/ERC721PausableUpgradeable.sol\";\r\nimport \"../node_modules/@openzeppelin/contracts-upgradeable/access/OwnableUpgradeable.sol\";\r\nimport \"../node_modules/@openzeppelin/contracts-upgradeable/security/ReentrancyGuardUpgradeable.sol\";\r\nimport \"../node_modules/@openzeppelin/contracts-upgradeable/utils/CountersUpgradeable.sol\";\r\n\r\n\r\ncontract BXPP is \r\n    ContextUpgradeable,\r\n    ERC721Upgradeable, \r\n    OwnableUpgradeable, \r\n    ReentrancyGuardUpgradeable,\r\n    ERC721EnumerableUpgradeable,\r\n    ERC721BurnableUpgradeable,\r\n    ERC721PausableUpgradeable\r\n{\r\n    function initialize(string memory name, string memory symbol, string memory url\r\n    ) public virtual initializer {\r\n        __BXPP_init(name, symbol, url \r\n                     // \"https://2kz9yd8ztj.execute-api.us-east-1.amazonaws.com/Prod/token/\",\r\n                     // = \"http://localhost:4000/dev/token/\"\r\n        );\r\n    }\r\n    using CountersUpgradeable for CountersUpgradeable.Counter;\r\n    CountersUpgradeable.Counter private _tokenIds;\r\n\r\n    string private _baseTokenURI;\r\n\r\n    mapping (uint256 => TokenMeta) private _tokenMeta;\r\n    struct TokenMeta {\r\n        uint256 id;\r\n        uint256 price;\r\n        string name;\r\n        string image;\r\n        bool sale;\r\n    }\r\n\r\n    /**\r\n     * @dev Grants `DEFAULT_ADMIN_ROLE`, `MINTER_ROLE` and `PAUSER_ROLE` to the\r\n     * account that deploys the contract.\r\n     *\r\n     * Token URIs will be autogenerated based on `baseURI` and their token IDs.\r\n     * See {ERC721-tokenURI}.\r\n     */\r\n    function __BXPP_init(\r\n        string memory name,\r\n        string memory symbol,\r\n        string memory baseTokenURI\r\n    ) internal initializer {\r\n        __Context_init_unchained();\r\n        __ERC165_init_unchained();\r\n        __ERC721_init_unchained(name, symbol);\r\n        __ERC721Enumerable_init_unchained();\r\n        __ERC721Burnable_init_unchained();\r\n        __ERC721Pausable_init_unchained();\r\n        __Pausable_init_unchained();\r\n        __Ownable_init_unchained();\r\n        __ReentrancyGuard_init_unchained();\r\n        __BXPP_init_unchained(baseTokenURI);\r\n    }\r\n\r\n    function __BXPP_init_unchained( string memory baseTokenURI ) internal initializer {\r\n        _baseTokenURI = baseTokenURI;\r\n    }\r\n\r\n    /**\r\n     * @dev Base URI for computing {tokenURI}. Empty by default, can be overriden\r\n     * in child contracts.\r\n     */\r\n\r\n    function _baseURI() internal view virtual override returns (string memory) {\r\n        return _baseTokenURI;\r\n    }\r\n\r\n    function setBaseURI(string memory _newBaseURI) public virtual onlyOwner {\r\n        _baseTokenURI = _newBaseURI;\r\n    }\r\n\r\n    function getAllOnSale () public view virtual returns( TokenMeta[] memory ) {\r\n        TokenMeta[] memory tokensOnSale = new TokenMeta[](_tokenIds.current());\r\n        uint256 counter = 0;\r\n\r\n        for(uint i = 0; i < _tokenIds.current(); i++) {\r\n            if(_tokenMeta[i].sale == true) {\r\n                tokensOnSale[counter] = _tokenMeta[i];\r\n                counter++;\r\n            }\r\n        }\r\n        return tokensOnSale;\r\n    }\r\n\r\n    /**\r\n     * @dev sets maps token to its price\r\n     * @param _tokenId uint256 token ID (token number)\r\n     * @param _sale bool token on sale\r\n     * @param _price unit256 token price\r\n     * \r\n     * Requirements: \r\n     * `tokenId` must exist\r\n     * `price` must be more than 0\r\n     * `owner` must the msg.owner\r\n     */\r\n    function setTokenSale(uint256 _tokenId, bool _sale, uint256 _price) public {\r\n        require(_exists(_tokenId), \"ERC721Metadata: Sale set of nonexistent token\");\r\n        require(_price > 0);\r\n        require(ownerOf(_tokenId) == _msgSender());\r\n\r\n        _tokenMeta[_tokenId].sale = _sale;\r\n        setTokenPrice(_tokenId, _price);\r\n    }\r\n\r\n    /**\r\n     * @dev sets maps token to its price\r\n     * @param _tokenId uint256 token ID (token number)\r\n     * @param _price uint256 token price\r\n     * \r\n     * Requirements: \r\n     * `tokenId` must exist\r\n     * `owner` must the msg.owner\r\n     */\r\n    function setTokenPrice(uint256 _tokenId, uint256 _price) public {\r\n        require(_exists(_tokenId), \"ERC721Metadata: Price set of nonexistent token\");\r\n        require(ownerOf(_tokenId) == _msgSender());\r\n        _tokenMeta[_tokenId].price = _price;\r\n    }\r\n\r\n    function tokenPrice(uint256 tokenId) public view virtual returns (uint256) {\r\n        require(_exists(tokenId), \"ERC721Metadata: Price query for nonexistent token\");\r\n        return _tokenMeta[tokenId].price;\r\n    }\r\n\r\n    /**\r\n     * @dev sets token meta\r\n     * @param _tokenId uint256 token ID (token number)\r\n     * @param _meta TokenMeta \r\n     * \r\n     * Requirements: \r\n     * `tokenId` must exist\r\n     * `owner` must the msg.owner\r\n     */\r\n    function _setTokenMeta(uint256 _tokenId, TokenMeta memory _meta) private {\r\n        require(_exists(_tokenId));\r\n        require(ownerOf(_tokenId) == _msgSender());\r\n        _tokenMeta[_tokenId] = _meta;\r\n    }\r\n\r\n    function tokenMeta(uint256 _tokenId) public view returns (TokenMeta memory) {\r\n        require(_exists(_tokenId));\r\n        return _tokenMeta[_tokenId];\r\n    }\r\n\r\n    /**\r\n     * @dev purchase _tokenId\r\n     * @param _tokenId uint256 token ID (token number)\r\n     */\r\n    function purchaseToken(uint256 _tokenId) public payable nonReentrant {\r\n        require(msg.sender != address(0) && msg.sender != ownerOf(_tokenId));\r\n        require(msg.value >= _tokenMeta[_tokenId].price);\r\n        address tokenSeller = ownerOf(_tokenId);\r\n\r\n        payable(tokenSeller).transfer(msg.value);\r\n\r\n        setApprovalForAll(tokenSeller, true);\r\n        _transfer(tokenSeller, msg.sender, _tokenId);\r\n        _tokenMeta[_tokenId].sale = false;\r\n    }\r\n\r\n\r\n    /**\r\n     * @dev Creates a new token for `to`. Its token ID will be automatically\r\n     * assigned (and available on the emitted {IERC721-Transfer} event), and the token\r\n     * URI autogenerated based on the base URI passed at construction.\r\n     *\r\n     * See {ERC721-_mint}.\r\n     *\r\n     * Requirements:\r\n     *\r\n     * - the caller must have the `MINTER_ROLE`.\r\n     */\r\n    function mintCollectable(\r\n        address to, \r\n        uint256 _price, \r\n        string memory _name, \r\n        string memory _image\r\n    ) public payable nonReentrant returns (uint256) {\r\n        require(msg.value >= _price, \"BXPP: must have enough money to mint.\");\r\n        require(_price > 0, \"BXPP: Something wrong! Price must more than 0.\");\r\n\r\n        address creator = 0x21540DA960C1C575BEAe67b37B8a538e697c79eD; // RinkebyUser2\r\n        payable(creator).transfer(msg.value);\r\n\r\n        \r\n        _mint(to, _tokenIds.current());\r\n\r\n        // Mintsalefalse\r\n        TokenMeta memory meta = TokenMeta(_tokenIds.current(), _price, _name, _image, false);\r\n        _setTokenMeta(_tokenIds.current(), meta);    \r\n\r\n        _tokenIds.increment();\r\n\r\n        return _tokenIds.current() - 1;\r\n    }\r\n\r\n    /**\r\n     * @dev Pauses all token transfers.\r\n     *\r\n     * See {ERC721Pausable} and {Pausable-_pause}.\r\n     *\r\n     * Requirements:\r\n     *\r\n     * - the caller must have the `PAUSER_ROLE`.\r\n     */\r\n    function pause() public virtual onlyOwner {\r\n        // require(hasRole(PAUSER_ROLE, _msgSender()), \"ERC721PresetMinterPauserAutoId: must have pauser role to pause\");\r\n        _pause();\r\n    }\r\n\r\n    /**\r\n     * @dev Unpauses all token transfers.\r\n     *\r\n     * See {ERC721Pausable} and {Pausable-_unpause}.\r\n     *\r\n     * Requirements:\r\n     *\r\n     * - the caller must have the `PAUSER_ROLE`.\r\n     */\r\n    function unpause() public virtual onlyOwner {\r\n        // require(hasRole(PAUSER_ROLE, _msgSender()), \"ERC721PresetMinterPauserAutoId: must have pauser role to unpause\");\r\n        _unpause();\r\n    }\r\n\r\n    function _beforeTokenTransfer(\r\n        address from,\r\n        address to,\r\n        uint256 tokenId\r\n    ) internal virtual override(ERC721Upgradeable, ERC721EnumerableUpgradeable, ERC721PausableUpgradeable) {\r\n        super._beforeTokenTransfer(from, to, tokenId);\r\n    }\r\n\r\n    /**\r\n     * @dev See {IERC165-supportsInterface}.\r\n     */\r\n    function supportsInterface(bytes4 interfaceId)\r\n        public\r\n        view\r\n        virtual\r\n        override(ERC721Upgradeable, ERC721EnumerableUpgradeable)\r\n        returns (bool)\r\n    {\r\n        return super.supportsInterface(interfaceId);\r\n    }\r\n    uint256[48] private __gap;\r\n}",
  "sourcePath": "C:\\Users\\10035622\\bxpp-contract\\contracts\\BXPP.sol",
  "compiler": {
    "name": "solc",
    "version": "0.8.15+commit.e14f2714.Emscripten.clang"
  },
  "schemaVersion": "3.4.5",
  "updatedAt": "2022-06-22T01:26:40.571Z",
  "networkType": "ethereum",
  "devdoc": {
    "kind": "dev",
    "methods": {
      "approve(address,uint256)": {
        "details": "See {IERC721-approve}."
      },
      "balanceOf(address)": {
        "details": "See {IERC721-balanceOf}."
      },
      "burn(uint256)": {
        "details": "Burns `tokenId`. See {ERC721-_burn}. Requirements: - The caller must own `tokenId` or be an approved operator."
      },
      "getApproved(uint256)": {
        "details": "See {IERC721-getApproved}."
      },
      "isApprovedForAll(address,address)": {
        "details": "See {IERC721-isApprovedForAll}."
      },
      "mintCollectable(address,uint256,string,string)": {
        "details": "Creates a new token for `to`. Its token ID will be automatically assigned (and available on the emitted {IERC721-Transfer} event), and the token URI autogenerated based on the base URI passed at construction. See {ERC721-_mint}. Requirements: - the caller must have the `MINTER_ROLE`."
      },
      "name()": {
        "details": "See {IERC721Metadata-name}."
      },
      "owner()": {
        "details": "Returns the address of the current owner."
      },
      "ownerOf(uint256)": {
        "details": "See {IERC721-ownerOf}."
      },
      "pause()": {
        "details": "Pauses all token transfers. See {ERC721Pausable} and {Pausable-_pause}. Requirements: - the caller must have the `PAUSER_ROLE`."
      },
      "paused()": {
        "details": "Returns true if the contract is paused, and false otherwise."
      },
      "purchaseToken(uint256)": {
        "details": "purchase _tokenId",
        "params": {
          "_tokenId": "uint256 token ID (token number)"
        }
      },
      "renounceOwnership()": {
        "details": "Leaves the contract without owner. It will not be possible to call `onlyOwner` functions anymore. Can only be called by the current owner. NOTE: Renouncing ownership will leave the contract without an owner, thereby removing any functionality that is only available to the owner."
      },
      "safeTransferFrom(address,address,uint256)": {
        "details": "See {IERC721-safeTransferFrom}."
      },
      "safeTransferFrom(address,address,uint256,bytes)": {
        "details": "See {IERC721-safeTransferFrom}."
      },
      "setApprovalForAll(address,bool)": {
        "details": "See {IERC721-setApprovalForAll}."
      },
      "setTokenPrice(uint256,uint256)": {
        "details": "sets maps token to its price",
        "params": {
          "_price": "uint256 token price  Requirements:  `tokenId` must exist `owner` must the msg.owner",
          "_tokenId": "uint256 token ID (token number)"
        }
      },
      "setTokenSale(uint256,bool,uint256)": {
        "details": "sets maps token to its price",
        "params": {
          "_price": "unit256 token price  Requirements:  `tokenId` must exist `price` must be more than 0 `owner` must the msg.owner",
          "_sale": "bool token on sale",
          "_tokenId": "uint256 token ID (token number)"
        }
      },
      "supportsInterface(bytes4)": {
        "details": "See {IERC165-supportsInterface}."
      },
      "symbol()": {
        "details": "See {IERC721Metadata-symbol}."
      },
      "tokenByIndex(uint256)": {
        "details": "See {IERC721Enumerable-tokenByIndex}."
      },
      "tokenOfOwnerByIndex(address,uint256)": {
        "details": "See {IERC721Enumerable-tokenOfOwnerByIndex}."
      },
      "tokenURI(uint256)": {
        "details": "See {IERC721Metadata-tokenURI}."
      },
      "totalSupply()": {
        "details": "See {IERC721Enumerable-totalSupply}."
      },
      "transferFrom(address,address,uint256)": {
        "details": "See {IERC721-transferFrom}."
      },
      "transferOwnership(address)": {
        "details": "Transfers ownership of the contract to a new account (`newOwner`). Can only be called by the current owner."
      },
      "unpause()": {
        "details": "Unpauses all token transfers. See {ERC721Pausable} and {Pausable-_unpause}. Requirements: - the caller must have the `PAUSER_ROLE`."
      }
    },
    "version": 1
  },
  "userdoc": {
    "kind": "user",
    "methods": {},
    "version": 1
  }
}