{
  "contractName": "ContractTemplate",
  "abi": [
    {
      "inputs": [
        {
          "internalType": "string",
          "name": "name",
          "type": "string"
        },
        {
          "internalType": "string",
          "name": "symbol",
          "type": "string"
        },
        {
          "internalType": "string",
          "name": "url",
          "type": "string"
        }
      ],
      "stateMutability": "nonpayable",
      "type": "constructor"
    },
    {
      "anonymous": false,
      "inputs": [
        {
          "indexed": true,
          "internalType": "address",
          "name": "owner",
          "type": "address"
        },
        {
          "indexed": true,
          "internalType": "address",
          "name": "approved",
          "type": "address"
        },
        {
          "indexed": true,
          "internalType": "uint256",
          "name": "tokenId",
          "type": "uint256"
        }
      ],
      "name": "Approval",
      "type": "event"
    },
    {
      "anonymous": false,
      "inputs": [
        {
          "indexed": true,
          "internalType": "address",
          "name": "owner",
          "type": "address"
        },
        {
          "indexed": true,
          "internalType": "address",
          "name": "operator",
          "type": "address"
        },
        {
          "indexed": false,
          "internalType": "bool",
          "name": "approved",
          "type": "bool"
        }
      ],
      "name": "ApprovalForAll",
      "type": "event"
    },
    {
      "anonymous": false,
      "inputs": [
        {
          "indexed": false,
          "internalType": "uint8",
          "name": "version",
          "type": "uint8"
        }
      ],
      "name": "Initialized",
      "type": "event"
    },
    {
      "anonymous": false,
      "inputs": [
        {
          "indexed": true,
          "internalType": "address",
          "name": "previousOwner",
          "type": "address"
        },
        {
          "indexed": true,
          "internalType": "address",
          "name": "newOwner",
          "type": "address"
        }
      ],
      "name": "OwnershipTransferred",
      "type": "event"
    },
    {
      "anonymous": false,
      "inputs": [
        {
          "indexed": false,
          "internalType": "address",
          "name": "account",
          "type": "address"
        }
      ],
      "name": "Paused",
      "type": "event"
    },
    {
      "anonymous": false,
      "inputs": [
        {
          "indexed": true,
          "internalType": "address",
          "name": "from",
          "type": "address"
        },
        {
          "indexed": true,
          "internalType": "address",
          "name": "to",
          "type": "address"
        },
        {
          "indexed": true,
          "internalType": "uint256",
          "name": "tokenId",
          "type": "uint256"
        }
      ],
      "name": "Transfer",
      "type": "event"
    },
    {
      "anonymous": false,
      "inputs": [
        {
          "indexed": false,
          "internalType": "address",
          "name": "account",
          "type": "address"
        }
      ],
      "name": "Unpaused",
      "type": "event"
    },
    {
      "inputs": [
        {
          "internalType": "address",
          "name": "to",
          "type": "address"
        },
        {
          "internalType": "uint256",
          "name": "tokenId",
          "type": "uint256"
        }
      ],
      "name": "approve",
      "outputs": [],
      "stateMutability": "nonpayable",
      "type": "function"
    },
    {
      "inputs": [
        {
          "internalType": "address",
          "name": "owner",
          "type": "address"
        }
      ],
      "name": "balanceOf",
      "outputs": [
        {
          "internalType": "uint256",
          "name": "",
          "type": "uint256"
        }
      ],
      "stateMutability": "view",
      "type": "function"
    },
    {
      "inputs": [
        {
          "internalType": "uint256",
          "name": "tokenId",
          "type": "uint256"
        }
      ],
      "name": "getApproved",
      "outputs": [
        {
          "internalType": "address",
          "name": "",
          "type": "address"
        }
      ],
      "stateMutability": "view",
      "type": "function"
    },
    {
      "inputs": [
        {
          "internalType": "address",
          "name": "owner",
          "type": "address"
        },
        {
          "internalType": "address",
          "name": "operator",
          "type": "address"
        }
      ],
      "name": "isApprovedForAll",
      "outputs": [
        {
          "internalType": "bool",
          "name": "",
          "type": "bool"
        }
      ],
      "stateMutability": "view",
      "type": "function"
    },
    {
      "inputs": [],
      "name": "name",
      "outputs": [
        {
          "internalType": "string",
          "name": "",
          "type": "string"
        }
      ],
      "stateMutability": "view",
      "type": "function"
    },
    {
      "inputs": [],
      "name": "owner",
      "outputs": [
        {
          "internalType": "address",
          "name": "",
          "type": "address"
        }
      ],
      "stateMutability": "view",
      "type": "function"
    },
    {
      "inputs": [
        {
          "internalType": "uint256",
          "name": "tokenId",
          "type": "uint256"
        }
      ],
      "name": "ownerOf",
      "outputs": [
        {
          "internalType": "address",
          "name": "",
          "type": "address"
        }
      ],
      "stateMutability": "view",
      "type": "function"
    },
    {
      "inputs": [],
      "name": "paused",
      "outputs": [
        {
          "internalType": "bool",
          "name": "",
          "type": "bool"
        }
      ],
      "stateMutability": "view",
      "type": "function"
    },
    {
      "inputs": [],
      "name": "renounceOwnership",
      "outputs": [],
      "stateMutability": "nonpayable",
      "type": "function"
    },
    {
      "inputs": [
        {
          "internalType": "address",
          "name": "from",
          "type": "address"
        },
        {
          "internalType": "address",
          "name": "to",
          "type": "address"
        },
        {
          "internalType": "uint256",
          "name": "tokenId",
          "type": "uint256"
        }
      ],
      "name": "safeTransferFrom",
      "outputs": [],
      "stateMutability": "nonpayable",
      "type": "function"
    },
    {
      "inputs": [
        {
          "internalType": "address",
          "name": "from",
          "type": "address"
        },
        {
          "internalType": "address",
          "name": "to",
          "type": "address"
        },
        {
          "internalType": "uint256",
          "name": "tokenId",
          "type": "uint256"
        },
        {
          "internalType": "bytes",
          "name": "_data",
          "type": "bytes"
        }
      ],
      "name": "safeTransferFrom",
      "outputs": [],
      "stateMutability": "nonpayable",
      "type": "function"
    },
    {
      "inputs": [
        {
          "internalType": "address",
          "name": "operator",
          "type": "address"
        },
        {
          "internalType": "bool",
          "name": "approved",
          "type": "bool"
        }
      ],
      "name": "setApprovalForAll",
      "outputs": [],
      "stateMutability": "nonpayable",
      "type": "function"
    },
    {
      "inputs": [],
      "name": "symbol",
      "outputs": [
        {
          "internalType": "string",
          "name": "",
          "type": "string"
        }
      ],
      "stateMutability": "view",
      "type": "function"
    },
    {
      "inputs": [
        {
          "internalType": "uint256",
          "name": "tokenId",
          "type": "uint256"
        }
      ],
      "name": "tokenURI",
      "outputs": [
        {
          "internalType": "string",
          "name": "",
          "type": "string"
        }
      ],
      "stateMutability": "view",
      "type": "function"
    },
    {
      "inputs": [
        {
          "internalType": "address",
          "name": "from",
          "type": "address"
        },
        {
          "internalType": "address",
          "name": "to",
          "type": "address"
        },
        {
          "internalType": "uint256",
          "name": "tokenId",
          "type": "uint256"
        }
      ],
      "name": "transferFrom",
      "outputs": [],
      "stateMutability": "nonpayable",
      "type": "function"
    },
    {
      "inputs": [
        {
          "internalType": "address",
          "name": "newOwner",
          "type": "address"
        }
      ],
      "name": "transferOwnership",
      "outputs": [],
      "stateMutability": "nonpayable",
      "type": "function"
    },
    {
      "inputs": [
        {
          "internalType": "string",
          "name": "_newBaseURI",
          "type": "string"
        }
      ],
      "name": "setBaseURI",
      "outputs": [],
      "stateMutability": "nonpayable",
      "type": "function"
    },
    {
      "inputs": [],
      "name": "getAllOnSale",
      "outputs": [
        {
          "components": [
            {
              "internalType": "uint256",
              "name": "id",
              "type": "uint256"
            },
            {
              "internalType": "uint256",
              "name": "price",
              "type": "uint256"
            },
            {
              "internalType": "string",
              "name": "name",
              "type": "string"
            },
            {
              "internalType": "string",
              "name": "image",
              "type": "string"
            },
            {
              "internalType": "bool",
              "name": "sale",
              "type": "bool"
            }
          ],
          "internalType": "struct ContractTemplate.TokenMeta[]",
          "name": "",
          "type": "tuple[]"
        }
      ],
      "stateMutability": "view",
      "type": "function"
    },
    {
      "inputs": [
        {
          "internalType": "uint256",
          "name": "_tokenId",
          "type": "uint256"
        },
        {
          "internalType": "bool",
          "name": "_sale",
          "type": "bool"
        },
        {
          "internalType": "uint256",
          "name": "_price",
          "type": "uint256"
        }
      ],
      "name": "setTokenSale",
      "outputs": [],
      "stateMutability": "nonpayable",
      "type": "function"
    },
    {
      "inputs": [
        {
          "internalType": "uint256",
          "name": "_tokenId",
          "type": "uint256"
        },
        {
          "internalType": "uint256",
          "name": "_price",
          "type": "uint256"
        }
      ],
      "name": "setTokenPrice",
      "outputs": [],
      "stateMutability": "nonpayable",
      "type": "function"
    },
    {
      "inputs": [
        {
          "internalType": "uint256",
          "name": "tokenId",
          "type": "uint256"
        }
      ],
      "name": "tokenPrice",
      "outputs": [
        {
          "internalType": "uint256",
          "name": "",
          "type": "uint256"
        }
      ],
      "stateMutability": "view",
      "type": "function"
    },
    {
      "inputs": [
        {
          "internalType": "uint256",
          "name": "_tokenId",
          "type": "uint256"
        }
      ],
      "name": "tokenMeta",
      "outputs": [
        {
          "components": [
            {
              "internalType": "uint256",
              "name": "id",
              "type": "uint256"
            },
            {
              "internalType": "uint256",
              "name": "price",
              "type": "uint256"
            },
            {
              "internalType": "string",
              "name": "name",
              "type": "string"
            },
            {
              "internalType": "string",
              "name": "image",
              "type": "string"
            },
            {
              "internalType": "bool",
              "name": "sale",
              "type": "bool"
            }
          ],
          "internalType": "struct ContractTemplate.TokenMeta",
          "name": "",
          "type": "tuple"
        }
      ],
      "stateMutability": "view",
      "type": "function"
    },
    {
      "inputs": [
        {
          "internalType": "uint256",
          "name": "_tokenId",
          "type": "uint256"
        }
      ],
      "name": "purchaseToken",
      "outputs": [],
      "stateMutability": "payable",
      "type": "function"
    },
    {
      "inputs": [
        {
          "internalType": "address",
          "name": "to",
          "type": "address"
        },
        {
          "internalType": "uint256",
          "name": "_price",
          "type": "uint256"
        },
        {
          "internalType": "string",
          "name": "_name",
          "type": "string"
        },
        {
          "internalType": "string",
          "name": "_image",
          "type": "string"
        }
      ],
      "name": "mintCollectable",
      "outputs": [
        {
          "internalType": "uint256",
          "name": "",
          "type": "uint256"
        }
      ],
      "stateMutability": "payable",
      "type": "function"
    },
    {
      "inputs": [],
      "name": "pause",
      "outputs": [],
      "stateMutability": "nonpayable",
      "type": "function"
    },
    {
      "inputs": [],
      "name": "unpause",
      "outputs": [],
      "stateMutability": "nonpayable",
      "type": "function"
    },
    {
      "inputs": [
        {
          "internalType": "bytes4",
          "name": "interfaceId",
          "type": "bytes4"
        }
      ],
      "name": "supportsInterface",
      "outputs": [
        {
          "internalType": "bool",
          "name": "",
          "type": "bool"
        }
      ],
      "stateMutability": "view",
      "type": "function"
    }
  ],
  "bytecode": "0x60806040523480156200001157600080fd5b506040516200543d3803806200543d833981810160405281019062000037919062000715565b6200004a8383836200005360201b60201c565b50505062000cae565b60006200006760016200014160201b60201c565b905080156200008c576001600060016101000a81548160ff0219169083151502179055505b6200009e84846200024760201b60201c565b620000ae620002c160201b60201c565b620000be6200031560201b60201c565b620000ce6200038960201b60201c565b620000df82620003e560201b60201c565b80156200013b5760008060016101000a81548160ff0219169083151502179055507f7f26b83ff96e1f2b6a682f133852f6798a09c465da95921460cefb3847402498600160405162000132919062000828565b60405180910390a15b50505050565b60008060019054906101000a900460ff1615620001cb5760018260ff161480156200017f57506200017d306200049160201b620019711760201c565b155b620001c1576040517f08c379a0000000000000000000000000000000000000000000000000000000008152600401620001b890620008cc565b60405180910390fd5b6000905062000242565b8160ff1660008054906101000a900460ff1660ff161062000223576040517f08c379a00000000000000000000000000000000000000000000000000000000081526004016200021a90620008cc565b60405180910390fd5b816000806101000a81548160ff021916908360ff160217905550600190505b919050565b600060019054906101000a900460ff1662000299576040517f08c379a0000000000000000000000000000000000000000000000000000000008152600401620002909062000964565b60405180910390fd5b8160c99081620002aa919062000bc7565b508060ca9081620002bc919062000bc7565b505050565b600060019054906101000a900460ff1662000313576040517f08c379a00000000000000000000000000000000000000000000000000000000081526004016200030a9062000964565b60405180910390fd5b565b600060019054906101000a900460ff1662000367576040517f08c379a00000000000000000000000000000000000000000000000000000000081526004016200035e9062000964565b60405180910390fd5b620003876200037b620004b460201b60201c565b620004bc60201b60201c565b565b600060019054906101000a900460ff16620003db576040517f08c379a0000000000000000000000000000000000000000000000000000000008152600401620003d29062000964565b60405180910390fd5b6001606581905550565b6000620003f960016200014160201b60201c565b905080156200041e576001600060016101000a81548160ff0219169083151502179055505b81610160908162000430919062000bc7565b5080156200048d5760008060016101000a81548160ff0219169083151502179055507f7f26b83ff96e1f2b6a682f133852f6798a09c465da95921460cefb3847402498600160405162000484919062000828565b60405180910390a15b5050565b6000808273ffffffffffffffffffffffffffffffffffffffff163b119050919050565b600033905090565b6000603360009054906101000a900473ffffffffffffffffffffffffffffffffffffffff16905081603360006101000a81548173ffffffffffffffffffffffffffffffffffffffff021916908373ffffffffffffffffffffffffffffffffffffffff1602179055508173ffffffffffffffffffffffffffffffffffffffff168173ffffffffffffffffffffffffffffffffffffffff167f8be0079c531659141344cd1fd0a4f28419497f9722a3daafe3b4186f6b6457e060405160405180910390a35050565b6000604051905090565b600080fd5b600080fd5b600080fd5b600080fd5b6000601f19601f8301169050919050565b7f4e487b7100000000000000000000000000000000000000000000000000000000600052604160045260246000fd5b620005eb82620005a0565b810181811067ffffffffffffffff821117156200060d576200060c620005b1565b5b80604052505050565b60006200062262000582565b9050620006308282620005e0565b919050565b600067ffffffffffffffff821115620006535762000652620005b1565b5b6200065e82620005a0565b9050602081019050919050565b60005b838110156200068b5780820151818401526020810190506200066e565b60008484015250505050565b6000620006ae620006a88462000635565b62000616565b905082815260208101848484011115620006cd57620006cc6200059b565b5b620006da8482856200066b565b509392505050565b600082601f830112620006fa57620006f962000596565b5b81516200070c84826020860162000697565b91505092915050565b6000806000606084860312156200073157620007306200058c565b5b600084015167ffffffffffffffff81111562000752576200075162000591565b5b6200076086828701620006e2565b935050602084015167ffffffffffffffff81111562000784576200078362000591565b5b6200079286828701620006e2565b925050604084015167ffffffffffffffff811115620007b657620007b562000591565b5b620007c486828701620006e2565b9150509250925092565b6000819050919050565b600060ff82169050919050565b6000819050919050565b6000620008106200080a6200080484620007ce565b620007e5565b620007d8565b9050919050565b6200082281620007ef565b82525050565b60006020820190506200083f600083018462000817565b92915050565b600082825260208201905092915050565b7f496e697469616c697a61626c653a20636f6e747261637420697320616c72656160008201527f647920696e697469616c697a6564000000000000000000000000000000000000602082015250565b6000620008b4602e8362000845565b9150620008c18262000856565b604082019050919050565b60006020820190508181036000830152620008e781620008a5565b9050919050565b7f496e697469616c697a61626c653a20636f6e7472616374206973206e6f74206960008201527f6e697469616c697a696e67000000000000000000000000000000000000000000602082015250565b60006200094c602b8362000845565b91506200095982620008ee565b604082019050919050565b600060208201905081810360008301526200097f816200093d565b9050919050565b600081519050919050565b7f4e487b7100000000000000000000000000000000000000000000000000000000600052602260045260246000fd5b60006002820490506001821680620009d957607f821691505b602082108103620009ef57620009ee62000991565b5b50919050565b60008190508160005260206000209050919050565b60006020601f8301049050919050565b600082821b905092915050565b60006008830262000a597fffffffffffffffffffffffffffffffffffffffffffffffffffffffffffffffff8262000a1a565b62000a65868362000a1a565b95508019841693508086168417925050509392505050565b6000819050919050565b600062000aa862000aa262000a9c8462000a7d565b620007e5565b62000a7d565b9050919050565b6000819050919050565b62000ac48362000a87565b62000adc62000ad38262000aaf565b84845462000a27565b825550505050565b600090565b62000af362000ae4565b62000b0081848462000ab9565b505050565b5b8181101562000b285762000b1c60008262000ae9565b60018101905062000b06565b5050565b601f82111562000b775762000b4181620009f5565b62000b4c8462000a0a565b8101602085101562000b5c578190505b62000b7462000b6b8562000a0a565b83018262000b05565b50505b505050565b600082821c905092915050565b600062000b9c6000198460080262000b7c565b1980831691505092915050565b600062000bb7838362000b89565b9150826002028217905092915050565b62000bd28262000986565b67ffffffffffffffff81111562000bee5762000bed620005b1565b5b62000bfa8254620009c0565b62000c0782828562000b2c565b600060209050601f83116001811462000c3f576000841562000c2a578287015190505b62000c36858262000ba9565b86555062000ca6565b601f19841662000c4f86620009f5565b60005b8281101562000c795784890151825560018201915060208501945060208101905062000c52565b8683101562000c99578489015162000c95601f89168262000b89565b8355505b6001600288020188555050505b505050505050565b61477f8062000cbe6000396000f3fe60806040526004361061019c5760003560e01c806370a08231116100ec578063b88d4fde1161008a578063d4ddce8a11610064578063d4ddce8a14610596578063e985e9c5146105d3578063eb685c4714610610578063f2fde38b146106395761019c565b8063b88d4fde14610514578063c2db2c421461053d578063c87b56dd146105595761019c565b80638da5cb5b116100c65780638da5cb5b1461046a578063908945591461049557806395d89b41146104c0578063a22cb465146104eb5761019c565b806370a08231146103ff578063715018a61461043c5780638456cb59146104535761019c565b80633f4ba83a1161015957806355f804b31161013357806355f804b3146103455780635c975abb1461036e5780636352211e146103995780636387ede6146103d65761019c565b80633f4ba83a146102d557806342842e0e146102ec57806345b6f9bd146103155761019c565b806301ffc9a7146101a157806306fdde03146101de578063081812fc14610209578063095ea7b3146102465780630ae7a3101461026f57806323b872dd146102ac575b600080fd5b3480156101ad57600080fd5b506101c860048036038101906101c39190612a7f565b610662565b6040516101d59190612ac7565b60405180910390f35b3480156101ea57600080fd5b506101f3610674565b6040516102009190612b72565b60405180910390f35b34801561021557600080fd5b50610230600480360381019061022b9190612bca565b610706565b60405161023d9190612c38565b60405180910390f35b34801561025257600080fd5b5061026d60048036038101906102689190612c7f565b61078b565b005b34801561027b57600080fd5b5061029660048036038101906102919190612bca565b6108a2565b6040516102a39190612da4565b60405180910390f35b3480156102b857600080fd5b506102d360048036038101906102ce9190612dc6565b610a35565b005b3480156102e157600080fd5b506102ea610a95565b005b3480156102f857600080fd5b50610313600480360381019061030e9190612dc6565b610b1b565b005b61032f600480360381019061032a9190612f4e565b610b3b565b60405161033c9190612ffc565b60405180910390f35b34801561035157600080fd5b5061036c60048036038101906103679190613017565b610d06565b005b34801561037a57600080fd5b50610383610d96565b6040516103909190612ac7565b60405180910390f35b3480156103a557600080fd5b506103c060048036038101906103bb9190612bca565b610dad565b6040516103cd9190612c38565b60405180910390f35b3480156103e257600080fd5b506103fd60048036038101906103f8919061308c565b610e5e565b005b34801561040b57600080fd5b50610426600480360381019061042191906130df565b610f38565b6040516104339190612ffc565b60405180910390f35b34801561044857600080fd5b50610451610fef565b005b34801561045f57600080fd5b50610468611077565b005b34801561047657600080fd5b5061047f6110fd565b60405161048c9190612c38565b60405180910390f35b3480156104a157600080fd5b506104aa611127565b6040516104b7919061324b565b60405180910390f35b3480156104cc57600080fd5b506104d561138c565b6040516104e29190612b72565b60405180910390f35b3480156104f757600080fd5b50610512600480360381019061050d919061326d565b61141e565b005b34801561052057600080fd5b5061053b6004803603810190610536919061334e565b611434565b005b61055760048036038101906105529190612bca565b611496565b005b34801561056557600080fd5b50610580600480360381019061057b9190612bca565b611627565b60405161058d9190612b72565b60405180910390f35b3480156105a257600080fd5b506105bd60048036038101906105b89190612bca565b6116ce565b6040516105ca9190612ffc565b60405180910390f35b3480156105df57600080fd5b506105fa60048036038101906105f591906133d1565b611737565b6040516106079190612ac7565b60405180910390f35b34801561061c57600080fd5b5061063760048036038101906106329190613411565b6117cb565b005b34801561064557600080fd5b50610660600480360381019061065b91906130df565b61187a565b005b600061066d82611994565b9050919050565b606060c9805461068390613480565b80601f01602080910402602001604051908101604052809291908181526020018280546106af90613480565b80156106fc5780601f106106d1576101008083540402835291602001916106fc565b820191906000526020600020905b8154815290600101906020018083116106df57829003601f168201915b5050505050905090565b600061071182611a76565b610750576040517f08c379a000000000000000000000000000000000000000000000000000000000815260040161074790613523565b60405180910390fd5b60cd600083815260200190815260200160002060009054906101000a900473ffffffffffffffffffffffffffffffffffffffff169050919050565b600061079682610dad565b90508073ffffffffffffffffffffffffffffffffffffffff168373ffffffffffffffffffffffffffffffffffffffff1603610806576040517f08c379a00000000000000000000000000000000000000000000000000000000081526004016107fd906135b5565b60405180910390fd5b8073ffffffffffffffffffffffffffffffffffffffff16610825611ae2565b73ffffffffffffffffffffffffffffffffffffffff16148061085457506108538161084e611ae2565b611737565b5b610893576040517f08c379a000000000000000000000000000000000000000000000000000000000815260040161088a90613647565b60405180910390fd5b61089d8383611aea565b505050565b6108aa6129e2565b6108b382611a76565b6108bc57600080fd5b61016160008381526020019081526020016000206040518060a001604052908160008201548152602001600182015481526020016002820180546108ff90613480565b80601f016020809104026020016040519081016040528092919081815260200182805461092b90613480565b80156109785780601f1061094d57610100808354040283529160200191610978565b820191906000526020600020905b81548152906001019060200180831161095b57829003601f168201915b5050505050815260200160038201805461099190613480565b80601f01602080910402602001604051908101604052809291908181526020018280546109bd90613480565b8015610a0a5780601f106109df57610100808354040283529160200191610a0a565b820191906000526020600020905b8154815290600101906020018083116109ed57829003601f168201915b505050505081526020016004820160009054906101000a900460ff1615151515815250509050919050565b610a46610a40611ae2565b82611ba3565b610a85576040517f08c379a0000000000000000000000000000000000000000000000000000000008152600401610a7c906136d9565b60405180910390fd5b610a90838383611c81565b505050565b610a9d611ae2565b73ffffffffffffffffffffffffffffffffffffffff16610abb6110fd565b73ffffffffffffffffffffffffffffffffffffffff1614610b11576040517f08c379a0000000000000000000000000000000000000000000000000000000008152600401610b0890613745565b60405180910390fd5b610b19611ee7565b565b610b3683838360405180602001604052806000815250611434565b505050565b6000600260655403610b82576040517f08c379a0000000000000000000000000000000000000000000000000000000008152600401610b79906137b1565b60405180910390fd5b600260658190555083341015610bcd576040517f08c379a0000000000000000000000000000000000000000000000000000000008152600401610bc490613843565b60405180910390fd5b60008411610c10576040517f08c379a0000000000000000000000000000000000000000000000000000000008152600401610c07906138d5565b60405180910390fd5b60007321540da960c1c575beae67b37b8a538e697c79ed90508073ffffffffffffffffffffffffffffffffffffffff166108fc349081150290604051600060405180830381858888f19350505050158015610c6f573d6000803e3d6000fd5b50610c8486610c7f61015f611f89565b611f97565b60006040518060a00160405280610c9c61015f611f89565b8152602001878152602001868152602001858152602001600015158152509050610cd0610cca61015f611f89565b82612170565b610cdb61015f612245565b6001610ce861015f611f89565b610cf29190613924565b925050506001606581905550949350505050565b610d0e611ae2565b73ffffffffffffffffffffffffffffffffffffffff16610d2c6110fd565b73ffffffffffffffffffffffffffffffffffffffff1614610d82576040517f08c379a0000000000000000000000000000000000000000000000000000000008152600401610d7990613745565b60405180910390fd5b806101609081610d929190613b04565b5050565b600060fb60009054906101000a900460ff16905090565b60008060cb600084815260200190815260200160002060009054906101000a900473ffffffffffffffffffffffffffffffffffffffff169050600073ffffffffffffffffffffffffffffffffffffffff168173ffffffffffffffffffffffffffffffffffffffff1603610e55576040517f08c379a0000000000000000000000000000000000000000000000000000000008152600401610e4c90613c48565b60405180910390fd5b80915050919050565b610e6783611a76565b610ea6576040517f08c379a0000000000000000000000000000000000000000000000000000000008152600401610e9d90613cda565b60405180910390fd5b60008111610eb357600080fd5b610ebb611ae2565b73ffffffffffffffffffffffffffffffffffffffff16610eda84610dad565b73ffffffffffffffffffffffffffffffffffffffff1614610efa57600080fd5b81610161600085815260200190815260200160002060040160006101000a81548160ff021916908315150217905550610f3383826117cb565b505050565b60008073ffffffffffffffffffffffffffffffffffffffff168273ffffffffffffffffffffffffffffffffffffffff1603610fa8576040517f08c379a0000000000000000000000000000000000000000000000000000000008152600401610f9f90613d6c565b60405180910390fd5b60cc60008373ffffffffffffffffffffffffffffffffffffffff1673ffffffffffffffffffffffffffffffffffffffff168152602001908152602001600020549050919050565b610ff7611ae2565b73ffffffffffffffffffffffffffffffffffffffff166110156110fd565b73ffffffffffffffffffffffffffffffffffffffff161461106b576040517f08c379a000000000000000000000000000000000000000000000000000000000815260040161106290613745565b60405180910390fd5b611075600061225b565b565b61107f611ae2565b73ffffffffffffffffffffffffffffffffffffffff1661109d6110fd565b73ffffffffffffffffffffffffffffffffffffffff16146110f3576040517f08c379a00000000000000000000000000000000000000000000000000000000081526004016110ea90613745565b60405180910390fd5b6110fb612321565b565b6000603360009054906101000a900473ffffffffffffffffffffffffffffffffffffffff16905090565b6060600061113661015f611f89565b67ffffffffffffffff81111561114f5761114e612e23565b5b60405190808252806020026020018201604052801561118857816020015b6111756129e2565b81526020019060019003908161116d5790505b5090506000805b61119a61015f611f89565b8110156113835760011515610161600083815260200190815260200160002060040160009054906101000a900460ff161515036113705761016160008281526020019081526020016000206040518060a0016040529081600082015481526020016001820154815260200160028201805461121490613480565b80601f016020809104026020016040519081016040528092919081815260200182805461124090613480565b801561128d5780601f106112625761010080835404028352916020019161128d565b820191906000526020600020905b81548152906001019060200180831161127057829003601f168201915b505050505081526020016003820180546112a690613480565b80601f01602080910402602001604051908101604052809291908181526020018280546112d290613480565b801561131f5780601f106112f45761010080835404028352916020019161131f565b820191906000526020600020905b81548152906001019060200180831161130257829003601f168201915b505050505081526020016004820160009054906101000a900460ff16151515158152505083838151811061135657611355613d8c565b5b6020026020010181905250818061136c90613dbb565b9250505b808061137b90613dbb565b91505061118f565b50819250505090565b606060ca805461139b90613480565b80601f01602080910402602001604051908101604052809291908181526020018280546113c790613480565b80156114145780601f106113e957610100808354040283529160200191611414565b820191906000526020600020905b8154815290600101906020018083116113f757829003601f168201915b5050505050905090565b611430611429611ae2565b83836123c4565b5050565b61144561143f611ae2565b83611ba3565b611484576040517f08c379a000000000000000000000000000000000000000000000000000000000815260040161147b906136d9565b60405180910390fd5b61149084848484612530565b50505050565b6002606554036114db576040517f08c379a00000000000000000000000000000000000000000000000000000000081526004016114d2906137b1565b60405180910390fd5b6002606581905550600073ffffffffffffffffffffffffffffffffffffffff163373ffffffffffffffffffffffffffffffffffffffff1614158015611554575061152481610dad565b73ffffffffffffffffffffffffffffffffffffffff163373ffffffffffffffffffffffffffffffffffffffff1614155b61155d57600080fd5b61016160008281526020019081526020016000206001015434101561158157600080fd5b600061158c82610dad565b90508073ffffffffffffffffffffffffffffffffffffffff166108fc349081150290604051600060405180830381858888f193505050501580156115d4573d6000803e3d6000fd5b506115e081600161141e565b6115eb813384611c81565b6000610161600084815260200190815260200160002060040160006101000a81548160ff02191690831515021790555050600160658190555050565b606061163282611a76565b611671576040517f08c379a000000000000000000000000000000000000000000000000000000000815260040161166890613e75565b60405180910390fd5b600061167b61258c565b9050600081511161169b57604051806020016040528060008152506116c6565b806116a58461261f565b6040516020016116b6929190613ed1565b6040516020818303038152906040525b915050919050565b60006116d982611a76565b611718576040517f08c379a000000000000000000000000000000000000000000000000000000000815260040161170f90613f67565b60405180910390fd5b6101616000838152602001908152602001600020600101549050919050565b600060ce60008473ffffffffffffffffffffffffffffffffffffffff1673ffffffffffffffffffffffffffffffffffffffff16815260200190815260200160002060008373ffffffffffffffffffffffffffffffffffffffff1673ffffffffffffffffffffffffffffffffffffffff16815260200190815260200160002060009054906101000a900460ff16905092915050565b6117d482611a76565b611813576040517f08c379a000000000000000000000000000000000000000000000000000000000815260040161180a90613ff9565b60405180910390fd5b61181b611ae2565b73ffffffffffffffffffffffffffffffffffffffff1661183a83610dad565b73ffffffffffffffffffffffffffffffffffffffff161461185a57600080fd5b806101616000848152602001908152602001600020600101819055505050565b611882611ae2565b73ffffffffffffffffffffffffffffffffffffffff166118a06110fd565b73ffffffffffffffffffffffffffffffffffffffff16146118f6576040517f08c379a00000000000000000000000000000000000000000000000000000000081526004016118ed90613745565b60405180910390fd5b600073ffffffffffffffffffffffffffffffffffffffff168173ffffffffffffffffffffffffffffffffffffffff1603611965576040517f08c379a000000000000000000000000000000000000000000000000000000000815260040161195c9061408b565b60405180910390fd5b61196e8161225b565b50565b6000808273ffffffffffffffffffffffffffffffffffffffff163b119050919050565b60007f80ac58cd000000000000000000000000000000000000000000000000000000007bffffffffffffffffffffffffffffffffffffffffffffffffffffffff1916827bffffffffffffffffffffffffffffffffffffffffffffffffffffffff19161480611a5f57507f5b5e139f000000000000000000000000000000000000000000000000000000007bffffffffffffffffffffffffffffffffffffffffffffffffffffffff1916827bffffffffffffffffffffffffffffffffffffffffffffffffffffffff1916145b80611a6f5750611a6e8261277f565b5b9050919050565b60008073ffffffffffffffffffffffffffffffffffffffff1660cb600084815260200190815260200160002060009054906101000a900473ffffffffffffffffffffffffffffffffffffffff1673ffffffffffffffffffffffffffffffffffffffff1614159050919050565b600033905090565b8160cd600083815260200190815260200160002060006101000a81548173ffffffffffffffffffffffffffffffffffffffff021916908373ffffffffffffffffffffffffffffffffffffffff160217905550808273ffffffffffffffffffffffffffffffffffffffff16611b5d83610dad565b73ffffffffffffffffffffffffffffffffffffffff167f8c5be1e5ebec7d5bd14f71427d1e84f3dd0314c0f7b2291e5b200ac8c7c3b92560405160405180910390a45050565b6000611bae82611a76565b611bed576040517f08c379a0000000000000000000000000000000000000000000000000000000008152600401611be49061411d565b60405180910390fd5b6000611bf883610dad565b90508073ffffffffffffffffffffffffffffffffffffffff168473ffffffffffffffffffffffffffffffffffffffff161480611c3a5750611c398185611737565b5b80611c7857508373ffffffffffffffffffffffffffffffffffffffff16611c6084610706565b73ffffffffffffffffffffffffffffffffffffffff16145b91505092915050565b8273ffffffffffffffffffffffffffffffffffffffff16611ca182610dad565b73ffffffffffffffffffffffffffffffffffffffff1614611cf7576040517f08c379a0000000000000000000000000000000000000000000000000000000008152600401611cee906141af565b60405180910390fd5b600073ffffffffffffffffffffffffffffffffffffffff168273ffffffffffffffffffffffffffffffffffffffff1603611d66576040517f08c379a0000000000000000000000000000000000000000000000000000000008152600401611d5d90614241565b60405180910390fd5b611d718383836127e9565b611d7c600082611aea565b600160cc60008573ffffffffffffffffffffffffffffffffffffffff1673ffffffffffffffffffffffffffffffffffffffff1681526020019081526020016000206000828254611dcc9190613924565b92505081905550600160cc60008473ffffffffffffffffffffffffffffffffffffffff1673ffffffffffffffffffffffffffffffffffffffff1681526020019081526020016000206000828254611e239190614261565b925050819055508160cb600083815260200190815260200160002060006101000a81548173ffffffffffffffffffffffffffffffffffffffff021916908373ffffffffffffffffffffffffffffffffffffffff160217905550808273ffffffffffffffffffffffffffffffffffffffff168473ffffffffffffffffffffffffffffffffffffffff167fddf252ad1be2c89b69c2b068fc378daa952ba7f163c4a11628f55a4df523b3ef60405160405180910390a4611ee28383836127f9565b505050565b611eef610d96565b611f2e576040517f08c379a0000000000000000000000000000000000000000000000000000000008152600401611f25906142e1565b60405180910390fd5b600060fb60006101000a81548160ff0219169083151502179055507f5db9ee0a495bf2e6ff9c91a7834c1ba4fdd244a5e8aa4e537bd38aeae4b073aa611f72611ae2565b604051611f7f9190612c38565b60405180910390a1565b600081600001549050919050565b600073ffffffffffffffffffffffffffffffffffffffff168273ffffffffffffffffffffffffffffffffffffffff1603612006576040517f08c379a0000000000000000000000000000000000000000000000000000000008152600401611ffd9061434d565b60405180910390fd5b61200f81611a76565b1561204f576040517f08c379a0000000000000000000000000000000000000000000000000000000008152600401612046906143b9565b60405180910390fd5b61205b600083836127e9565b600160cc60008473ffffffffffffffffffffffffffffffffffffffff1673ffffffffffffffffffffffffffffffffffffffff16815260200190815260200160002060008282546120ab9190614261565b925050819055508160cb600083815260200190815260200160002060006101000a81548173ffffffffffffffffffffffffffffffffffffffff021916908373ffffffffffffffffffffffffffffffffffffffff160217905550808273ffffffffffffffffffffffffffffffffffffffff16600073ffffffffffffffffffffffffffffffffffffffff167fddf252ad1be2c89b69c2b068fc378daa952ba7f163c4a11628f55a4df523b3ef60405160405180910390a461216c600083836127f9565b5050565b61217982611a76565b61218257600080fd5b61218a611ae2565b73ffffffffffffffffffffffffffffffffffffffff166121a983610dad565b73ffffffffffffffffffffffffffffffffffffffff16146121c957600080fd5b806101616000848152602001908152602001600020600082015181600001556020820151816001015560408201518160020190816122079190613b04565b50606082015181600301908161221d9190613b04565b5060808201518160040160006101000a81548160ff0219169083151502179055509050505050565b6001816000016000828254019250508190555050565b6000603360009054906101000a900473ffffffffffffffffffffffffffffffffffffffff16905081603360006101000a81548173ffffffffffffffffffffffffffffffffffffffff021916908373ffffffffffffffffffffffffffffffffffffffff1602179055508173ffffffffffffffffffffffffffffffffffffffff168173ffffffffffffffffffffffffffffffffffffffff167f8be0079c531659141344cd1fd0a4f28419497f9722a3daafe3b4186f6b6457e060405160405180910390a35050565b612329610d96565b15612369576040517f08c379a000000000000000000000000000000000000000000000000000000000815260040161236090614425565b60405180910390fd5b600160fb60006101000a81548160ff0219169083151502179055507f62e78cea01bee320cd4e420270b5ea74000d11b0c9f74754ebdbfc544b05a2586123ad611ae2565b6040516123ba9190612c38565b60405180910390a1565b8173ffffffffffffffffffffffffffffffffffffffff168373ffffffffffffffffffffffffffffffffffffffff1603612432576040517f08c379a000000000000000000000000000000000000000000000000000000000815260040161242990614491565b60405180910390fd5b8060ce60008573ffffffffffffffffffffffffffffffffffffffff1673ffffffffffffffffffffffffffffffffffffffff16815260200190815260200160002060008473ffffffffffffffffffffffffffffffffffffffff1673ffffffffffffffffffffffffffffffffffffffff16815260200190815260200160002060006101000a81548160ff0219169083151502179055508173ffffffffffffffffffffffffffffffffffffffff168373ffffffffffffffffffffffffffffffffffffffff167f17307eab39ab6107e8899845ad3d59bd9653f200f220920489ca2b5937696c31836040516125239190612ac7565b60405180910390a3505050565b61253b848484611c81565b612547848484846127fe565b612586576040517f08c379a000000000000000000000000000000000000000000000000000000000815260040161257d90614523565b60405180910390fd5b50505050565b6060610160805461259c90613480565b80601f01602080910402602001604051908101604052809291908181526020018280546125c890613480565b80156126155780601f106125ea57610100808354040283529160200191612615565b820191906000526020600020905b8154815290600101906020018083116125f857829003601f168201915b5050505050905090565b606060008203612666576040518060400160405280600181526020017f3000000000000000000000000000000000000000000000000000000000000000815250905061277a565b600082905060005b6000821461269857808061268190613dbb565b915050600a826126919190614572565b915061266e565b60008167ffffffffffffffff8111156126b4576126b3612e23565b5b6040519080825280601f01601f1916602001820160405280156126e65781602001600182028036833780820191505090505b5090505b60008514612773576001826126ff9190613924565b9150600a8561270e91906145a3565b603061271a9190614261565b60f81b8183815181106127305761272f613d8c565b5b60200101907effffffffffffffffffffffffffffffffffffffffffffffffffffffffffffff1916908160001a905350600a8561276c9190614572565b94506126ea565b8093505050505b919050565b60007f01ffc9a7000000000000000000000000000000000000000000000000000000007bffffffffffffffffffffffffffffffffffffffffffffffffffffffff1916827bffffffffffffffffffffffffffffffffffffffffffffffffffffffff1916149050919050565b6127f4838383612985565b505050565b505050565b600061281f8473ffffffffffffffffffffffffffffffffffffffff16611971565b15612978578373ffffffffffffffffffffffffffffffffffffffff1663150b7a02612848611ae2565b8786866040518563ffffffff1660e01b815260040161286a9493929190614629565b6020604051808303816000875af19250505080156128a657506040513d601f19601f820116820180604052508101906128a3919061468a565b60015b612928573d80600081146128d6576040519150601f19603f3d011682016040523d82523d6000602084013e6128db565b606091505b506000815103612920576040517f08c379a000000000000000000000000000000000000000000000000000000000815260040161291790614523565b60405180910390fd5b805181602001fd5b63150b7a0260e01b7bffffffffffffffffffffffffffffffffffffffffffffffffffffffff1916817bffffffffffffffffffffffffffffffffffffffffffffffffffffffff19161491505061297d565b600190505b949350505050565b6129908383836129dd565b612998610d96565b156129d8576040517f08c379a00000000000000000000000000000000000000000000000000000000081526004016129cf90614729565b60405180910390fd5b505050565b505050565b6040518060a00160405280600081526020016000815260200160608152602001606081526020016000151581525090565b6000604051905090565b600080fd5b600080fd5b60007fffffffff0000000000000000000000000000000000000000000000000000000082169050919050565b612a5c81612a27565b8114612a6757600080fd5b50565b600081359050612a7981612a53565b92915050565b600060208284031215612a9557612a94612a1d565b5b6000612aa384828501612a6a565b91505092915050565b60008115159050919050565b612ac181612aac565b82525050565b6000602082019050612adc6000830184612ab8565b92915050565b600081519050919050565b600082825260208201905092915050565b60005b83811015612b1c578082015181840152602081019050612b01565b60008484015250505050565b6000601f19601f8301169050919050565b6000612b4482612ae2565b612b4e8185612aed565b9350612b5e818560208601612afe565b612b6781612b28565b840191505092915050565b60006020820190508181036000830152612b8c8184612b39565b905092915050565b6000819050919050565b612ba781612b94565b8114612bb257600080fd5b50565b600081359050612bc481612b9e565b92915050565b600060208284031215612be057612bdf612a1d565b5b6000612bee84828501612bb5565b91505092915050565b600073ffffffffffffffffffffffffffffffffffffffff82169050919050565b6000612c2282612bf7565b9050919050565b612c3281612c17565b82525050565b6000602082019050612c4d6000830184612c29565b92915050565b612c5c81612c17565b8114612c6757600080fd5b50565b600081359050612c7981612c53565b92915050565b60008060408385031215612c9657612c95612a1d565b5b6000612ca485828601612c6a565b9250506020612cb585828601612bb5565b9150509250929050565b612cc881612b94565b82525050565b600082825260208201905092915050565b6000612cea82612ae2565b612cf48185612cce565b9350612d04818560208601612afe565b612d0d81612b28565b840191505092915050565b612d2181612aac565b82525050565b600060a083016000830151612d3f6000860182612cbf565b506020830151612d526020860182612cbf565b5060408301518482036040860152612d6a8282612cdf565b91505060608301518482036060860152612d848282612cdf565b9150506080830151612d996080860182612d18565b508091505092915050565b60006020820190508181036000830152612dbe8184612d27565b905092915050565b600080600060608486031215612ddf57612dde612a1d565b5b6000612ded86828701612c6a565b9350506020612dfe86828701612c6a565b9250506040612e0f86828701612bb5565b9150509250925092565b600080fd5b600080fd5b7f4e487b7100000000000000000000000000000000000000000000000000000000600052604160045260246000fd5b612e5b82612b28565b810181811067ffffffffffffffff82111715612e7a57612e79612e23565b5b80604052505050565b6000612e8d612a13565b9050612e998282612e52565b919050565b600067ffffffffffffffff821115612eb957612eb8612e23565b5b612ec282612b28565b9050602081019050919050565b82818337600083830152505050565b6000612ef1612eec84612e9e565b612e83565b905082815260208101848484011115612f0d57612f0c612e1e565b5b612f18848285612ecf565b509392505050565b600082601f830112612f3557612f34612e19565b5b8135612f45848260208601612ede565b91505092915050565b60008060008060808587031215612f6857612f67612a1d565b5b6000612f7687828801612c6a565b9450506020612f8787828801612bb5565b935050604085013567ffffffffffffffff811115612fa857612fa7612a22565b5b612fb487828801612f20565b925050606085013567ffffffffffffffff811115612fd557612fd4612a22565b5b612fe187828801612f20565b91505092959194509250565b612ff681612b94565b82525050565b60006020820190506130116000830184612fed565b92915050565b60006020828403121561302d5761302c612a1d565b5b600082013567ffffffffffffffff81111561304b5761304a612a22565b5b61305784828501612f20565b91505092915050565b61306981612aac565b811461307457600080fd5b50565b60008135905061308681613060565b92915050565b6000806000606084860312156130a5576130a4612a1d565b5b60006130b386828701612bb5565b93505060206130c486828701613077565b92505060406130d586828701612bb5565b9150509250925092565b6000602082840312156130f5576130f4612a1d565b5b600061310384828501612c6a565b91505092915050565b600081519050919050565b600082825260208201905092915050565b6000819050602082019050919050565b600060a0830160008301516131506000860182612cbf565b5060208301516131636020860182612cbf565b506040830151848203604086015261317b8282612cdf565b915050606083015184820360608601526131958282612cdf565b91505060808301516131aa6080860182612d18565b508091505092915050565b60006131c18383613138565b905092915050565b6000602082019050919050565b60006131e18261310c565b6131eb8185613117565b9350836020820285016131fd85613128565b8060005b85811015613239578484038952815161321a85826131b5565b9450613225836131c9565b925060208a01995050600181019050613201565b50829750879550505050505092915050565b6000602082019050818103600083015261326581846131d6565b905092915050565b6000806040838503121561328457613283612a1d565b5b600061329285828601612c6a565b92505060206132a385828601613077565b9150509250929050565b600067ffffffffffffffff8211156132c8576132c7612e23565b5b6132d182612b28565b9050602081019050919050565b60006132f16132ec846132ad565b612e83565b90508281526020810184848401111561330d5761330c612e1e565b5b613318848285612ecf565b509392505050565b600082601f83011261333557613334612e19565b5b81356133458482602086016132de565b91505092915050565b6000806000806080858703121561336857613367612a1d565b5b600061337687828801612c6a565b945050602061338787828801612c6a565b935050604061339887828801612bb5565b925050606085013567ffffffffffffffff8111156133b9576133b8612a22565b5b6133c587828801613320565b91505092959194509250565b600080604083850312156133e8576133e7612a1d565b5b60006133f685828601612c6a565b925050602061340785828601612c6a565b9150509250929050565b6000806040838503121561342857613427612a1d565b5b600061343685828601612bb5565b925050602061344785828601612bb5565b9150509250929050565b7f4e487b7100000000000000000000000000000000000000000000000000000000600052602260045260246000fd5b6000600282049050600182168061349857607f821691505b6020821081036134ab576134aa613451565b5b50919050565b7f4552433732313a20617070726f76656420717565727920666f72206e6f6e657860008201527f697374656e7420746f6b656e0000000000000000000000000000000000000000602082015250565b600061350d602c83612aed565b9150613518826134b1565b604082019050919050565b6000602082019050818103600083015261353c81613500565b9050919050565b7f4552433732313a20617070726f76616c20746f2063757272656e74206f776e6560008201527f7200000000000000000000000000000000000000000000000000000000000000602082015250565b600061359f602183612aed565b91506135aa82613543565b604082019050919050565b600060208201905081810360008301526135ce81613592565b9050919050565b7f4552433732313a20617070726f76652063616c6c6572206973206e6f74206f7760008201527f6e6572206e6f7220617070726f76656420666f7220616c6c0000000000000000602082015250565b6000613631603883612aed565b915061363c826135d5565b604082019050919050565b6000602082019050818103600083015261366081613624565b9050919050565b7f4552433732313a207472616e736665722063616c6c6572206973206e6f74206f60008201527f776e6572206e6f7220617070726f766564000000000000000000000000000000602082015250565b60006136c3603183612aed565b91506136ce82613667565b604082019050919050565b600060208201905081810360008301526136f2816136b6565b9050919050565b7f4f776e61626c653a2063616c6c6572206973206e6f7420746865206f776e6572600082015250565b600061372f602083612aed565b915061373a826136f9565b602082019050919050565b6000602082019050818103600083015261375e81613722565b9050919050565b7f5265656e7472616e637947756172643a207265656e7472616e742063616c6c00600082015250565b600061379b601f83612aed565b91506137a682613765565b602082019050919050565b600060208201905081810360008301526137ca8161378e565b9050919050565b7f425850503a206d757374206861766520656e6f756768206d6f6e657920746f2060008201527f6d696e742e000000000000000000000000000000000000000000000000000000602082015250565b600061382d602583612aed565b9150613838826137d1565b604082019050919050565b6000602082019050818103600083015261385c81613820565b9050919050565b7f425850503a20536f6d657468696e672077726f6e6721205072696365206d757360008201527f74206d6f7265207468616e20302e000000000000000000000000000000000000602082015250565b60006138bf602e83612aed565b91506138ca82613863565b604082019050919050565b600060208201905081810360008301526138ee816138b2565b9050919050565b7f4e487b7100000000000000000000000000000000000000000000000000000000600052601160045260246000fd5b600061392f82612b94565b915061393a83612b94565b9250828203905081811115613952576139516138f5565b5b92915050565b60008190508160005260206000209050919050565b60006020601f8301049050919050565b600082821b905092915050565b6000600883026139ba7fffffffffffffffffffffffffffffffffffffffffffffffffffffffffffffffff8261397d565b6139c4868361397d565b95508019841693508086168417925050509392505050565b6000819050919050565b6000613a016139fc6139f784612b94565b6139dc565b612b94565b9050919050565b6000819050919050565b613a1b836139e6565b613a2f613a2782613a08565b84845461398a565b825550505050565b600090565b613a44613a37565b613a4f818484613a12565b505050565b5b81811015613a7357613a68600082613a3c565b600181019050613a55565b5050565b601f821115613ab857613a8981613958565b613a928461396d565b81016020851015613aa1578190505b613ab5613aad8561396d565b830182613a54565b50505b505050565b600082821c905092915050565b6000613adb60001984600802613abd565b1980831691505092915050565b6000613af48383613aca565b9150826002028217905092915050565b613b0d82612ae2565b67ffffffffffffffff811115613b2657613b25612e23565b5b613b308254613480565b613b3b828285613a77565b600060209050601f831160018114613b6e5760008415613b5c578287015190505b613b668582613ae8565b865550613bce565b601f198416613b7c86613958565b60005b82811015613ba457848901518255600182019150602085019450602081019050613b7f565b86831015613bc15784890151613bbd601f891682613aca565b8355505b6001600288020188555050505b505050505050565b7f4552433732313a206f776e657220717565727920666f72206e6f6e657869737460008201527f656e7420746f6b656e0000000000000000000000000000000000000000000000602082015250565b6000613c32602983612aed565b9150613c3d82613bd6565b604082019050919050565b60006020820190508181036000830152613c6181613c25565b9050919050565b7f4552433732314d657461646174613a2053616c6520736574206f66206e6f6e6560008201527f78697374656e7420746f6b656e00000000000000000000000000000000000000602082015250565b6000613cc4602d83612aed565b9150613ccf82613c68565b604082019050919050565b60006020820190508181036000830152613cf381613cb7565b9050919050565b7f4552433732313a2062616c616e636520717565727920666f7220746865207a6560008201527f726f206164647265737300000000000000000000000000000000000000000000602082015250565b6000613d56602a83612aed565b9150613d6182613cfa565b604082019050919050565b60006020820190508181036000830152613d8581613d49565b9050919050565b7f4e487b7100000000000000000000000000000000000000000000000000000000600052603260045260246000fd5b6000613dc682612b94565b91507fffffffffffffffffffffffffffffffffffffffffffffffffffffffffffffffff8203613df857613df76138f5565b5b600182019050919050565b7f4552433732314d657461646174613a2055524920717565727920666f72206e6f60008201527f6e6578697374656e7420746f6b656e0000000000000000000000000000000000602082015250565b6000613e5f602f83612aed565b9150613e6a82613e03565b604082019050919050565b60006020820190508181036000830152613e8e81613e52565b9050919050565b600081905092915050565b6000613eab82612ae2565b613eb58185613e95565b9350613ec5818560208601612afe565b80840191505092915050565b6000613edd8285613ea0565b9150613ee98284613ea0565b91508190509392505050565b7f4552433732314d657461646174613a20507269636520717565727920666f722060008201527f6e6f6e6578697374656e7420746f6b656e000000000000000000000000000000602082015250565b6000613f51603183612aed565b9150613f5c82613ef5565b604082019050919050565b60006020820190508181036000830152613f8081613f44565b9050919050565b7f4552433732314d657461646174613a20507269636520736574206f66206e6f6e60008201527f6578697374656e7420746f6b656e000000000000000000000000000000000000602082015250565b6000613fe3602e83612aed565b9150613fee82613f87565b604082019050919050565b6000602082019050818103600083015261401281613fd6565b9050919050565b7f4f776e61626c653a206e6577206f776e657220697320746865207a65726f206160008201527f6464726573730000000000000000000000000000000000000000000000000000602082015250565b6000614075602683612aed565b915061408082614019565b604082019050919050565b600060208201905081810360008301526140a481614068565b9050919050565b7f4552433732313a206f70657261746f7220717565727920666f72206e6f6e657860008201527f697374656e7420746f6b656e0000000000000000000000000000000000000000602082015250565b6000614107602c83612aed565b9150614112826140ab565b604082019050919050565b60006020820190508181036000830152614136816140fa565b9050919050565b7f4552433732313a207472616e736665722066726f6d20696e636f72726563742060008201527f6f776e6572000000000000000000000000000000000000000000000000000000602082015250565b6000614199602583612aed565b91506141a48261413d565b604082019050919050565b600060208201905081810360008301526141c88161418c565b9050919050565b7f4552433732313a207472616e7366657220746f20746865207a65726f2061646460008201527f7265737300000000000000000000000000000000000000000000000000000000602082015250565b600061422b602483612aed565b9150614236826141cf565b604082019050919050565b6000602082019050818103600083015261425a8161421e565b9050919050565b600061426c82612b94565b915061427783612b94565b925082820190508082111561428f5761428e6138f5565b5b92915050565b7f5061757361626c653a206e6f7420706175736564000000000000000000000000600082015250565b60006142cb601483612aed565b91506142d682614295565b602082019050919050565b600060208201905081810360008301526142fa816142be565b9050919050565b7f4552433732313a206d696e7420746f20746865207a65726f2061646472657373600082015250565b6000614337602083612aed565b915061434282614301565b602082019050919050565b600060208201905081810360008301526143668161432a565b9050919050565b7f4552433732313a20746f6b656e20616c7265616479206d696e74656400000000600082015250565b60006143a3601c83612aed565b91506143ae8261436d565b602082019050919050565b600060208201905081810360008301526143d281614396565b9050919050565b7f5061757361626c653a2070617573656400000000000000000000000000000000600082015250565b600061440f601083612aed565b915061441a826143d9565b602082019050919050565b6000602082019050818103600083015261443e81614402565b9050919050565b7f4552433732313a20617070726f766520746f2063616c6c657200000000000000600082015250565b600061447b601983612aed565b915061448682614445565b602082019050919050565b600060208201905081810360008301526144aa8161446e565b9050919050565b7f4552433732313a207472616e7366657220746f206e6f6e20455243373231526560008201527f63656976657220696d706c656d656e7465720000000000000000000000000000602082015250565b600061450d603283612aed565b9150614518826144b1565b604082019050919050565b6000602082019050818103600083015261453c81614500565b9050919050565b7f4e487b7100000000000000000000000000000000000000000000000000000000600052601260045260246000fd5b600061457d82612b94565b915061458883612b94565b92508261459857614597614543565b5b828204905092915050565b60006145ae82612b94565b91506145b983612b94565b9250826145c9576145c8614543565b5b828206905092915050565b600081519050919050565b600082825260208201905092915050565b60006145fb826145d4565b61460581856145df565b9350614615818560208601612afe565b61461e81612b28565b840191505092915050565b600060808201905061463e6000830187612c29565b61464b6020830186612c29565b6146586040830185612fed565b818103606083015261466a81846145f0565b905095945050505050565b60008151905061468481612a53565b92915050565b6000602082840312156146a05761469f612a1d565b5b60006146ae84828501614675565b91505092915050565b7f4552433732315061757361626c653a20746f6b656e207472616e73666572207760008201527f68696c6520706175736564000000000000000000000000000000000000000000602082015250565b6000614713602b83612aed565b915061471e826146b7565b604082019050919050565b6000602082019050818103600083015261474281614706565b905091905056fea2646970667358221220ae5e55113b86a65a4bcb21d346e0989930c7e3704e2cc2ed2581c5305cc2fea864736f6c63430008100033",
  "immutableReferences": {},
  "source": "// SPDX-License-Identifier: MIT\r\npragma solidity >=0.4.22 <0.9.0;\r\npragma experimental ABIEncoderV2;\r\n\r\nimport \"../node_modules/@openzeppelin/contracts-upgradeable/token/ERC721/extensions/ERC721PausableUpgradeable.sol\";\r\nimport \"../node_modules/@openzeppelin/contracts-upgradeable/access/OwnableUpgradeable.sol\";\r\nimport \"../node_modules/@openzeppelin/contracts-upgradeable/security/ReentrancyGuardUpgradeable.sol\";\r\nimport \"../node_modules/@openzeppelin/contracts-upgradeable/utils/CountersUpgradeable.sol\";\r\n\r\n\r\ncontract ContractTemplate is \r\n    OwnableUpgradeable, \r\n    ReentrancyGuardUpgradeable,\r\n    ERC721PausableUpgradeable\r\n{\r\n    /***\r\n    function initialize(string memory name, string memory symbol, string memory url\r\n    ) public virtual initializer {\r\n        __ContractTemplate_init(name, symbol, url);\r\n    }\r\n    ***/\r\n    constructor(string memory name, string memory symbol, string memory url\r\n    ) {\r\n        __ContractTemplate_init(name, symbol, url);\r\n    }\r\n    using CountersUpgradeable for CountersUpgradeable.Counter;\r\n    CountersUpgradeable.Counter private _tokenIds;\r\n\r\n    string private _baseTokenURI;\r\n\r\n    mapping (uint256 => TokenMeta) private _tokenMeta;\r\n    struct TokenMeta {\r\n        uint256 id;\r\n        uint256 price;\r\n        string name;\r\n        string image;\r\n        bool sale;\r\n    }\r\n\r\n    /**\r\n     * @dev Grants `DEFAULT_ADMIN_ROLE`, `MINTER_ROLE` and `PAUSER_ROLE` to the\r\n     * account that deploys the contract.\r\n     *\r\n     * Token URIs will be autogenerated based on `baseURI` and their token IDs.\r\n     * See {ERC721-tokenURI}.\r\n     */\r\n    function __ContractTemplate_init(\r\n        string memory name,\r\n        string memory symbol,\r\n        string memory baseTokenURI\r\n    ) internal initializer {\r\n        __ERC721_init_unchained(name, symbol);\r\n        __ERC721Pausable_init_unchained();\r\n        __Ownable_init_unchained();\r\n        __ReentrancyGuard_init_unchained();\r\n        __ContractTemplate_init_unchained(baseTokenURI);\r\n    }\r\n\r\n    function __ContractTemplate_init_unchained( string memory baseTokenURI ) internal initializer {\r\n        _baseTokenURI = baseTokenURI;\r\n    }\r\n\r\n    /**\r\n     * @dev Base URI for computing {tokenURI}. Empty by default, can be overriden\r\n     * in child contracts.\r\n     */\r\n\r\n    function _baseURI() internal view virtual override returns (string memory) {\r\n        return _baseTokenURI;\r\n    }\r\n\r\n    function setBaseURI(string memory _newBaseURI) public virtual onlyOwner {\r\n        _baseTokenURI = _newBaseURI;\r\n    }\r\n\r\n    function getAllOnSale () public view virtual returns( TokenMeta[] memory ) {\r\n        TokenMeta[] memory tokensOnSale = new TokenMeta[](_tokenIds.current());\r\n        uint256 counter = 0;\r\n\r\n        for(uint i = 0; i < _tokenIds.current(); i++) {\r\n            if(_tokenMeta[i].sale == true) {\r\n                tokensOnSale[counter] = _tokenMeta[i];\r\n                counter++;\r\n            }\r\n        }\r\n        return tokensOnSale;\r\n    }\r\n\r\n    /**\r\n     * @dev sets maps token to its price\r\n     * @param _tokenId uint256 token ID (token number)\r\n     * @param _sale bool token on sale\r\n     * @param _price unit256 token price\r\n     * \r\n     * Requirements: \r\n     * `tokenId` must exist\r\n     * `price` must be more than 0\r\n     * `owner` must the msg.owner\r\n     */\r\n    function setTokenSale(uint256 _tokenId, bool _sale, uint256 _price) public {\r\n        require(_exists(_tokenId), \"ERC721Metadata: Sale set of nonexistent token\");\r\n        require(_price > 0);\r\n        require(ownerOf(_tokenId) == _msgSender());\r\n\r\n        _tokenMeta[_tokenId].sale = _sale;\r\n        setTokenPrice(_tokenId, _price);\r\n    }\r\n\r\n    /**\r\n     * @dev sets maps token to its price\r\n     * @param _tokenId uint256 token ID (token number)\r\n     * @param _price uint256 token price\r\n     * \r\n     * Requirements: \r\n     * `tokenId` must exist\r\n     * `owner` must the msg.owner\r\n     */\r\n    function setTokenPrice(uint256 _tokenId, uint256 _price) public {\r\n        require(_exists(_tokenId), \"ERC721Metadata: Price set of nonexistent token\");\r\n        require(ownerOf(_tokenId) == _msgSender());\r\n        _tokenMeta[_tokenId].price = _price;\r\n    }\r\n\r\n    function tokenPrice(uint256 tokenId) public view virtual returns (uint256) {\r\n        require(_exists(tokenId), \"ERC721Metadata: Price query for nonexistent token\");\r\n        return _tokenMeta[tokenId].price;\r\n    }\r\n\r\n    /**\r\n     * @dev sets token meta\r\n     * @param _tokenId uint256 token ID (token number)\r\n     * @param _meta TokenMeta \r\n     * \r\n     * Requirements: \r\n     * `tokenId` must exist\r\n     * `owner` must the msg.owner\r\n     */\r\n    function _setTokenMeta(uint256 _tokenId, TokenMeta memory _meta) private {\r\n        require(_exists(_tokenId));\r\n        require(ownerOf(_tokenId) == _msgSender());\r\n        _tokenMeta[_tokenId] = _meta;\r\n    }\r\n\r\n    function tokenMeta(uint256 _tokenId) public view returns (TokenMeta memory) {\r\n        require(_exists(_tokenId));\r\n        return _tokenMeta[_tokenId];\r\n    }\r\n\r\n    /**\r\n     * @dev purchase _tokenId\r\n     * @param _tokenId uint256 token ID (token number)\r\n     */\r\n    function purchaseToken(uint256 _tokenId) public payable nonReentrant {\r\n        require(msg.sender != address(0) && msg.sender != ownerOf(_tokenId));\r\n        require(msg.value >= _tokenMeta[_tokenId].price);\r\n        address tokenSeller = ownerOf(_tokenId);\r\n\r\n        payable(tokenSeller).transfer(msg.value);\r\n\r\n        setApprovalForAll(tokenSeller, true);\r\n        _transfer(tokenSeller, msg.sender, _tokenId);\r\n        _tokenMeta[_tokenId].sale = false;\r\n    }\r\n\r\n\r\n    /**\r\n     * @dev Creates a new token for `to`. Its token ID will be automatically\r\n     * assigned (and available on the emitted {IERC721-Transfer} event), and the token\r\n     * URI autogenerated based on the base URI passed at construction.\r\n     *\r\n     * See {ERC721-_mint}.\r\n     *\r\n     * Requirements:\r\n     *\r\n     * - the caller must have the `MINTER_ROLE`.\r\n     */\r\n    function mintCollectable(\r\n        address to, \r\n        uint256 _price, \r\n        string memory _name, \r\n        string memory _image\r\n    ) public payable nonReentrant returns (uint256) {\r\n        require(msg.value >= _price, \"BXPP: must have enough money to mint.\");\r\n        require(_price > 0, \"BXPP: Something wrong! Price must more than 0.\");\r\n\r\n        address creator = 0x21540DA960C1C575BEAe67b37B8a538e697c79eD; // RinkebyUser2\r\n        payable(creator).transfer(msg.value);\r\n\r\n        \r\n        _mint(to, _tokenIds.current());\r\n\r\n        // Mintsalefalse\r\n        TokenMeta memory meta = TokenMeta(_tokenIds.current(), _price, _name, _image, false);\r\n        _setTokenMeta(_tokenIds.current(), meta);    \r\n\r\n        _tokenIds.increment();\r\n\r\n        return _tokenIds.current() - 1;\r\n    }\r\n\r\n    /**\r\n     * @dev Pauses all token transfers.\r\n     *\r\n     * See {ERC721Pausable} and {Pausable-_pause}.\r\n     *\r\n     * Requirements:\r\n     *\r\n     * - the caller must have the `PAUSER_ROLE`.\r\n     */\r\n    function pause() public virtual onlyOwner {\r\n        // require(hasRole(PAUSER_ROLE, _msgSender()), \"ERC721PresetMinterPauserAutoId: must have pauser role to pause\");\r\n        _pause();\r\n    }\r\n\r\n    /**\r\n     * @dev Unpauses all token transfers.\r\n     *\r\n     * See {ERC721Pausable} and {Pausable-_unpause}.\r\n     *\r\n     * Requirements:\r\n     *\r\n     * - the caller must have the `PAUSER_ROLE`.\r\n     */\r\n    function unpause() public virtual onlyOwner {\r\n        // require(hasRole(PAUSER_ROLE, _msgSender()), \"ERC721PresetMinterPauserAutoId: must have pauser role to unpause\");\r\n        _unpause();\r\n    }\r\n\r\n    function _beforeTokenTransfer(\r\n        address from,\r\n        address to,\r\n        uint256 tokenId\r\n    ) internal virtual override(ERC721PausableUpgradeable) {\r\n        super._beforeTokenTransfer(from, to, tokenId);\r\n    }\r\n\r\n    /**\r\n     * @dev See {IERC165-supportsInterface}.\r\n     */\r\n    function supportsInterface(bytes4 interfaceId)\r\n        public\r\n        view\r\n        virtual\r\n        override(ERC721Upgradeable)\r\n        returns (bool)\r\n    {\r\n        return super.supportsInterface(interfaceId);\r\n    }\r\n    uint256[48] private __gap;\r\n}",
  "sourcePath": "C:\\Users\\10035622\\bxpp-contract\\contracts\\ContractTemplate.sol",
  "compiler": {
    "name": "solc",
    "version": "0.8.16+commit.07a7930e.Emscripten.clang"
  },
  "schemaVersion": "3.4.7",
  "updatedAt": "2022-08-13T01:16:23.475Z",
  "devdoc": {
    "kind": "dev",
    "methods": {
      "approve(address,uint256)": {
        "details": "See {IERC721-approve}."
      },
      "balanceOf(address)": {
        "details": "See {IERC721-balanceOf}."
      },
      "getApproved(uint256)": {
        "details": "See {IERC721-getApproved}."
      },
      "isApprovedForAll(address,address)": {
        "details": "See {IERC721-isApprovedForAll}."
      },
      "mintCollectable(address,uint256,string,string)": {
        "details": "Creates a new token for `to`. Its token ID will be automatically assigned (and available on the emitted {IERC721-Transfer} event), and the token URI autogenerated based on the base URI passed at construction. See {ERC721-_mint}. Requirements: - the caller must have the `MINTER_ROLE`."
      },
      "name()": {
        "details": "See {IERC721Metadata-name}."
      },
      "owner()": {
        "details": "Returns the address of the current owner."
      },
      "ownerOf(uint256)": {
        "details": "See {IERC721-ownerOf}."
      },
      "pause()": {
        "details": "Pauses all token transfers. See {ERC721Pausable} and {Pausable-_pause}. Requirements: - the caller must have the `PAUSER_ROLE`."
      },
      "paused()": {
        "details": "Returns true if the contract is paused, and false otherwise."
      },
      "purchaseToken(uint256)": {
        "details": "purchase _tokenId",
        "params": {
          "_tokenId": "uint256 token ID (token number)"
        }
      },
      "renounceOwnership()": {
        "details": "Leaves the contract without owner. It will not be possible to call `onlyOwner` functions anymore. Can only be called by the current owner. NOTE: Renouncing ownership will leave the contract without an owner, thereby removing any functionality that is only available to the owner."
      },
      "safeTransferFrom(address,address,uint256)": {
        "details": "See {IERC721-safeTransferFrom}."
      },
      "safeTransferFrom(address,address,uint256,bytes)": {
        "details": "See {IERC721-safeTransferFrom}."
      },
      "setApprovalForAll(address,bool)": {
        "details": "See {IERC721-setApprovalForAll}."
      },
      "setTokenPrice(uint256,uint256)": {
        "details": "sets maps token to its price",
        "params": {
          "_price": "uint256 token price  Requirements:  `tokenId` must exist `owner` must the msg.owner",
          "_tokenId": "uint256 token ID (token number)"
        }
      },
      "setTokenSale(uint256,bool,uint256)": {
        "details": "sets maps token to its price",
        "params": {
          "_price": "unit256 token price  Requirements:  `tokenId` must exist `price` must be more than 0 `owner` must the msg.owner",
          "_sale": "bool token on sale",
          "_tokenId": "uint256 token ID (token number)"
        }
      },
      "supportsInterface(bytes4)": {
        "details": "See {IERC165-supportsInterface}."
      },
      "symbol()": {
        "details": "See {IERC721Metadata-symbol}."
      },
      "tokenURI(uint256)": {
        "details": "See {IERC721Metadata-tokenURI}."
      },
      "transferFrom(address,address,uint256)": {
        "details": "See {IERC721-transferFrom}."
      },
      "transferOwnership(address)": {
        "details": "Transfers ownership of the contract to a new account (`newOwner`). Can only be called by the current owner."
      },
      "unpause()": {
        "details": "Unpauses all token transfers. See {ERC721Pausable} and {Pausable-_unpause}. Requirements: - the caller must have the `PAUSER_ROLE`."
      }
    },
    "version": 1
  },
  "userdoc": {
    "kind": "user",
    "methods": {},
    "version": 1
  }
}