{
  "contractName": "ContractTemplate",
  "abi": [
    {
      "anonymous": false,
      "inputs": [
        {
          "indexed": true,
          "internalType": "address",
          "name": "owner",
          "type": "address"
        },
        {
          "indexed": true,
          "internalType": "address",
          "name": "approved",
          "type": "address"
        },
        {
          "indexed": true,
          "internalType": "uint256",
          "name": "tokenId",
          "type": "uint256"
        }
      ],
      "name": "Approval",
      "type": "event"
    },
    {
      "anonymous": false,
      "inputs": [
        {
          "indexed": true,
          "internalType": "address",
          "name": "owner",
          "type": "address"
        },
        {
          "indexed": true,
          "internalType": "address",
          "name": "operator",
          "type": "address"
        },
        {
          "indexed": false,
          "internalType": "bool",
          "name": "approved",
          "type": "bool"
        }
      ],
      "name": "ApprovalForAll",
      "type": "event"
    },
    {
      "anonymous": false,
      "inputs": [
        {
          "indexed": false,
          "internalType": "uint8",
          "name": "version",
          "type": "uint8"
        }
      ],
      "name": "Initialized",
      "type": "event"
    },
    {
      "anonymous": false,
      "inputs": [
        {
          "indexed": true,
          "internalType": "address",
          "name": "previousOwner",
          "type": "address"
        },
        {
          "indexed": true,
          "internalType": "address",
          "name": "newOwner",
          "type": "address"
        }
      ],
      "name": "OwnershipTransferred",
      "type": "event"
    },
    {
      "anonymous": false,
      "inputs": [
        {
          "indexed": false,
          "internalType": "address",
          "name": "account",
          "type": "address"
        }
      ],
      "name": "Paused",
      "type": "event"
    },
    {
      "anonymous": false,
      "inputs": [
        {
          "indexed": true,
          "internalType": "address",
          "name": "from",
          "type": "address"
        },
        {
          "indexed": true,
          "internalType": "address",
          "name": "to",
          "type": "address"
        },
        {
          "indexed": true,
          "internalType": "uint256",
          "name": "tokenId",
          "type": "uint256"
        }
      ],
      "name": "Transfer",
      "type": "event"
    },
    {
      "anonymous": false,
      "inputs": [
        {
          "indexed": false,
          "internalType": "address",
          "name": "account",
          "type": "address"
        }
      ],
      "name": "Unpaused",
      "type": "event"
    },
    {
      "inputs": [
        {
          "internalType": "address",
          "name": "to",
          "type": "address"
        },
        {
          "internalType": "uint256",
          "name": "tokenId",
          "type": "uint256"
        }
      ],
      "name": "approve",
      "outputs": [],
      "stateMutability": "nonpayable",
      "type": "function"
    },
    {
      "inputs": [
        {
          "internalType": "address",
          "name": "owner",
          "type": "address"
        }
      ],
      "name": "balanceOf",
      "outputs": [
        {
          "internalType": "uint256",
          "name": "",
          "type": "uint256"
        }
      ],
      "stateMutability": "view",
      "type": "function"
    },
    {
      "inputs": [
        {
          "internalType": "uint256",
          "name": "tokenId",
          "type": "uint256"
        }
      ],
      "name": "getApproved",
      "outputs": [
        {
          "internalType": "address",
          "name": "",
          "type": "address"
        }
      ],
      "stateMutability": "view",
      "type": "function"
    },
    {
      "inputs": [
        {
          "internalType": "address",
          "name": "owner",
          "type": "address"
        },
        {
          "internalType": "address",
          "name": "operator",
          "type": "address"
        }
      ],
      "name": "isApprovedForAll",
      "outputs": [
        {
          "internalType": "bool",
          "name": "",
          "type": "bool"
        }
      ],
      "stateMutability": "view",
      "type": "function"
    },
    {
      "inputs": [],
      "name": "name",
      "outputs": [
        {
          "internalType": "string",
          "name": "",
          "type": "string"
        }
      ],
      "stateMutability": "view",
      "type": "function"
    },
    {
      "inputs": [],
      "name": "owner",
      "outputs": [
        {
          "internalType": "address",
          "name": "",
          "type": "address"
        }
      ],
      "stateMutability": "view",
      "type": "function"
    },
    {
      "inputs": [
        {
          "internalType": "uint256",
          "name": "tokenId",
          "type": "uint256"
        }
      ],
      "name": "ownerOf",
      "outputs": [
        {
          "internalType": "address",
          "name": "",
          "type": "address"
        }
      ],
      "stateMutability": "view",
      "type": "function"
    },
    {
      "inputs": [],
      "name": "paused",
      "outputs": [
        {
          "internalType": "bool",
          "name": "",
          "type": "bool"
        }
      ],
      "stateMutability": "view",
      "type": "function"
    },
    {
      "inputs": [],
      "name": "renounceOwnership",
      "outputs": [],
      "stateMutability": "nonpayable",
      "type": "function"
    },
    {
      "inputs": [
        {
          "internalType": "address",
          "name": "from",
          "type": "address"
        },
        {
          "internalType": "address",
          "name": "to",
          "type": "address"
        },
        {
          "internalType": "uint256",
          "name": "tokenId",
          "type": "uint256"
        }
      ],
      "name": "safeTransferFrom",
      "outputs": [],
      "stateMutability": "nonpayable",
      "type": "function"
    },
    {
      "inputs": [
        {
          "internalType": "address",
          "name": "from",
          "type": "address"
        },
        {
          "internalType": "address",
          "name": "to",
          "type": "address"
        },
        {
          "internalType": "uint256",
          "name": "tokenId",
          "type": "uint256"
        },
        {
          "internalType": "bytes",
          "name": "_data",
          "type": "bytes"
        }
      ],
      "name": "safeTransferFrom",
      "outputs": [],
      "stateMutability": "nonpayable",
      "type": "function"
    },
    {
      "inputs": [
        {
          "internalType": "address",
          "name": "operator",
          "type": "address"
        },
        {
          "internalType": "bool",
          "name": "approved",
          "type": "bool"
        }
      ],
      "name": "setApprovalForAll",
      "outputs": [],
      "stateMutability": "nonpayable",
      "type": "function"
    },
    {
      "inputs": [],
      "name": "symbol",
      "outputs": [
        {
          "internalType": "string",
          "name": "",
          "type": "string"
        }
      ],
      "stateMutability": "view",
      "type": "function"
    },
    {
      "inputs": [
        {
          "internalType": "uint256",
          "name": "tokenId",
          "type": "uint256"
        }
      ],
      "name": "tokenURI",
      "outputs": [
        {
          "internalType": "string",
          "name": "",
          "type": "string"
        }
      ],
      "stateMutability": "view",
      "type": "function"
    },
    {
      "inputs": [
        {
          "internalType": "address",
          "name": "from",
          "type": "address"
        },
        {
          "internalType": "address",
          "name": "to",
          "type": "address"
        },
        {
          "internalType": "uint256",
          "name": "tokenId",
          "type": "uint256"
        }
      ],
      "name": "transferFrom",
      "outputs": [],
      "stateMutability": "nonpayable",
      "type": "function"
    },
    {
      "inputs": [
        {
          "internalType": "address",
          "name": "newOwner",
          "type": "address"
        }
      ],
      "name": "transferOwnership",
      "outputs": [],
      "stateMutability": "nonpayable",
      "type": "function"
    },
    {
      "inputs": [
        {
          "internalType": "string",
          "name": "name",
          "type": "string"
        },
        {
          "internalType": "string",
          "name": "symbol",
          "type": "string"
        },
        {
          "internalType": "string",
          "name": "url",
          "type": "string"
        }
      ],
      "name": "initialize",
      "outputs": [],
      "stateMutability": "nonpayable",
      "type": "function"
    },
    {
      "inputs": [
        {
          "internalType": "string",
          "name": "_newBaseURI",
          "type": "string"
        }
      ],
      "name": "setBaseURI",
      "outputs": [],
      "stateMutability": "nonpayable",
      "type": "function"
    },
    {
      "inputs": [],
      "name": "getAllOnSale",
      "outputs": [
        {
          "components": [
            {
              "internalType": "uint256",
              "name": "id",
              "type": "uint256"
            },
            {
              "internalType": "uint256",
              "name": "price",
              "type": "uint256"
            },
            {
              "internalType": "string",
              "name": "name",
              "type": "string"
            },
            {
              "internalType": "string",
              "name": "image",
              "type": "string"
            },
            {
              "internalType": "bool",
              "name": "sale",
              "type": "bool"
            }
          ],
          "internalType": "struct ContractTemplate.TokenMeta[]",
          "name": "",
          "type": "tuple[]"
        }
      ],
      "stateMutability": "view",
      "type": "function"
    },
    {
      "inputs": [
        {
          "internalType": "uint256",
          "name": "_tokenId",
          "type": "uint256"
        },
        {
          "internalType": "bool",
          "name": "_sale",
          "type": "bool"
        },
        {
          "internalType": "uint256",
          "name": "_price",
          "type": "uint256"
        }
      ],
      "name": "setTokenSale",
      "outputs": [],
      "stateMutability": "nonpayable",
      "type": "function"
    },
    {
      "inputs": [
        {
          "internalType": "uint256",
          "name": "_tokenId",
          "type": "uint256"
        },
        {
          "internalType": "uint256",
          "name": "_price",
          "type": "uint256"
        }
      ],
      "name": "setTokenPrice",
      "outputs": [],
      "stateMutability": "nonpayable",
      "type": "function"
    },
    {
      "inputs": [
        {
          "internalType": "uint256",
          "name": "tokenId",
          "type": "uint256"
        }
      ],
      "name": "tokenPrice",
      "outputs": [
        {
          "internalType": "uint256",
          "name": "",
          "type": "uint256"
        }
      ],
      "stateMutability": "view",
      "type": "function"
    },
    {
      "inputs": [
        {
          "internalType": "uint256",
          "name": "_tokenId",
          "type": "uint256"
        }
      ],
      "name": "tokenMeta",
      "outputs": [
        {
          "components": [
            {
              "internalType": "uint256",
              "name": "id",
              "type": "uint256"
            },
            {
              "internalType": "uint256",
              "name": "price",
              "type": "uint256"
            },
            {
              "internalType": "string",
              "name": "name",
              "type": "string"
            },
            {
              "internalType": "string",
              "name": "image",
              "type": "string"
            },
            {
              "internalType": "bool",
              "name": "sale",
              "type": "bool"
            }
          ],
          "internalType": "struct ContractTemplate.TokenMeta",
          "name": "",
          "type": "tuple"
        }
      ],
      "stateMutability": "view",
      "type": "function"
    },
    {
      "inputs": [
        {
          "internalType": "uint256",
          "name": "_tokenId",
          "type": "uint256"
        }
      ],
      "name": "purchaseToken",
      "outputs": [],
      "stateMutability": "payable",
      "type": "function"
    },
    {
      "inputs": [
        {
          "internalType": "address",
          "name": "to",
          "type": "address"
        },
        {
          "internalType": "uint256",
          "name": "_price",
          "type": "uint256"
        },
        {
          "internalType": "string",
          "name": "_name",
          "type": "string"
        },
        {
          "internalType": "string",
          "name": "_image",
          "type": "string"
        }
      ],
      "name": "mintCollectable",
      "outputs": [
        {
          "internalType": "uint256",
          "name": "",
          "type": "uint256"
        }
      ],
      "stateMutability": "payable",
      "type": "function"
    },
    {
      "inputs": [],
      "name": "pause",
      "outputs": [],
      "stateMutability": "nonpayable",
      "type": "function"
    },
    {
      "inputs": [],
      "name": "unpause",
      "outputs": [],
      "stateMutability": "nonpayable",
      "type": "function"
    },
    {
      "inputs": [
        {
          "internalType": "bytes4",
          "name": "interfaceId",
          "type": "bytes4"
        }
      ],
      "name": "supportsInterface",
      "outputs": [
        {
          "internalType": "bool",
          "name": "",
          "type": "bool"
        }
      ],
      "stateMutability": "view",
      "type": "function"
    }
  ],
  "bytecode": "0x608060405234801561001057600080fd5b50614e7c806100206000396000f3fe6080604052600436106101b75760003560e01c8063715018a6116100ec578063b88d4fde1161008a578063d4ddce8a11610064578063d4ddce8a146105da578063e985e9c514610617578063eb685c4714610654578063f2fde38b1461067d576101b7565b8063b88d4fde14610558578063c2db2c4214610581578063c87b56dd1461059d576101b7565b806390894559116100c657806390894559146104b057806395d89b41146104db578063a22cb46514610506578063a6487c531461052f576101b7565b8063715018a6146104575780638456cb591461046e5780638da5cb5b14610485576101b7565b806342842e0e116101595780635c975abb116101335780635c975abb146103895780636352211e146103b45780636387ede6146103f157806370a082311461041a576101b7565b806342842e0e1461030757806345b6f9bd1461033057806355f804b314610360576101b7565b8063095ea7b311610195578063095ea7b3146102615780630ae7a3101461028a57806323b872dd146102c75780633f4ba83a146102f0576101b7565b806301ffc9a7146101bc57806306fdde03146101f9578063081812fc14610224575b600080fd5b3480156101c857600080fd5b506101e360048036038101906101de9190612f23565b6106a6565b6040516101f09190612f6b565b60405180910390f35b34801561020557600080fd5b5061020e6106b8565b60405161021b919061301f565b60405180910390f35b34801561023057600080fd5b5061024b60048036038101906102469190613077565b61074a565b60405161025891906130e5565b60405180910390f35b34801561026d57600080fd5b506102886004803603810190610283919061312c565b6107cf565b005b34801561029657600080fd5b506102b160048036038101906102ac9190613077565b6108e6565b6040516102be9190613251565b60405180910390f35b3480156102d357600080fd5b506102ee60048036038101906102e99190613273565b610a79565b005b3480156102fc57600080fd5b50610305610ad9565b005b34801561031357600080fd5b5061032e60048036038101906103299190613273565b610b5f565b005b61034a600480360381019061034591906133fb565b610b7f565b60405161035791906134a9565b60405180910390f35b34801561036c57600080fd5b50610387600480360381019061038291906134c4565b610d4a565b005b34801561039557600080fd5b5061039e610dda565b6040516103ab9190612f6b565b60405180910390f35b3480156103c057600080fd5b506103db60048036038101906103d69190613077565b610df1565b6040516103e891906130e5565b60405180910390f35b3480156103fd57600080fd5b5061041860048036038101906104139190613539565b610ea2565b005b34801561042657600080fd5b50610441600480360381019061043c919061358c565b610f7c565b60405161044e91906134a9565b60405180910390f35b34801561046357600080fd5b5061046c611033565b005b34801561047a57600080fd5b506104836110bb565b005b34801561049157600080fd5b5061049a611141565b6040516104a791906130e5565b60405180910390f35b3480156104bc57600080fd5b506104c561116b565b6040516104d291906136f8565b60405180910390f35b3480156104e757600080fd5b506104f06113d0565b6040516104fd919061301f565b60405180910390f35b34801561051257600080fd5b5061052d6004803603810190610528919061371a565b611462565b005b34801561053b57600080fd5b506105566004803603810190610551919061375a565b611478565b005b34801561056457600080fd5b5061057f600480360381019061057a91906138a2565b611512565b005b61059b60048036038101906105969190613077565b611574565b005b3480156105a957600080fd5b506105c460048036038101906105bf9190613077565b611705565b6040516105d1919061301f565b60405180910390f35b3480156105e657600080fd5b5061060160048036038101906105fc9190613077565b6117ac565b60405161060e91906134a9565b60405180910390f35b34801561062357600080fd5b5061063e60048036038101906106399190613925565b611815565b60405161064b9190612f6b565b60405180910390f35b34801561066057600080fd5b5061067b60048036038101906106769190613965565b6118a9565b005b34801561068957600080fd5b506106a4600480360381019061069f919061358c565b611958565b005b60006106b182611a4f565b9050919050565b606060c980546106c7906139d4565b80601f01602080910402602001604051908101604052809291908181526020018280546106f3906139d4565b80156107405780601f1061071557610100808354040283529160200191610740565b820191906000526020600020905b81548152906001019060200180831161072357829003601f168201915b5050505050905090565b600061075582611b31565b610794576040517f08c379a000000000000000000000000000000000000000000000000000000000815260040161078b90613a77565b60405180910390fd5b60cd600083815260200190815260200160002060009054906101000a900473ffffffffffffffffffffffffffffffffffffffff169050919050565b60006107da82610df1565b90508073ffffffffffffffffffffffffffffffffffffffff168373ffffffffffffffffffffffffffffffffffffffff160361084a576040517f08c379a000000000000000000000000000000000000000000000000000000000815260040161084190613b09565b60405180910390fd5b8073ffffffffffffffffffffffffffffffffffffffff16610869611b9d565b73ffffffffffffffffffffffffffffffffffffffff161480610898575061089781610892611b9d565b611815565b5b6108d7576040517f08c379a00000000000000000000000000000000000000000000000000000000081526004016108ce90613b9b565b60405180910390fd5b6108e18383611ba5565b505050565b6108ee612e86565b6108f782611b31565b61090057600080fd5b61016160008381526020019081526020016000206040518060a00160405290816000820154815260200160018201548152602001600282018054610943906139d4565b80601f016020809104026020016040519081016040528092919081815260200182805461096f906139d4565b80156109bc5780601f10610991576101008083540402835291602001916109bc565b820191906000526020600020905b81548152906001019060200180831161099f57829003601f168201915b505050505081526020016003820180546109d5906139d4565b80601f0160208091040260200160405190810160405280929190818152602001828054610a01906139d4565b8015610a4e5780601f10610a2357610100808354040283529160200191610a4e565b820191906000526020600020905b815481529060010190602001808311610a3157829003601f168201915b505050505081526020016004820160009054906101000a900460ff1615151515815250509050919050565b610a8a610a84611b9d565b82611c5e565b610ac9576040517f08c379a0000000000000000000000000000000000000000000000000000000008152600401610ac090613c2d565b60405180910390fd5b610ad4838383611d3c565b505050565b610ae1611b9d565b73ffffffffffffffffffffffffffffffffffffffff16610aff611141565b73ffffffffffffffffffffffffffffffffffffffff1614610b55576040517f08c379a0000000000000000000000000000000000000000000000000000000008152600401610b4c90613c99565b60405180910390fd5b610b5d611fa2565b565b610b7a83838360405180602001604052806000815250611512565b505050565b6000600260655403610bc6576040517f08c379a0000000000000000000000000000000000000000000000000000000008152600401610bbd90613d05565b60405180910390fd5b600260658190555083341015610c11576040517f08c379a0000000000000000000000000000000000000000000000000000000008152600401610c0890613d97565b60405180910390fd5b60008411610c54576040517f08c379a0000000000000000000000000000000000000000000000000000000008152600401610c4b90613e29565b60405180910390fd5b60007321540da960c1c575beae67b37b8a538e697c79ed90508073ffffffffffffffffffffffffffffffffffffffff166108fc349081150290604051600060405180830381858888f19350505050158015610cb3573d6000803e3d6000fd5b50610cc886610cc361015f612044565b612052565b60006040518060a00160405280610ce061015f612044565b8152602001878152602001868152602001858152602001600015158152509050610d14610d0e61015f612044565b8261222b565b610d1f61015f612300565b6001610d2c61015f612044565b610d369190613e78565b925050506001606581905550949350505050565b610d52611b9d565b73ffffffffffffffffffffffffffffffffffffffff16610d70611141565b73ffffffffffffffffffffffffffffffffffffffff1614610dc6576040517f08c379a0000000000000000000000000000000000000000000000000000000008152600401610dbd90613c99565b60405180910390fd5b806101609081610dd69190614058565b5050565b600060fb60009054906101000a900460ff16905090565b60008060cb600084815260200190815260200160002060009054906101000a900473ffffffffffffffffffffffffffffffffffffffff169050600073ffffffffffffffffffffffffffffffffffffffff168173ffffffffffffffffffffffffffffffffffffffff1603610e99576040517f08c379a0000000000000000000000000000000000000000000000000000000008152600401610e909061419c565b60405180910390fd5b80915050919050565b610eab83611b31565b610eea576040517f08c379a0000000000000000000000000000000000000000000000000000000008152600401610ee19061422e565b60405180910390fd5b60008111610ef757600080fd5b610eff611b9d565b73ffffffffffffffffffffffffffffffffffffffff16610f1e84610df1565b73ffffffffffffffffffffffffffffffffffffffff1614610f3e57600080fd5b81610161600085815260200190815260200160002060040160006101000a81548160ff021916908315150217905550610f7783826118a9565b505050565b60008073ffffffffffffffffffffffffffffffffffffffff168273ffffffffffffffffffffffffffffffffffffffff1603610fec576040517f08c379a0000000000000000000000000000000000000000000000000000000008152600401610fe3906142c0565b60405180910390fd5b60cc60008373ffffffffffffffffffffffffffffffffffffffff1673ffffffffffffffffffffffffffffffffffffffff168152602001908152602001600020549050919050565b61103b611b9d565b73ffffffffffffffffffffffffffffffffffffffff16611059611141565b73ffffffffffffffffffffffffffffffffffffffff16146110af576040517f08c379a00000000000000000000000000000000000000000000000000000000081526004016110a690613c99565b60405180910390fd5b6110b96000612316565b565b6110c3611b9d565b73ffffffffffffffffffffffffffffffffffffffff166110e1611141565b73ffffffffffffffffffffffffffffffffffffffff1614611137576040517f08c379a000000000000000000000000000000000000000000000000000000000815260040161112e90613c99565b60405180910390fd5b61113f6123dc565b565b6000603360009054906101000a900473ffffffffffffffffffffffffffffffffffffffff16905090565b6060600061117a61015f612044565b67ffffffffffffffff811115611193576111926132d0565b5b6040519080825280602002602001820160405280156111cc57816020015b6111b9612e86565b8152602001906001900390816111b15790505b5090506000805b6111de61015f612044565b8110156113c75760011515610161600083815260200190815260200160002060040160009054906101000a900460ff161515036113b45761016160008281526020019081526020016000206040518060a00160405290816000820154815260200160018201548152602001600282018054611258906139d4565b80601f0160208091040260200160405190810160405280929190818152602001828054611284906139d4565b80156112d15780601f106112a6576101008083540402835291602001916112d1565b820191906000526020600020905b8154815290600101906020018083116112b457829003601f168201915b505050505081526020016003820180546112ea906139d4565b80601f0160208091040260200160405190810160405280929190818152602001828054611316906139d4565b80156113635780601f1061133857610100808354040283529160200191611363565b820191906000526020600020905b81548152906001019060200180831161134657829003601f168201915b505050505081526020016004820160009054906101000a900460ff16151515158152505083838151811061139a576113996142e0565b5b602002602001018190525081806113b09061430f565b9250505b80806113bf9061430f565b9150506111d3565b50819250505090565b606060ca80546113df906139d4565b80601f016020809104026020016040519081016040528092919081815260200182805461140b906139d4565b80156114585780601f1061142d57610100808354040283529160200191611458565b820191906000526020600020905b81548152906001019060200180831161143b57829003601f168201915b5050505050905090565b61147461146d611b9d565b838361247f565b5050565b600061148460016125eb565b905080156114a8576001600060016101000a81548160ff0219169083151502179055505b6114b38484846126db565b801561150c5760008060016101000a81548160ff0219169083151502179055507f7f26b83ff96e1f2b6a682f133852f6798a09c465da95921460cefb38474024986001604051611503919061439f565b60405180910390a15b50505050565b61152361151d611b9d565b83611c5e565b611562576040517f08c379a000000000000000000000000000000000000000000000000000000000815260040161155990613c2d565b60405180910390fd5b61156e84848484612795565b50505050565b6002606554036115b9576040517f08c379a00000000000000000000000000000000000000000000000000000000081526004016115b090613d05565b60405180910390fd5b6002606581905550600073ffffffffffffffffffffffffffffffffffffffff163373ffffffffffffffffffffffffffffffffffffffff1614158015611632575061160281610df1565b73ffffffffffffffffffffffffffffffffffffffff163373ffffffffffffffffffffffffffffffffffffffff1614155b61163b57600080fd5b61016160008281526020019081526020016000206001015434101561165f57600080fd5b600061166a82610df1565b90508073ffffffffffffffffffffffffffffffffffffffff166108fc349081150290604051600060405180830381858888f193505050501580156116b2573d6000803e3d6000fd5b506116be816001611462565b6116c9813384611d3c565b6000610161600084815260200190815260200160002060040160006101000a81548160ff02191690831515021790555050600160658190555050565b606061171082611b31565b61174f576040517f08c379a00000000000000000000000000000000000000000000000000000000081526004016117469061442c565b60405180910390fd5b60006117596127f1565b9050600081511161177957604051806020016040528060008152506117a4565b8061178384612884565b604051602001611794929190614488565b6040516020818303038152906040525b915050919050565b60006117b782611b31565b6117f6576040517f08c379a00000000000000000000000000000000000000000000000000000000081526004016117ed9061451e565b60405180910390fd5b6101616000838152602001908152602001600020600101549050919050565b600060ce60008473ffffffffffffffffffffffffffffffffffffffff1673ffffffffffffffffffffffffffffffffffffffff16815260200190815260200160002060008373ffffffffffffffffffffffffffffffffffffffff1673ffffffffffffffffffffffffffffffffffffffff16815260200190815260200160002060009054906101000a900460ff16905092915050565b6118b282611b31565b6118f1576040517f08c379a00000000000000000000000000000000000000000000000000000000081526004016118e8906145b0565b60405180910390fd5b6118f9611b9d565b73ffffffffffffffffffffffffffffffffffffffff1661191883610df1565b73ffffffffffffffffffffffffffffffffffffffff161461193857600080fd5b806101616000848152602001908152602001600020600101819055505050565b611960611b9d565b73ffffffffffffffffffffffffffffffffffffffff1661197e611141565b73ffffffffffffffffffffffffffffffffffffffff16146119d4576040517f08c379a00000000000000000000000000000000000000000000000000000000081526004016119cb90613c99565b60405180910390fd5b600073ffffffffffffffffffffffffffffffffffffffff168173ffffffffffffffffffffffffffffffffffffffff1603611a43576040517f08c379a0000000000000000000000000000000000000000000000000000000008152600401611a3a90614642565b60405180910390fd5b611a4c81612316565b50565b60007f80ac58cd000000000000000000000000000000000000000000000000000000007bffffffffffffffffffffffffffffffffffffffffffffffffffffffff1916827bffffffffffffffffffffffffffffffffffffffffffffffffffffffff19161480611b1a57507f5b5e139f000000000000000000000000000000000000000000000000000000007bffffffffffffffffffffffffffffffffffffffffffffffffffffffff1916827bffffffffffffffffffffffffffffffffffffffffffffffffffffffff1916145b80611b2a5750611b29826129e4565b5b9050919050565b60008073ffffffffffffffffffffffffffffffffffffffff1660cb600084815260200190815260200160002060009054906101000a900473ffffffffffffffffffffffffffffffffffffffff1673ffffffffffffffffffffffffffffffffffffffff1614159050919050565b600033905090565b8160cd600083815260200190815260200160002060006101000a81548173ffffffffffffffffffffffffffffffffffffffff021916908373ffffffffffffffffffffffffffffffffffffffff160217905550808273ffffffffffffffffffffffffffffffffffffffff16611c1883610df1565b73ffffffffffffffffffffffffffffffffffffffff167f8c5be1e5ebec7d5bd14f71427d1e84f3dd0314c0f7b2291e5b200ac8c7c3b92560405160405180910390a45050565b6000611c6982611b31565b611ca8576040517f08c379a0000000000000000000000000000000000000000000000000000000008152600401611c9f906146d4565b60405180910390fd5b6000611cb383610df1565b90508073ffffffffffffffffffffffffffffffffffffffff168473ffffffffffffffffffffffffffffffffffffffff161480611cf55750611cf48185611815565b5b80611d3357508373ffffffffffffffffffffffffffffffffffffffff16611d1b8461074a565b73ffffffffffffffffffffffffffffffffffffffff16145b91505092915050565b8273ffffffffffffffffffffffffffffffffffffffff16611d5c82610df1565b73ffffffffffffffffffffffffffffffffffffffff1614611db2576040517f08c379a0000000000000000000000000000000000000000000000000000000008152600401611da990614766565b60405180910390fd5b600073ffffffffffffffffffffffffffffffffffffffff168273ffffffffffffffffffffffffffffffffffffffff1603611e21576040517f08c379a0000000000000000000000000000000000000000000000000000000008152600401611e18906147f8565b60405180910390fd5b611e2c838383612a4e565b611e37600082611ba5565b600160cc60008573ffffffffffffffffffffffffffffffffffffffff1673ffffffffffffffffffffffffffffffffffffffff1681526020019081526020016000206000828254611e879190613e78565b92505081905550600160cc60008473ffffffffffffffffffffffffffffffffffffffff1673ffffffffffffffffffffffffffffffffffffffff1681526020019081526020016000206000828254611ede9190614818565b925050819055508160cb600083815260200190815260200160002060006101000a81548173ffffffffffffffffffffffffffffffffffffffff021916908373ffffffffffffffffffffffffffffffffffffffff160217905550808273ffffffffffffffffffffffffffffffffffffffff168473ffffffffffffffffffffffffffffffffffffffff167fddf252ad1be2c89b69c2b068fc378daa952ba7f163c4a11628f55a4df523b3ef60405160405180910390a4611f9d838383612a5e565b505050565b611faa610dda565b611fe9576040517f08c379a0000000000000000000000000000000000000000000000000000000008152600401611fe0906148ba565b60405180910390fd5b600060fb60006101000a81548160ff0219169083151502179055507f5db9ee0a495bf2e6ff9c91a7834c1ba4fdd244a5e8aa4e537bd38aeae4b073aa61202d611b9d565b60405161203a91906130e5565b60405180910390a1565b600081600001549050919050565b600073ffffffffffffffffffffffffffffffffffffffff168273ffffffffffffffffffffffffffffffffffffffff16036120c1576040517f08c379a00000000000000000000000000000000000000000000000000000000081526004016120b890614926565b60405180910390fd5b6120ca81611b31565b1561210a576040517f08c379a000000000000000000000000000000000000000000000000000000000815260040161210190614992565b60405180910390fd5b61211660008383612a4e565b600160cc60008473ffffffffffffffffffffffffffffffffffffffff1673ffffffffffffffffffffffffffffffffffffffff16815260200190815260200160002060008282546121669190614818565b925050819055508160cb600083815260200190815260200160002060006101000a81548173ffffffffffffffffffffffffffffffffffffffff021916908373ffffffffffffffffffffffffffffffffffffffff160217905550808273ffffffffffffffffffffffffffffffffffffffff16600073ffffffffffffffffffffffffffffffffffffffff167fddf252ad1be2c89b69c2b068fc378daa952ba7f163c4a11628f55a4df523b3ef60405160405180910390a461222760008383612a5e565b5050565b61223482611b31565b61223d57600080fd5b612245611b9d565b73ffffffffffffffffffffffffffffffffffffffff1661226483610df1565b73ffffffffffffffffffffffffffffffffffffffff161461228457600080fd5b806101616000848152602001908152602001600020600082015181600001556020820151816001015560408201518160020190816122c29190614058565b5060608201518160030190816122d89190614058565b5060808201518160040160006101000a81548160ff0219169083151502179055509050505050565b6001816000016000828254019250508190555050565b6000603360009054906101000a900473ffffffffffffffffffffffffffffffffffffffff16905081603360006101000a81548173ffffffffffffffffffffffffffffffffffffffff021916908373ffffffffffffffffffffffffffffffffffffffff1602179055508173ffffffffffffffffffffffffffffffffffffffff168173ffffffffffffffffffffffffffffffffffffffff167f8be0079c531659141344cd1fd0a4f28419497f9722a3daafe3b4186f6b6457e060405160405180910390a35050565b6123e4610dda565b15612424576040517f08c379a000000000000000000000000000000000000000000000000000000000815260040161241b906149fe565b60405180910390fd5b600160fb60006101000a81548160ff0219169083151502179055507f62e78cea01bee320cd4e420270b5ea74000d11b0c9f74754ebdbfc544b05a258612468611b9d565b60405161247591906130e5565b60405180910390a1565b8173ffffffffffffffffffffffffffffffffffffffff168373ffffffffffffffffffffffffffffffffffffffff16036124ed576040517f08c379a00000000000000000000000000000000000000000000000000000000081526004016124e490614a6a565b60405180910390fd5b8060ce60008573ffffffffffffffffffffffffffffffffffffffff1673ffffffffffffffffffffffffffffffffffffffff16815260200190815260200160002060008473ffffffffffffffffffffffffffffffffffffffff1673ffffffffffffffffffffffffffffffffffffffff16815260200190815260200160002060006101000a81548160ff0219169083151502179055508173ffffffffffffffffffffffffffffffffffffffff168373ffffffffffffffffffffffffffffffffffffffff167f17307eab39ab6107e8899845ad3d59bd9653f200f220920489ca2b5937696c31836040516125de9190612f6b565b60405180910390a3505050565b60008060019054906101000a900460ff16156126625760018260ff1614801561261a575061261830612a63565b155b612659576040517f08c379a000000000000000000000000000000000000000000000000000000000815260040161265090614afc565b60405180910390fd5b600090506126d6565b8160ff1660008054906101000a900460ff1660ff16106126b7576040517f08c379a00000000000000000000000000000000000000000000000000000000081526004016126ae90614afc565b60405180910390fd5b816000806101000a81548160ff021916908360ff160217905550600190505b919050565b60006126e760016125eb565b9050801561270b576001600060016101000a81548160ff0219169083151502179055505b6127158484612a86565b61271d612af9565b612725612b4a565b61272d612bab565b61273682612c04565b801561278f5760008060016101000a81548160ff0219169083151502179055507f7f26b83ff96e1f2b6a682f133852f6798a09c465da95921460cefb38474024986001604051612786919061439f565b60405180910390a15b50505050565b6127a0848484611d3c565b6127ac84848484612ca2565b6127eb576040517f08c379a00000000000000000000000000000000000000000000000000000000081526004016127e290614b8e565b60405180910390fd5b50505050565b60606101608054612801906139d4565b80601f016020809104026020016040519081016040528092919081815260200182805461282d906139d4565b801561287a5780601f1061284f5761010080835404028352916020019161287a565b820191906000526020600020905b81548152906001019060200180831161285d57829003601f168201915b5050505050905090565b6060600082036128cb576040518060400160405280600181526020017f300000000000000000000000000000000000000000000000000000000000000081525090506129df565b600082905060005b600082146128fd5780806128e69061430f565b915050600a826128f69190614bdd565b91506128d3565b60008167ffffffffffffffff811115612919576129186132d0565b5b6040519080825280601f01601f19166020018201604052801561294b5781602001600182028036833780820191505090505b5090505b600085146129d8576001826129649190613e78565b9150600a856129739190614c0e565b603061297f9190614818565b60f81b818381518110612995576129946142e0565b5b60200101907effffffffffffffffffffffffffffffffffffffffffffffffffffffffffffff1916908160001a905350600a856129d19190614bdd565b945061294f565b8093505050505b919050565b60007f01ffc9a7000000000000000000000000000000000000000000000000000000007bffffffffffffffffffffffffffffffffffffffffffffffffffffffff1916827bffffffffffffffffffffffffffffffffffffffffffffffffffffffff1916149050919050565b612a59838383612e29565b505050565b505050565b6000808273ffffffffffffffffffffffffffffffffffffffff163b119050919050565b600060019054906101000a900460ff16612ad5576040517f08c379a0000000000000000000000000000000000000000000000000000000008152600401612acc90614cb1565b60405180910390fd5b8160c99081612ae49190614058565b508060ca9081612af49190614058565b505050565b600060019054906101000a900460ff16612b48576040517f08c379a0000000000000000000000000000000000000000000000000000000008152600401612b3f90614cb1565b60405180910390fd5b565b600060019054906101000a900460ff16612b99576040517f08c379a0000000000000000000000000000000000000000000000000000000008152600401612b9090614cb1565b60405180910390fd5b612ba9612ba4611b9d565b612316565b565b600060019054906101000a900460ff16612bfa576040517f08c379a0000000000000000000000000000000000000000000000000000000008152600401612bf190614cb1565b60405180910390fd5b6001606581905550565b6000612c1060016125eb565b90508015612c34576001600060016101000a81548160ff0219169083151502179055505b816101609081612c449190614058565b508015612c9e5760008060016101000a81548160ff0219169083151502179055507f7f26b83ff96e1f2b6a682f133852f6798a09c465da95921460cefb38474024986001604051612c95919061439f565b60405180910390a15b5050565b6000612cc38473ffffffffffffffffffffffffffffffffffffffff16612a63565b15612e1c578373ffffffffffffffffffffffffffffffffffffffff1663150b7a02612cec611b9d565b8786866040518563ffffffff1660e01b8152600401612d0e9493929190614d26565b6020604051808303816000875af1925050508015612d4a57506040513d601f19601f82011682018060405250810190612d479190614d87565b60015b612dcc573d8060008114612d7a576040519150601f19603f3d011682016040523d82523d6000602084013e612d7f565b606091505b506000815103612dc4576040517f08c379a0000000000000000000000000000000000000000000000000000000008152600401612dbb90614b8e565b60405180910390fd5b805181602001fd5b63150b7a0260e01b7bffffffffffffffffffffffffffffffffffffffffffffffffffffffff1916817bffffffffffffffffffffffffffffffffffffffffffffffffffffffff191614915050612e21565b600190505b949350505050565b612e34838383612e81565b612e3c610dda565b15612e7c576040517f08c379a0000000000000000000000000000000000000000000000000000000008152600401612e7390614e26565b60405180910390fd5b505050565b505050565b6040518060a00160405280600081526020016000815260200160608152602001606081526020016000151581525090565b6000604051905090565b600080fd5b600080fd5b60007fffffffff0000000000000000000000000000000000000000000000000000000082169050919050565b612f0081612ecb565b8114612f0b57600080fd5b50565b600081359050612f1d81612ef7565b92915050565b600060208284031215612f3957612f38612ec1565b5b6000612f4784828501612f0e565b91505092915050565b60008115159050919050565b612f6581612f50565b82525050565b6000602082019050612f806000830184612f5c565b92915050565b600081519050919050565b600082825260208201905092915050565b60005b83811015612fc0578082015181840152602081019050612fa5565b83811115612fcf576000848401525b50505050565b6000601f19601f8301169050919050565b6000612ff182612f86565b612ffb8185612f91565b935061300b818560208601612fa2565b61301481612fd5565b840191505092915050565b600060208201905081810360008301526130398184612fe6565b905092915050565b6000819050919050565b61305481613041565b811461305f57600080fd5b50565b6000813590506130718161304b565b92915050565b60006020828403121561308d5761308c612ec1565b5b600061309b84828501613062565b91505092915050565b600073ffffffffffffffffffffffffffffffffffffffff82169050919050565b60006130cf826130a4565b9050919050565b6130df816130c4565b82525050565b60006020820190506130fa60008301846130d6565b92915050565b613109816130c4565b811461311457600080fd5b50565b60008135905061312681613100565b92915050565b6000806040838503121561314357613142612ec1565b5b600061315185828601613117565b925050602061316285828601613062565b9150509250929050565b61317581613041565b82525050565b600082825260208201905092915050565b600061319782612f86565b6131a1818561317b565b93506131b1818560208601612fa2565b6131ba81612fd5565b840191505092915050565b6131ce81612f50565b82525050565b600060a0830160008301516131ec600086018261316c565b5060208301516131ff602086018261316c565b5060408301518482036040860152613217828261318c565b91505060608301518482036060860152613231828261318c565b915050608083015161324660808601826131c5565b508091505092915050565b6000602082019050818103600083015261326b81846131d4565b905092915050565b60008060006060848603121561328c5761328b612ec1565b5b600061329a86828701613117565b93505060206132ab86828701613117565b92505060406132bc86828701613062565b9150509250925092565b600080fd5b600080fd5b7f4e487b7100000000000000000000000000000000000000000000000000000000600052604160045260246000fd5b61330882612fd5565b810181811067ffffffffffffffff82111715613327576133266132d0565b5b80604052505050565b600061333a612eb7565b905061334682826132ff565b919050565b600067ffffffffffffffff821115613366576133656132d0565b5b61336f82612fd5565b9050602081019050919050565b82818337600083830152505050565b600061339e6133998461334b565b613330565b9050828152602081018484840111156133ba576133b96132cb565b5b6133c584828561337c565b509392505050565b600082601f8301126133e2576133e16132c6565b5b81356133f284826020860161338b565b91505092915050565b6000806000806080858703121561341557613414612ec1565b5b600061342387828801613117565b945050602061343487828801613062565b935050604085013567ffffffffffffffff81111561345557613454612ec6565b5b613461878288016133cd565b925050606085013567ffffffffffffffff81111561348257613481612ec6565b5b61348e878288016133cd565b91505092959194509250565b6134a381613041565b82525050565b60006020820190506134be600083018461349a565b92915050565b6000602082840312156134da576134d9612ec1565b5b600082013567ffffffffffffffff8111156134f8576134f7612ec6565b5b613504848285016133cd565b91505092915050565b61351681612f50565b811461352157600080fd5b50565b6000813590506135338161350d565b92915050565b60008060006060848603121561355257613551612ec1565b5b600061356086828701613062565b935050602061357186828701613524565b925050604061358286828701613062565b9150509250925092565b6000602082840312156135a2576135a1612ec1565b5b60006135b084828501613117565b91505092915050565b600081519050919050565b600082825260208201905092915050565b6000819050602082019050919050565b600060a0830160008301516135fd600086018261316c565b506020830151613610602086018261316c565b5060408301518482036040860152613628828261318c565b91505060608301518482036060860152613642828261318c565b915050608083015161365760808601826131c5565b508091505092915050565b600061366e83836135e5565b905092915050565b6000602082019050919050565b600061368e826135b9565b61369881856135c4565b9350836020820285016136aa856135d5565b8060005b858110156136e657848403895281516136c78582613662565b94506136d283613676565b925060208a019950506001810190506136ae565b50829750879550505050505092915050565b600060208201905081810360008301526137128184613683565b905092915050565b6000806040838503121561373157613730612ec1565b5b600061373f85828601613117565b925050602061375085828601613524565b9150509250929050565b60008060006060848603121561377357613772612ec1565b5b600084013567ffffffffffffffff81111561379157613790612ec6565b5b61379d868287016133cd565b935050602084013567ffffffffffffffff8111156137be576137bd612ec6565b5b6137ca868287016133cd565b925050604084013567ffffffffffffffff8111156137eb576137ea612ec6565b5b6137f7868287016133cd565b9150509250925092565b600067ffffffffffffffff82111561381c5761381b6132d0565b5b61382582612fd5565b9050602081019050919050565b600061384561384084613801565b613330565b905082815260208101848484011115613861576138606132cb565b5b61386c84828561337c565b509392505050565b600082601f830112613889576138886132c6565b5b8135613899848260208601613832565b91505092915050565b600080600080608085870312156138bc576138bb612ec1565b5b60006138ca87828801613117565b94505060206138db87828801613117565b93505060406138ec87828801613062565b925050606085013567ffffffffffffffff81111561390d5761390c612ec6565b5b61391987828801613874565b91505092959194509250565b6000806040838503121561393c5761393b612ec1565b5b600061394a85828601613117565b925050602061395b85828601613117565b9150509250929050565b6000806040838503121561397c5761397b612ec1565b5b600061398a85828601613062565b925050602061399b85828601613062565b9150509250929050565b7f4e487b7100000000000000000000000000000000000000000000000000000000600052602260045260246000fd5b600060028204905060018216806139ec57607f821691505b6020821081036139ff576139fe6139a5565b5b50919050565b7f4552433732313a20617070726f76656420717565727920666f72206e6f6e657860008201527f697374656e7420746f6b656e0000000000000000000000000000000000000000602082015250565b6000613a61602c83612f91565b9150613a6c82613a05565b604082019050919050565b60006020820190508181036000830152613a9081613a54565b9050919050565b7f4552433732313a20617070726f76616c20746f2063757272656e74206f776e6560008201527f7200000000000000000000000000000000000000000000000000000000000000602082015250565b6000613af3602183612f91565b9150613afe82613a97565b604082019050919050565b60006020820190508181036000830152613b2281613ae6565b9050919050565b7f4552433732313a20617070726f76652063616c6c6572206973206e6f74206f7760008201527f6e6572206e6f7220617070726f76656420666f7220616c6c0000000000000000602082015250565b6000613b85603883612f91565b9150613b9082613b29565b604082019050919050565b60006020820190508181036000830152613bb481613b78565b9050919050565b7f4552433732313a207472616e736665722063616c6c6572206973206e6f74206f60008201527f776e6572206e6f7220617070726f766564000000000000000000000000000000602082015250565b6000613c17603183612f91565b9150613c2282613bbb565b604082019050919050565b60006020820190508181036000830152613c4681613c0a565b9050919050565b7f4f776e61626c653a2063616c6c6572206973206e6f7420746865206f776e6572600082015250565b6000613c83602083612f91565b9150613c8e82613c4d565b602082019050919050565b60006020820190508181036000830152613cb281613c76565b9050919050565b7f5265656e7472616e637947756172643a207265656e7472616e742063616c6c00600082015250565b6000613cef601f83612f91565b9150613cfa82613cb9565b602082019050919050565b60006020820190508181036000830152613d1e81613ce2565b9050919050565b7f425850503a206d757374206861766520656e6f756768206d6f6e657920746f2060008201527f6d696e742e000000000000000000000000000000000000000000000000000000602082015250565b6000613d81602583612f91565b9150613d8c82613d25565b604082019050919050565b60006020820190508181036000830152613db081613d74565b9050919050565b7f425850503a20536f6d657468696e672077726f6e6721205072696365206d757360008201527f74206d6f7265207468616e20302e000000000000000000000000000000000000602082015250565b6000613e13602e83612f91565b9150613e1e82613db7565b604082019050919050565b60006020820190508181036000830152613e4281613e06565b9050919050565b7f4e487b7100000000000000000000000000000000000000000000000000000000600052601160045260246000fd5b6000613e8382613041565b9150613e8e83613041565b925082821015613ea157613ea0613e49565b5b828203905092915050565b60008190508160005260206000209050919050565b60006020601f8301049050919050565b600082821b905092915050565b600060088302613f0e7fffffffffffffffffffffffffffffffffffffffffffffffffffffffffffffffff82613ed1565b613f188683613ed1565b95508019841693508086168417925050509392505050565b6000819050919050565b6000613f55613f50613f4b84613041565b613f30565b613041565b9050919050565b6000819050919050565b613f6f83613f3a565b613f83613f7b82613f5c565b848454613ede565b825550505050565b600090565b613f98613f8b565b613fa3818484613f66565b505050565b5b81811015613fc757613fbc600082613f90565b600181019050613fa9565b5050565b601f82111561400c57613fdd81613eac565b613fe684613ec1565b81016020851015613ff5578190505b61400961400185613ec1565b830182613fa8565b50505b505050565b600082821c905092915050565b600061402f60001984600802614011565b1980831691505092915050565b6000614048838361401e565b9150826002028217905092915050565b61406182612f86565b67ffffffffffffffff81111561407a576140796132d0565b5b61408482546139d4565b61408f828285613fcb565b600060209050601f8311600181146140c257600084156140b0578287015190505b6140ba858261403c565b865550614122565b601f1984166140d086613eac565b60005b828110156140f8578489015182556001820191506020850194506020810190506140d3565b868310156141155784890151614111601f89168261401e565b8355505b6001600288020188555050505b505050505050565b7f4552433732313a206f776e657220717565727920666f72206e6f6e657869737460008201527f656e7420746f6b656e0000000000000000000000000000000000000000000000602082015250565b6000614186602983612f91565b91506141918261412a565b604082019050919050565b600060208201905081810360008301526141b581614179565b9050919050565b7f4552433732314d657461646174613a2053616c6520736574206f66206e6f6e6560008201527f78697374656e7420746f6b656e00000000000000000000000000000000000000602082015250565b6000614218602d83612f91565b9150614223826141bc565b604082019050919050565b600060208201905081810360008301526142478161420b565b9050919050565b7f4552433732313a2062616c616e636520717565727920666f7220746865207a6560008201527f726f206164647265737300000000000000000000000000000000000000000000602082015250565b60006142aa602a83612f91565b91506142b58261424e565b604082019050919050565b600060208201905081810360008301526142d98161429d565b9050919050565b7f4e487b7100000000000000000000000000000000000000000000000000000000600052603260045260246000fd5b600061431a82613041565b91507fffffffffffffffffffffffffffffffffffffffffffffffffffffffffffffffff820361434c5761434b613e49565b5b600182019050919050565b6000819050919050565b600060ff82169050919050565b600061438961438461437f84614357565b613f30565b614361565b9050919050565b6143998161436e565b82525050565b60006020820190506143b46000830184614390565b92915050565b7f4552433732314d657461646174613a2055524920717565727920666f72206e6f60008201527f6e6578697374656e7420746f6b656e0000000000000000000000000000000000602082015250565b6000614416602f83612f91565b9150614421826143ba565b604082019050919050565b6000602082019050818103600083015261444581614409565b9050919050565b600081905092915050565b600061446282612f86565b61446c818561444c565b935061447c818560208601612fa2565b80840191505092915050565b60006144948285614457565b91506144a08284614457565b91508190509392505050565b7f4552433732314d657461646174613a20507269636520717565727920666f722060008201527f6e6f6e6578697374656e7420746f6b656e000000000000000000000000000000602082015250565b6000614508603183612f91565b9150614513826144ac565b604082019050919050565b60006020820190508181036000830152614537816144fb565b9050919050565b7f4552433732314d657461646174613a20507269636520736574206f66206e6f6e60008201527f6578697374656e7420746f6b656e000000000000000000000000000000000000602082015250565b600061459a602e83612f91565b91506145a58261453e565b604082019050919050565b600060208201905081810360008301526145c98161458d565b9050919050565b7f4f776e61626c653a206e6577206f776e657220697320746865207a65726f206160008201527f6464726573730000000000000000000000000000000000000000000000000000602082015250565b600061462c602683612f91565b9150614637826145d0565b604082019050919050565b6000602082019050818103600083015261465b8161461f565b9050919050565b7f4552433732313a206f70657261746f7220717565727920666f72206e6f6e657860008201527f697374656e7420746f6b656e0000000000000000000000000000000000000000602082015250565b60006146be602c83612f91565b91506146c982614662565b604082019050919050565b600060208201905081810360008301526146ed816146b1565b9050919050565b7f4552433732313a207472616e736665722066726f6d20696e636f72726563742060008201527f6f776e6572000000000000000000000000000000000000000000000000000000602082015250565b6000614750602583612f91565b915061475b826146f4565b604082019050919050565b6000602082019050818103600083015261477f81614743565b9050919050565b7f4552433732313a207472616e7366657220746f20746865207a65726f2061646460008201527f7265737300000000000000000000000000000000000000000000000000000000602082015250565b60006147e2602483612f91565b91506147ed82614786565b604082019050919050565b60006020820190508181036000830152614811816147d5565b9050919050565b600061482382613041565b915061482e83613041565b9250827fffffffffffffffffffffffffffffffffffffffffffffffffffffffffffffffff0382111561486357614862613e49565b5b828201905092915050565b7f5061757361626c653a206e6f7420706175736564000000000000000000000000600082015250565b60006148a4601483612f91565b91506148af8261486e565b602082019050919050565b600060208201905081810360008301526148d381614897565b9050919050565b7f4552433732313a206d696e7420746f20746865207a65726f2061646472657373600082015250565b6000614910602083612f91565b915061491b826148da565b602082019050919050565b6000602082019050818103600083015261493f81614903565b9050919050565b7f4552433732313a20746f6b656e20616c7265616479206d696e74656400000000600082015250565b600061497c601c83612f91565b915061498782614946565b602082019050919050565b600060208201905081810360008301526149ab8161496f565b9050919050565b7f5061757361626c653a2070617573656400000000000000000000000000000000600082015250565b60006149e8601083612f91565b91506149f3826149b2565b602082019050919050565b60006020820190508181036000830152614a17816149db565b9050919050565b7f4552433732313a20617070726f766520746f2063616c6c657200000000000000600082015250565b6000614a54601983612f91565b9150614a5f82614a1e565b602082019050919050565b60006020820190508181036000830152614a8381614a47565b9050919050565b7f496e697469616c697a61626c653a20636f6e747261637420697320616c72656160008201527f647920696e697469616c697a6564000000000000000000000000000000000000602082015250565b6000614ae6602e83612f91565b9150614af182614a8a565b604082019050919050565b60006020820190508181036000830152614b1581614ad9565b9050919050565b7f4552433732313a207472616e7366657220746f206e6f6e20455243373231526560008201527f63656976657220696d706c656d656e7465720000000000000000000000000000602082015250565b6000614b78603283612f91565b9150614b8382614b1c565b604082019050919050565b60006020820190508181036000830152614ba781614b6b565b9050919050565b7f4e487b7100000000000000000000000000000000000000000000000000000000600052601260045260246000fd5b6000614be882613041565b9150614bf383613041565b925082614c0357614c02614bae565b5b828204905092915050565b6000614c1982613041565b9150614c2483613041565b925082614c3457614c33614bae565b5b828206905092915050565b7f496e697469616c697a61626c653a20636f6e7472616374206973206e6f74206960008201527f6e697469616c697a696e67000000000000000000000000000000000000000000602082015250565b6000614c9b602b83612f91565b9150614ca682614c3f565b604082019050919050565b60006020820190508181036000830152614cca81614c8e565b9050919050565b600081519050919050565b600082825260208201905092915050565b6000614cf882614cd1565b614d028185614cdc565b9350614d12818560208601612fa2565b614d1b81612fd5565b840191505092915050565b6000608082019050614d3b60008301876130d6565b614d4860208301866130d6565b614d55604083018561349a565b8181036060830152614d678184614ced565b905095945050505050565b600081519050614d8181612ef7565b92915050565b600060208284031215614d9d57614d9c612ec1565b5b6000614dab84828501614d72565b91505092915050565b7f4552433732315061757361626c653a20746f6b656e207472616e73666572207760008201527f68696c6520706175736564000000000000000000000000000000000000000000602082015250565b6000614e10602b83612f91565b9150614e1b82614db4565b604082019050919050565b60006020820190508181036000830152614e3f81614e03565b905091905056fea26469706673582212207144f0c54e5b2208aadf6338f1f170b67eeba728833bdf6bdee204b82f16cdd764736f6c634300080f0033",
  "immutableReferences": {},
  "source": "// SPDX-License-Identifier: MIT\npragma solidity >=0.4.22 <0.9.0;\npragma experimental ABIEncoderV2;\n\nimport \"../node_modules/@openzeppelin/contracts-upgradeable/token/ERC721/extensions/ERC721PausableUpgradeable.sol\";\nimport \"../node_modules/@openzeppelin/contracts-upgradeable/access/OwnableUpgradeable.sol\";\nimport \"../node_modules/@openzeppelin/contracts-upgradeable/security/ReentrancyGuardUpgradeable.sol\";\nimport \"../node_modules/@openzeppelin/contracts-upgradeable/utils/CountersUpgradeable.sol\";\n\n\ncontract ContractTemplate is \n    OwnableUpgradeable, \n    ReentrancyGuardUpgradeable,\n    ERC721PausableUpgradeable\n{\n    function initialize(string memory name, string memory symbol, string memory url\n    ) public virtual initializer {\n        __ContractTemplate_init(name, symbol, url);\n    }\n    using CountersUpgradeable for CountersUpgradeable.Counter;\n    CountersUpgradeable.Counter private _tokenIds;\n\n    string private _baseTokenURI;\n\n    mapping (uint256 => TokenMeta) private _tokenMeta;\n    struct TokenMeta {\n        uint256 id;\n        uint256 price;\n        string name;\n        string image;\n        bool sale;\n    }\n\n    /**\n     * @dev Grants `DEFAULT_ADMIN_ROLE`, `MINTER_ROLE` and `PAUSER_ROLE` to the\n     * account that deploys the contract.\n     *\n     * Token URIs will be autogenerated based on `baseURI` and their token IDs.\n     * See {ERC721-tokenURI}.\n     */\n    function __ContractTemplate_init(\n        string memory name,\n        string memory symbol,\n        string memory baseTokenURI\n    ) internal initializer {\n        __ERC721_init_unchained(name, symbol);\n        __ERC721Pausable_init_unchained();\n        __Ownable_init_unchained();\n        __ReentrancyGuard_init_unchained();\n        __ContractTemplate_init_unchained(baseTokenURI);\n    }\n\n    function __ContractTemplate_init_unchained( string memory baseTokenURI ) internal initializer {\n        _baseTokenURI = baseTokenURI;\n    }\n\n    /**\n     * @dev Base URI for computing {tokenURI}. Empty by default, can be overriden\n     * in child contracts.\n     */\n\n    function _baseURI() internal view virtual override returns (string memory) {\n        return _baseTokenURI;\n    }\n\n    function setBaseURI(string memory _newBaseURI) public virtual onlyOwner {\n        _baseTokenURI = _newBaseURI;\n    }\n\n    function getAllOnSale () public view virtual returns( TokenMeta[] memory ) {\n        TokenMeta[] memory tokensOnSale = new TokenMeta[](_tokenIds.current());\n        uint256 counter = 0;\n\n        for(uint i = 0; i < _tokenIds.current(); i++) {\n            if(_tokenMeta[i].sale == true) {\n                tokensOnSale[counter] = _tokenMeta[i];\n                counter++;\n            }\n        }\n        return tokensOnSale;\n    }\n\n    /**\n     * @dev sets maps token to its price\n     * @param _tokenId uint256 token ID (token number)\n     * @param _sale bool token on sale\n     * @param _price unit256 token price\n     * \n     * Requirements: \n     * `tokenId` must exist\n     * `price` must be more than 0\n     * `owner` must the msg.owner\n     */\n    function setTokenSale(uint256 _tokenId, bool _sale, uint256 _price) public {\n        require(_exists(_tokenId), \"ERC721Metadata: Sale set of nonexistent token\");\n        require(_price > 0);\n        require(ownerOf(_tokenId) == _msgSender());\n\n        _tokenMeta[_tokenId].sale = _sale;\n        setTokenPrice(_tokenId, _price);\n    }\n\n    /**\n     * @dev sets maps token to its price\n     * @param _tokenId uint256 token ID (token number)\n     * @param _price uint256 token price\n     * \n     * Requirements: \n     * `tokenId` must exist\n     * `owner` must the msg.owner\n     */\n    function setTokenPrice(uint256 _tokenId, uint256 _price) public {\n        require(_exists(_tokenId), \"ERC721Metadata: Price set of nonexistent token\");\n        require(ownerOf(_tokenId) == _msgSender());\n        _tokenMeta[_tokenId].price = _price;\n    }\n\n    function tokenPrice(uint256 tokenId) public view virtual returns (uint256) {\n        require(_exists(tokenId), \"ERC721Metadata: Price query for nonexistent token\");\n        return _tokenMeta[tokenId].price;\n    }\n\n    /**\n     * @dev sets token meta\n     * @param _tokenId uint256 token ID (token number)\n     * @param _meta TokenMeta \n     * \n     * Requirements: \n     * `tokenId` must exist\n     * `owner` must the msg.owner\n     */\n    function _setTokenMeta(uint256 _tokenId, TokenMeta memory _meta) private {\n        require(_exists(_tokenId));\n        require(ownerOf(_tokenId) == _msgSender());\n        _tokenMeta[_tokenId] = _meta;\n    }\n\n    function tokenMeta(uint256 _tokenId) public view returns (TokenMeta memory) {\n        require(_exists(_tokenId));\n        return _tokenMeta[_tokenId];\n    }\n\n    /**\n     * @dev purchase _tokenId\n     * @param _tokenId uint256 token ID (token number)\n     */\n    function purchaseToken(uint256 _tokenId) public payable nonReentrant {\n        require(msg.sender != address(0) && msg.sender != ownerOf(_tokenId));\n        require(msg.value >= _tokenMeta[_tokenId].price);\n        address tokenSeller = ownerOf(_tokenId);\n\n        payable(tokenSeller).transfer(msg.value);\n\n        setApprovalForAll(tokenSeller, true);\n        _transfer(tokenSeller, msg.sender, _tokenId);\n        _tokenMeta[_tokenId].sale = false;\n    }\n\n\n    /**\n     * @dev Creates a new token for `to`. Its token ID will be automatically\n     * assigned (and available on the emitted {IERC721-Transfer} event), and the token\n     * URI autogenerated based on the base URI passed at construction.\n     *\n     * See {ERC721-_mint}.\n     *\n     * Requirements:\n     *\n     * - the caller must have the `MINTER_ROLE`.\n     */\n    function mintCollectable(\n        address to, \n        uint256 _price, \n        string memory _name, \n        string memory _image\n    ) public payable nonReentrant returns (uint256) {\n        require(msg.value >= _price, \"BXPP: must have enough money to mint.\");\n        require(_price > 0, \"BXPP: Something wrong! Price must more than 0.\");\n\n        address creator = 0x21540DA960C1C575BEAe67b37B8a538e697c79eD; // RinkebyUser2\n        payable(creator).transfer(msg.value);\n\n        \n        _mint(to, _tokenIds.current());\n\n        // Mintsalefalse\n        TokenMeta memory meta = TokenMeta(_tokenIds.current(), _price, _name, _image, false);\n        _setTokenMeta(_tokenIds.current(), meta);    \n\n        _tokenIds.increment();\n\n        return _tokenIds.current() - 1;\n    }\n\n    /**\n     * @dev Pauses all token transfers.\n     *\n     * See {ERC721Pausable} and {Pausable-_pause}.\n     *\n     * Requirements:\n     *\n     * - the caller must have the `PAUSER_ROLE`.\n     */\n    function pause() public virtual onlyOwner {\n        // require(hasRole(PAUSER_ROLE, _msgSender()), \"ERC721PresetMinterPauserAutoId: must have pauser role to pause\");\n        _pause();\n    }\n\n    /**\n     * @dev Unpauses all token transfers.\n     *\n     * See {ERC721Pausable} and {Pausable-_unpause}.\n     *\n     * Requirements:\n     *\n     * - the caller must have the `PAUSER_ROLE`.\n     */\n    function unpause() public virtual onlyOwner {\n        // require(hasRole(PAUSER_ROLE, _msgSender()), \"ERC721PresetMinterPauserAutoId: must have pauser role to unpause\");\n        _unpause();\n    }\n\n    function _beforeTokenTransfer(\n        address from,\n        address to,\n        uint256 tokenId\n    ) internal virtual override(ERC721PausableUpgradeable) {\n        super._beforeTokenTransfer(from, to, tokenId);\n    }\n\n    /**\n     * @dev See {IERC165-supportsInterface}.\n     */\n    function supportsInterface(bytes4 interfaceId)\n        public\n        view\n        virtual\n        override(ERC721Upgradeable)\n        returns (bool)\n    {\n        return super.supportsInterface(interfaceId);\n    }\n    uint256[48] private __gap;\n}",
  "sourcePath": "/Users/liyufei/bxpp-contract/contracts/ContractTemplate.sol",
  "compiler": {
    "name": "solc",
    "version": "0.8.15+commit.e14f2714.Emscripten.clang"
  },
  "schemaVersion": "3.4.5",
  "updatedAt": "2022-07-13T06:09:17.741Z",
  "devdoc": {
    "kind": "dev",
    "methods": {
      "approve(address,uint256)": {
        "details": "See {IERC721-approve}."
      },
      "balanceOf(address)": {
        "details": "See {IERC721-balanceOf}."
      },
      "getApproved(uint256)": {
        "details": "See {IERC721-getApproved}."
      },
      "isApprovedForAll(address,address)": {
        "details": "See {IERC721-isApprovedForAll}."
      },
      "mintCollectable(address,uint256,string,string)": {
        "details": "Creates a new token for `to`. Its token ID will be automatically assigned (and available on the emitted {IERC721-Transfer} event), and the token URI autogenerated based on the base URI passed at construction. See {ERC721-_mint}. Requirements: - the caller must have the `MINTER_ROLE`."
      },
      "name()": {
        "details": "See {IERC721Metadata-name}."
      },
      "owner()": {
        "details": "Returns the address of the current owner."
      },
      "ownerOf(uint256)": {
        "details": "See {IERC721-ownerOf}."
      },
      "pause()": {
        "details": "Pauses all token transfers. See {ERC721Pausable} and {Pausable-_pause}. Requirements: - the caller must have the `PAUSER_ROLE`."
      },
      "paused()": {
        "details": "Returns true if the contract is paused, and false otherwise."
      },
      "purchaseToken(uint256)": {
        "details": "purchase _tokenId",
        "params": {
          "_tokenId": "uint256 token ID (token number)"
        }
      },
      "renounceOwnership()": {
        "details": "Leaves the contract without owner. It will not be possible to call `onlyOwner` functions anymore. Can only be called by the current owner. NOTE: Renouncing ownership will leave the contract without an owner, thereby removing any functionality that is only available to the owner."
      },
      "safeTransferFrom(address,address,uint256)": {
        "details": "See {IERC721-safeTransferFrom}."
      },
      "safeTransferFrom(address,address,uint256,bytes)": {
        "details": "See {IERC721-safeTransferFrom}."
      },
      "setApprovalForAll(address,bool)": {
        "details": "See {IERC721-setApprovalForAll}."
      },
      "setTokenPrice(uint256,uint256)": {
        "details": "sets maps token to its price",
        "params": {
          "_price": "uint256 token price  Requirements:  `tokenId` must exist `owner` must the msg.owner",
          "_tokenId": "uint256 token ID (token number)"
        }
      },
      "setTokenSale(uint256,bool,uint256)": {
        "details": "sets maps token to its price",
        "params": {
          "_price": "unit256 token price  Requirements:  `tokenId` must exist `price` must be more than 0 `owner` must the msg.owner",
          "_sale": "bool token on sale",
          "_tokenId": "uint256 token ID (token number)"
        }
      },
      "supportsInterface(bytes4)": {
        "details": "See {IERC165-supportsInterface}."
      },
      "symbol()": {
        "details": "See {IERC721Metadata-symbol}."
      },
      "tokenURI(uint256)": {
        "details": "See {IERC721Metadata-tokenURI}."
      },
      "transferFrom(address,address,uint256)": {
        "details": "See {IERC721-transferFrom}."
      },
      "transferOwnership(address)": {
        "details": "Transfers ownership of the contract to a new account (`newOwner`). Can only be called by the current owner."
      },
      "unpause()": {
        "details": "Unpauses all token transfers. See {ERC721Pausable} and {Pausable-_unpause}. Requirements: - the caller must have the `PAUSER_ROLE`."
      }
    },
    "version": 1
  },
  "userdoc": {
    "kind": "user",
    "methods": {},
    "version": 1
  }
}