{
  "contractName": "NFTT",
  "abi": [
    {
      "anonymous": false,
      "inputs": [
        {
          "indexed": true,
          "internalType": "address",
          "name": "owner",
          "type": "address"
        },
        {
          "indexed": true,
          "internalType": "address",
          "name": "approved",
          "type": "address"
        },
        {
          "indexed": true,
          "internalType": "uint256",
          "name": "tokenId",
          "type": "uint256"
        }
      ],
      "name": "Approval",
      "type": "event"
    },
    {
      "anonymous": false,
      "inputs": [
        {
          "indexed": true,
          "internalType": "address",
          "name": "owner",
          "type": "address"
        },
        {
          "indexed": true,
          "internalType": "address",
          "name": "operator",
          "type": "address"
        },
        {
          "indexed": false,
          "internalType": "bool",
          "name": "approved",
          "type": "bool"
        }
      ],
      "name": "ApprovalForAll",
      "type": "event"
    },
    {
      "anonymous": false,
      "inputs": [
        {
          "indexed": true,
          "internalType": "address",
          "name": "previousOwner",
          "type": "address"
        },
        {
          "indexed": true,
          "internalType": "address",
          "name": "newOwner",
          "type": "address"
        }
      ],
      "name": "OwnershipTransferred",
      "type": "event"
    },
    {
      "anonymous": false,
      "inputs": [
        {
          "indexed": true,
          "internalType": "address",
          "name": "from",
          "type": "address"
        },
        {
          "indexed": true,
          "internalType": "address",
          "name": "to",
          "type": "address"
        },
        {
          "indexed": true,
          "internalType": "uint256",
          "name": "tokenId",
          "type": "uint256"
        }
      ],
      "name": "Transfer",
      "type": "event"
    },
    {
      "inputs": [
        {
          "internalType": "address",
          "name": "to",
          "type": "address"
        },
        {
          "internalType": "uint256",
          "name": "tokenId",
          "type": "uint256"
        }
      ],
      "name": "approve",
      "outputs": [],
      "stateMutability": "nonpayable",
      "type": "function"
    },
    {
      "inputs": [
        {
          "internalType": "address",
          "name": "owner",
          "type": "address"
        }
      ],
      "name": "balanceOf",
      "outputs": [
        {
          "internalType": "uint256",
          "name": "",
          "type": "uint256"
        }
      ],
      "stateMutability": "view",
      "type": "function"
    },
    {
      "inputs": [
        {
          "internalType": "uint256",
          "name": "tokenId",
          "type": "uint256"
        }
      ],
      "name": "getApproved",
      "outputs": [
        {
          "internalType": "address",
          "name": "",
          "type": "address"
        }
      ],
      "stateMutability": "view",
      "type": "function"
    },
    {
      "inputs": [
        {
          "internalType": "address",
          "name": "owner",
          "type": "address"
        },
        {
          "internalType": "address",
          "name": "operator",
          "type": "address"
        }
      ],
      "name": "isApprovedForAll",
      "outputs": [
        {
          "internalType": "bool",
          "name": "",
          "type": "bool"
        }
      ],
      "stateMutability": "view",
      "type": "function"
    },
    {
      "inputs": [],
      "name": "name",
      "outputs": [
        {
          "internalType": "string",
          "name": "",
          "type": "string"
        }
      ],
      "stateMutability": "view",
      "type": "function"
    },
    {
      "inputs": [],
      "name": "owner",
      "outputs": [
        {
          "internalType": "address",
          "name": "",
          "type": "address"
        }
      ],
      "stateMutability": "view",
      "type": "function"
    },
    {
      "inputs": [
        {
          "internalType": "uint256",
          "name": "tokenId",
          "type": "uint256"
        }
      ],
      "name": "ownerOf",
      "outputs": [
        {
          "internalType": "address",
          "name": "",
          "type": "address"
        }
      ],
      "stateMutability": "view",
      "type": "function"
    },
    {
      "inputs": [],
      "name": "renounceOwnership",
      "outputs": [],
      "stateMutability": "nonpayable",
      "type": "function"
    },
    {
      "inputs": [
        {
          "internalType": "address",
          "name": "from",
          "type": "address"
        },
        {
          "internalType": "address",
          "name": "to",
          "type": "address"
        },
        {
          "internalType": "uint256",
          "name": "tokenId",
          "type": "uint256"
        }
      ],
      "name": "safeTransferFrom",
      "outputs": [],
      "stateMutability": "nonpayable",
      "type": "function"
    },
    {
      "inputs": [
        {
          "internalType": "address",
          "name": "from",
          "type": "address"
        },
        {
          "internalType": "address",
          "name": "to",
          "type": "address"
        },
        {
          "internalType": "uint256",
          "name": "tokenId",
          "type": "uint256"
        },
        {
          "internalType": "bytes",
          "name": "_data",
          "type": "bytes"
        }
      ],
      "name": "safeTransferFrom",
      "outputs": [],
      "stateMutability": "nonpayable",
      "type": "function"
    },
    {
      "inputs": [
        {
          "internalType": "address",
          "name": "operator",
          "type": "address"
        },
        {
          "internalType": "bool",
          "name": "approved",
          "type": "bool"
        }
      ],
      "name": "setApprovalForAll",
      "outputs": [],
      "stateMutability": "nonpayable",
      "type": "function"
    },
    {
      "inputs": [
        {
          "internalType": "bytes4",
          "name": "interfaceId",
          "type": "bytes4"
        }
      ],
      "name": "supportsInterface",
      "outputs": [
        {
          "internalType": "bool",
          "name": "",
          "type": "bool"
        }
      ],
      "stateMutability": "view",
      "type": "function"
    },
    {
      "inputs": [],
      "name": "symbol",
      "outputs": [
        {
          "internalType": "string",
          "name": "",
          "type": "string"
        }
      ],
      "stateMutability": "view",
      "type": "function"
    },
    {
      "inputs": [
        {
          "internalType": "uint256",
          "name": "tokenId",
          "type": "uint256"
        }
      ],
      "name": "tokenURI",
      "outputs": [
        {
          "internalType": "string",
          "name": "",
          "type": "string"
        }
      ],
      "stateMutability": "view",
      "type": "function"
    },
    {
      "inputs": [
        {
          "internalType": "address",
          "name": "from",
          "type": "address"
        },
        {
          "internalType": "address",
          "name": "to",
          "type": "address"
        },
        {
          "internalType": "uint256",
          "name": "tokenId",
          "type": "uint256"
        }
      ],
      "name": "transferFrom",
      "outputs": [],
      "stateMutability": "nonpayable",
      "type": "function"
    },
    {
      "inputs": [
        {
          "internalType": "address",
          "name": "newOwner",
          "type": "address"
        }
      ],
      "name": "transferOwnership",
      "outputs": [],
      "stateMutability": "nonpayable",
      "type": "function"
    },
    {
      "inputs": [],
      "name": "initialize",
      "outputs": [],
      "stateMutability": "nonpayable",
      "type": "function"
    },
    {
      "inputs": [
        {
          "internalType": "string",
          "name": "_newBaseURI",
          "type": "string"
        }
      ],
      "name": "setBaseURI",
      "outputs": [],
      "stateMutability": "nonpayable",
      "type": "function"
    },
    {
      "inputs": [],
      "name": "getAllOnSale",
      "outputs": [
        {
          "components": [
            {
              "internalType": "uint256",
              "name": "id",
              "type": "uint256"
            },
            {
              "internalType": "uint256",
              "name": "price",
              "type": "uint256"
            },
            {
              "internalType": "string",
              "name": "name",
              "type": "string"
            },
            {
              "internalType": "string",
              "name": "image",
              "type": "string"
            },
            {
              "internalType": "bool",
              "name": "sale",
              "type": "bool"
            }
          ],
          "internalType": "struct NFTT.TokenMeta[]",
          "name": "",
          "type": "tuple[]"
        }
      ],
      "stateMutability": "view",
      "type": "function"
    },
    {
      "inputs": [
        {
          "internalType": "uint256",
          "name": "_tokenId",
          "type": "uint256"
        },
        {
          "internalType": "bool",
          "name": "_sale",
          "type": "bool"
        },
        {
          "internalType": "uint256",
          "name": "_price",
          "type": "uint256"
        }
      ],
      "name": "setTokenSale",
      "outputs": [],
      "stateMutability": "nonpayable",
      "type": "function"
    },
    {
      "inputs": [
        {
          "internalType": "uint256",
          "name": "_tokenId",
          "type": "uint256"
        },
        {
          "internalType": "uint256",
          "name": "_price",
          "type": "uint256"
        }
      ],
      "name": "setTokenPrice",
      "outputs": [],
      "stateMutability": "nonpayable",
      "type": "function"
    },
    {
      "inputs": [
        {
          "internalType": "uint256",
          "name": "tokenId",
          "type": "uint256"
        }
      ],
      "name": "tokenPrice",
      "outputs": [
        {
          "internalType": "uint256",
          "name": "",
          "type": "uint256"
        }
      ],
      "stateMutability": "view",
      "type": "function"
    },
    {
      "inputs": [
        {
          "internalType": "uint256",
          "name": "_tokenId",
          "type": "uint256"
        }
      ],
      "name": "tokenMeta",
      "outputs": [
        {
          "components": [
            {
              "internalType": "uint256",
              "name": "id",
              "type": "uint256"
            },
            {
              "internalType": "uint256",
              "name": "price",
              "type": "uint256"
            },
            {
              "internalType": "string",
              "name": "name",
              "type": "string"
            },
            {
              "internalType": "string",
              "name": "image",
              "type": "string"
            },
            {
              "internalType": "bool",
              "name": "sale",
              "type": "bool"
            }
          ],
          "internalType": "struct NFTT.TokenMeta",
          "name": "",
          "type": "tuple"
        }
      ],
      "stateMutability": "view",
      "type": "function"
    },
    {
      "inputs": [
        {
          "internalType": "uint256",
          "name": "_tokenId",
          "type": "uint256"
        }
      ],
      "name": "purchaseToken",
      "outputs": [],
      "stateMutability": "payable",
      "type": "function"
    },
    {
      "inputs": [
        {
          "internalType": "address",
          "name": "_owner",
          "type": "address"
        },
        {
          "internalType": "uint256",
          "name": "_price",
          "type": "uint256"
        },
        {
          "internalType": "string",
          "name": "_name",
          "type": "string"
        },
        {
          "internalType": "string",
          "name": "_image",
          "type": "string"
        },
        {
          "internalType": "bool",
          "name": "_sale",
          "type": "bool"
        }
      ],
      "name": "mintCollectable",
      "outputs": [
        {
          "internalType": "uint256",
          "name": "",
          "type": "uint256"
        }
      ],
      "stateMutability": "nonpayable",
      "type": "function"
    }
  ],
  "bytecode": "0x608060405234801561001057600080fd5b506148af806100206000396000f3fe6080604052600436106101665760003560e01c80638129fc1c116100d1578063c2db2c421161008a578063e985e9c511610064578063e985e9c51461052b578063eb685c4714610568578063f2fde38b14610591578063f73d815f146105ba57610166565b8063c2db2c4214610495578063c87b56dd146104b1578063d4ddce8a146104ee57610166565b80638129fc1c146103ab5780638da5cb5b146103c257806390894559146103ed57806395d89b4114610418578063a22cb46514610443578063b88d4fde1461046c57610166565b806342842e0e1161012357806342842e0e1461029f57806355f804b3146102c85780636352211e146102f15780636387ede61461032e57806370a0823114610357578063715018a61461039457610166565b806301ffc9a71461016b57806306fdde03146101a8578063081812fc146101d3578063095ea7b3146102105780630ae7a3101461023957806323b872dd14610276575b600080fd5b34801561017757600080fd5b50610192600480360381019061018d9190612fa8565b6105f7565b60405161019f9190612ff0565b60405180910390f35b3480156101b457600080fd5b506101bd6106d9565b6040516101ca91906130a4565b60405180910390f35b3480156101df57600080fd5b506101fa60048036038101906101f591906130fc565b61076b565b604051610207919061316a565b60405180910390f35b34801561021c57600080fd5b50610237600480360381019061023291906131b1565b6107f0565b005b34801561024557600080fd5b50610260600480360381019061025b91906130fc565b610907565b60405161026d91906132d6565b60405180910390f35b34801561028257600080fd5b5061029d600480360381019061029891906132f8565b610a99565b005b3480156102ab57600080fd5b506102c660048036038101906102c191906132f8565b610af9565b005b3480156102d457600080fd5b506102ef60048036038101906102ea9190613480565b610b19565b005b3480156102fd57600080fd5b50610318600480360381019061031391906130fc565b610baf565b604051610325919061316a565b60405180910390f35b34801561033a57600080fd5b50610355600480360381019061035091906134f5565b610c60565b005b34801561036357600080fd5b5061037e60048036038101906103799190613548565b610d39565b60405161038b9190613584565b60405180910390f35b3480156103a057600080fd5b506103a9610df0565b005b3480156103b757600080fd5b506103c0610e78565b005b3480156103ce57600080fd5b506103d7610ff6565b6040516103e4919061316a565b60405180910390f35b3480156103f957600080fd5b50610402611020565b60405161040f91906136de565b60405180910390f35b34801561042457600080fd5b5061042d611291565b60405161043a91906130a4565b60405180910390f35b34801561044f57600080fd5b5061046a60048036038101906104659190613700565b611323565b005b34801561047857600080fd5b50610493600480360381019061048e91906137e1565b6114a3565b005b6104af60048036038101906104aa91906130fc565b611505565b005b3480156104bd57600080fd5b506104d860048036038101906104d391906130fc565b611694565b6040516104e591906130a4565b60405180910390f35b3480156104fa57600080fd5b50610515600480360381019061051091906130fc565b61173b565b6040516105229190613584565b60405180910390f35b34801561053757600080fd5b50610552600480360381019061054d9190613864565b6117a3565b60405161055f9190612ff0565b60405180910390f35b34801561057457600080fd5b5061058f600480360381019061058a91906138a4565b611837565b005b34801561059d57600080fd5b506105b860048036038101906105b39190613548565b6118e5565b005b3480156105c657600080fd5b506105e160048036038101906105dc91906138e4565b6119dc565b6040516105ee9190613584565b60405180910390f35b60007f80ac58cd000000000000000000000000000000000000000000000000000000007bffffffffffffffffffffffffffffffffffffffffffffffffffffffff1916827bffffffffffffffffffffffffffffffffffffffffffffffffffffffff191614806106c257507f5b5e139f000000000000000000000000000000000000000000000000000000007bffffffffffffffffffffffffffffffffffffffffffffffffffffffff1916827bffffffffffffffffffffffffffffffffffffffffffffffffffffffff1916145b806106d257506106d182611ace565b5b9050919050565b6060606580546106e8906139c6565b80601f0160208091040260200160405190810160405280929190818152602001828054610714906139c6565b80156107615780601f1061073657610100808354040283529160200191610761565b820191906000526020600020905b81548152906001019060200180831161074457829003601f168201915b5050505050905090565b600061077682611b38565b6107b5576040517f08c379a00000000000000000000000000000000000000000000000000000000081526004016107ac90613a69565b60405180910390fd5b6069600083815260200190815260200160002060009054906101000a900473ffffffffffffffffffffffffffffffffffffffff169050919050565b60006107fb82610baf565b90508073ffffffffffffffffffffffffffffffffffffffff168373ffffffffffffffffffffffffffffffffffffffff160361086b576040517f08c379a000000000000000000000000000000000000000000000000000000000815260040161086290613afb565b60405180910390fd5b8073ffffffffffffffffffffffffffffffffffffffff1661088a611ba4565b73ffffffffffffffffffffffffffffffffffffffff1614806108b957506108b8816108b3611ba4565b6117a3565b5b6108f8576040517f08c379a00000000000000000000000000000000000000000000000000000000081526004016108ef90613b8d565b60405180910390fd5b6109028383611bac565b505050565b61090f612e68565b61091882611b38565b61092157600080fd5b60fc60008381526020019081526020016000206040518060a00160405290816000820154815260200160018201548152602001600282018054610963906139c6565b80601f016020809104026020016040519081016040528092919081815260200182805461098f906139c6565b80156109dc5780601f106109b1576101008083540402835291602001916109dc565b820191906000526020600020905b8154815290600101906020018083116109bf57829003601f168201915b505050505081526020016003820180546109f5906139c6565b80601f0160208091040260200160405190810160405280929190818152602001828054610a21906139c6565b8015610a6e5780601f10610a4357610100808354040283529160200191610a6e565b820191906000526020600020905b815481529060010190602001808311610a5157829003601f168201915b505050505081526020016004820160009054906101000a900460ff1615151515815250509050919050565b610aaa610aa4611ba4565b82611c65565b610ae9576040517f08c379a0000000000000000000000000000000000000000000000000000000008152600401610ae090613c1f565b60405180910390fd5b610af4838383611d43565b505050565b610b14838383604051806020016040528060008152506114a3565b505050565b610b21611ba4565b73ffffffffffffffffffffffffffffffffffffffff16610b3f610ff6565b73ffffffffffffffffffffffffffffffffffffffff1614610b95576040517f08c379a0000000000000000000000000000000000000000000000000000000008152600401610b8c90613c8b565b60405180910390fd5b8060fd9080519060200190610bab929190612e99565b5050565b6000806067600084815260200190815260200160002060009054906101000a900473ffffffffffffffffffffffffffffffffffffffff169050600073ffffffffffffffffffffffffffffffffffffffff168173ffffffffffffffffffffffffffffffffffffffff1603610c57576040517f08c379a0000000000000000000000000000000000000000000000000000000008152600401610c4e90613d1d565b60405180910390fd5b80915050919050565b610c6983611b38565b610ca8576040517f08c379a0000000000000000000000000000000000000000000000000000000008152600401610c9f90613daf565b60405180910390fd5b60008111610cb557600080fd5b610cbd611ba4565b73ffffffffffffffffffffffffffffffffffffffff16610cdc84610baf565b73ffffffffffffffffffffffffffffffffffffffff1614610cfc57600080fd5b8160fc600085815260200190815260200160002060040160006101000a81548160ff021916908315150217905550610d348382611837565b505050565b60008073ffffffffffffffffffffffffffffffffffffffff168273ffffffffffffffffffffffffffffffffffffffff1603610da9576040517f08c379a0000000000000000000000000000000000000000000000000000000008152600401610da090613e41565b60405180910390fd5b606860008373ffffffffffffffffffffffffffffffffffffffff1673ffffffffffffffffffffffffffffffffffffffff168152602001908152602001600020549050919050565b610df8611ba4565b73ffffffffffffffffffffffffffffffffffffffff16610e16610ff6565b73ffffffffffffffffffffffffffffffffffffffff1614610e6c576040517f08c379a0000000000000000000000000000000000000000000000000000000008152600401610e6390613c8b565b60405180910390fd5b610e766000611f9e565b565b600060019054906101000a900460ff1680610e9e575060008054906101000a900460ff16155b610edd576040517f08c379a0000000000000000000000000000000000000000000000000000000008152600401610ed490613ed3565b60405180910390fd5b60008060019054906101000a900460ff161590508015610f2d576001600060016101000a81548160ff02191690831515021790555060016000806101000a81548160ff0219169083151502179055505b610f35612064565b610f3d61214d565b610fb16040518060400160405280601781526020017f42616920587565205069616f205069616f2054657374360000000000000000008152506040518060400160405280600981526020017f425850505445535436000000000000000000000000000000000000000000000081525061222e565b610fd260405180608001604052806042815260200161483860429139610b19565b8015610ff35760008060016101000a81548160ff0219169083151502179055505b50565b6000609760009054906101000a900473ffffffffffffffffffffffffffffffffffffffff16905090565b6060600061102e60fb612323565b67ffffffffffffffff81111561104757611046613355565b5b60405190808252806020026020018201604052801561108057816020015b61106d612e68565b8152602001906001900390816110655790505b509050600080600190505b600161109760fb612323565b6110a19190613f22565b811015611288576001151560fc600083815260200190815260200160002060040160009054906101000a900460ff161515036112755760fc60008281526020019081526020016000206040518060a00160405290816000820154815260200160018201548152602001600282018054611119906139c6565b80601f0160208091040260200160405190810160405280929190818152602001828054611145906139c6565b80156111925780601f1061116757610100808354040283529160200191611192565b820191906000526020600020905b81548152906001019060200180831161117557829003601f168201915b505050505081526020016003820180546111ab906139c6565b80601f01602080910402602001604051908101604052809291908181526020018280546111d7906139c6565b80156112245780601f106111f957610100808354040283529160200191611224565b820191906000526020600020905b81548152906001019060200180831161120757829003601f168201915b505050505081526020016004820160009054906101000a900460ff16151515158152505083838151811061125b5761125a613f78565b5b6020026020010181905250818061127190613fa7565b9250505b808061128090613fa7565b91505061108b565b50819250505090565b6060606680546112a0906139c6565b80601f01602080910402602001604051908101604052809291908181526020018280546112cc906139c6565b80156113195780601f106112ee57610100808354040283529160200191611319565b820191906000526020600020905b8154815290600101906020018083116112fc57829003601f168201915b5050505050905090565b61132b611ba4565b73ffffffffffffffffffffffffffffffffffffffff168273ffffffffffffffffffffffffffffffffffffffff1603611398576040517f08c379a000000000000000000000000000000000000000000000000000000000815260040161138f9061403b565b60405180910390fd5b80606a60006113a5611ba4565b73ffffffffffffffffffffffffffffffffffffffff1673ffffffffffffffffffffffffffffffffffffffff16815260200190815260200160002060008473ffffffffffffffffffffffffffffffffffffffff1673ffffffffffffffffffffffffffffffffffffffff16815260200190815260200160002060006101000a81548160ff0219169083151502179055508173ffffffffffffffffffffffffffffffffffffffff16611452611ba4565b73ffffffffffffffffffffffffffffffffffffffff167f17307eab39ab6107e8899845ad3d59bd9653f200f220920489ca2b5937696c31836040516114979190612ff0565b60405180910390a35050565b6114b46114ae611ba4565b83611c65565b6114f3576040517f08c379a00000000000000000000000000000000000000000000000000000000081526004016114ea90613c1f565b60405180910390fd5b6114ff84848484612331565b50505050565b600260c9540361154a576040517f08c379a0000000000000000000000000000000000000000000000000000000008152600401611541906140a7565b60405180910390fd5b600260c981905550600073ffffffffffffffffffffffffffffffffffffffff163373ffffffffffffffffffffffffffffffffffffffff16141580156115c3575061159381610baf565b73ffffffffffffffffffffffffffffffffffffffff163373ffffffffffffffffffffffffffffffffffffffff1614155b6115cc57600080fd5b60fc6000828152602001908152602001600020600101543410156115ef57600080fd5b60006115fa82610baf565b90508073ffffffffffffffffffffffffffffffffffffffff166108fc349081150290604051600060405180830381858888f19350505050158015611642573d6000803e3d6000fd5b5061164e816001611323565b611659813384611d43565b600060fc600084815260200190815260200160002060040160006101000a81548160ff02191690831515021790555050600160c98190555050565b606061169f82611b38565b6116de576040517f08c379a00000000000000000000000000000000000000000000000000000000081526004016116d590614139565b60405180910390fd5b60006116e861238d565b905060008151116117085760405180602001604052806000815250611733565b806117128461241f565b604051602001611723929190614195565b6040516020818303038152906040525b915050919050565b600061174682611b38565b611785576040517f08c379a000000000000000000000000000000000000000000000000000000000815260040161177c9061422b565b60405180910390fd5b60fc6000838152602001908152602001600020600101549050919050565b6000606a60008473ffffffffffffffffffffffffffffffffffffffff1673ffffffffffffffffffffffffffffffffffffffff16815260200190815260200160002060008373ffffffffffffffffffffffffffffffffffffffff1673ffffffffffffffffffffffffffffffffffffffff16815260200190815260200160002060009054906101000a900460ff16905092915050565b61184082611b38565b61187f576040517f08c379a0000000000000000000000000000000000000000000000000000000008152600401611876906142bd565b60405180910390fd5b611887611ba4565b73ffffffffffffffffffffffffffffffffffffffff166118a683610baf565b73ffffffffffffffffffffffffffffffffffffffff16146118c657600080fd5b8060fc6000848152602001908152602001600020600101819055505050565b6118ed611ba4565b73ffffffffffffffffffffffffffffffffffffffff1661190b610ff6565b73ffffffffffffffffffffffffffffffffffffffff1614611961576040517f08c379a000000000000000000000000000000000000000000000000000000000815260040161195890613c8b565b60405180910390fd5b600073ffffffffffffffffffffffffffffffffffffffff168173ffffffffffffffffffffffffffffffffffffffff16036119d0576040517f08c379a00000000000000000000000000000000000000000000000000000000081526004016119c79061434f565b60405180910390fd5b6119d981611f9e565b50565b60006119e6611ba4565b73ffffffffffffffffffffffffffffffffffffffff16611a04610ff6565b73ffffffffffffffffffffffffffffffffffffffff1614611a5a576040517f08c379a0000000000000000000000000000000000000000000000000000000008152600401611a5190613c8b565b60405180910390fd5b60008511611a6757600080fd5b611a7160fb61257f565b6000611a7d60fb612323565b9050611a898782612595565b60006040518060a001604052808381526020018881526020018781526020018681526020018515158152509050611ac08282612762565b819250505095945050505050565b60007f01ffc9a7000000000000000000000000000000000000000000000000000000007bffffffffffffffffffffffffffffffffffffffffffffffffffffffff1916827bffffffffffffffffffffffffffffffffffffffffffffffffffffffff1916149050919050565b60008073ffffffffffffffffffffffffffffffffffffffff166067600084815260200190815260200160002060009054906101000a900473ffffffffffffffffffffffffffffffffffffffff1673ffffffffffffffffffffffffffffffffffffffff1614159050919050565b600033905090565b816069600083815260200190815260200160002060006101000a81548173ffffffffffffffffffffffffffffffffffffffff021916908373ffffffffffffffffffffffffffffffffffffffff160217905550808273ffffffffffffffffffffffffffffffffffffffff16611c1f83610baf565b73ffffffffffffffffffffffffffffffffffffffff167f8c5be1e5ebec7d5bd14f71427d1e84f3dd0314c0f7b2291e5b200ac8c7c3b92560405160405180910390a45050565b6000611c7082611b38565b611caf576040517f08c379a0000000000000000000000000000000000000000000000000000000008152600401611ca6906143e1565b60405180910390fd5b6000611cba83610baf565b90508073ffffffffffffffffffffffffffffffffffffffff168473ffffffffffffffffffffffffffffffffffffffff161480611d2957508373ffffffffffffffffffffffffffffffffffffffff16611d118461076b565b73ffffffffffffffffffffffffffffffffffffffff16145b80611d3a5750611d3981856117a3565b5b91505092915050565b8273ffffffffffffffffffffffffffffffffffffffff16611d6382610baf565b73ffffffffffffffffffffffffffffffffffffffff1614611db9576040517f08c379a0000000000000000000000000000000000000000000000000000000008152600401611db090614473565b60405180910390fd5b600073ffffffffffffffffffffffffffffffffffffffff168273ffffffffffffffffffffffffffffffffffffffff1603611e28576040517f08c379a0000000000000000000000000000000000000000000000000000000008152600401611e1f90614505565b60405180910390fd5b611e33838383612844565b611e3e600082611bac565b6001606860008573ffffffffffffffffffffffffffffffffffffffff1673ffffffffffffffffffffffffffffffffffffffff1681526020019081526020016000206000828254611e8e9190614525565b925050819055506001606860008473ffffffffffffffffffffffffffffffffffffffff1673ffffffffffffffffffffffffffffffffffffffff1681526020019081526020016000206000828254611ee59190613f22565b92505081905550816067600083815260200190815260200160002060006101000a81548173ffffffffffffffffffffffffffffffffffffffff021916908373ffffffffffffffffffffffffffffffffffffffff160217905550808273ffffffffffffffffffffffffffffffffffffffff168473ffffffffffffffffffffffffffffffffffffffff167fddf252ad1be2c89b69c2b068fc378daa952ba7f163c4a11628f55a4df523b3ef60405160405180910390a4505050565b6000609760009054906101000a900473ffffffffffffffffffffffffffffffffffffffff16905081609760006101000a81548173ffffffffffffffffffffffffffffffffffffffff021916908373ffffffffffffffffffffffffffffffffffffffff1602179055508173ffffffffffffffffffffffffffffffffffffffff168173ffffffffffffffffffffffffffffffffffffffff167f8be0079c531659141344cd1fd0a4f28419497f9722a3daafe3b4186f6b6457e060405160405180910390a35050565b600060019054906101000a900460ff168061208a575060008054906101000a900460ff16155b6120c9576040517f08c379a00000000000000000000000000000000000000000000000000000000081526004016120c090613ed3565b60405180910390fd5b60008060019054906101000a900460ff161590508015612119576001600060016101000a81548160ff02191690831515021790555060016000806101000a81548160ff0219169083151502179055505b612121612849565b612129612922565b801561214a5760008060016101000a81548160ff0219169083151502179055505b50565b600060019054906101000a900460ff1680612173575060008054906101000a900460ff16155b6121b2576040517f08c379a00000000000000000000000000000000000000000000000000000000081526004016121a990613ed3565b60405180910390fd5b60008060019054906101000a900460ff161590508015612202576001600060016101000a81548160ff02191690831515021790555060016000806101000a81548160ff0219169083151502179055505b61220a612a0b565b801561222b5760008060016101000a81548160ff0219169083151502179055505b50565b600060019054906101000a900460ff1680612254575060008054906101000a900460ff16155b612293576040517f08c379a000000000000000000000000000000000000000000000000000000000815260040161228a90613ed3565b60405180910390fd5b60008060019054906101000a900460ff1615905080156122e3576001600060016101000a81548160ff02191690831515021790555060016000806101000a81548160ff0219169083151502179055505b6122eb612849565b6122f3612aec565b6122fd8383612bc5565b801561231e5760008060016101000a81548160ff0219169083151502179055505b505050565b600081600001549050919050565b61233c848484611d43565b61234884848484612cce565b612387576040517f08c379a000000000000000000000000000000000000000000000000000000000815260040161237e906145cb565b60405180910390fd5b50505050565b606060fd805461239c906139c6565b80601f01602080910402602001604051908101604052809291908181526020018280546123c8906139c6565b80156124155780601f106123ea57610100808354040283529160200191612415565b820191906000526020600020905b8154815290600101906020018083116123f857829003601f168201915b5050505050905090565b606060008203612466576040518060400160405280600181526020017f3000000000000000000000000000000000000000000000000000000000000000815250905061257a565b600082905060005b6000821461249857808061248190613fa7565b915050600a82612491919061461a565b915061246e565b60008167ffffffffffffffff8111156124b4576124b3613355565b5b6040519080825280601f01601f1916602001820160405280156124e65781602001600182028036833780820191505090505b5090505b60008514612573576001826124ff9190614525565b9150600a8561250e919061464b565b603061251a9190613f22565b60f81b8183815181106125305761252f613f78565b5b60200101907effffffffffffffffffffffffffffffffffffffffffffffffffffffffffffff1916908160001a905350600a8561256c919061461a565b94506124ea565b8093505050505b919050565b6001816000016000828254019250508190555050565b600073ffffffffffffffffffffffffffffffffffffffff168273ffffffffffffffffffffffffffffffffffffffff1603612604576040517f08c379a00000000000000000000000000000000000000000000000000000000081526004016125fb906146c8565b60405180910390fd5b61260d81611b38565b1561264d576040517f08c379a000000000000000000000000000000000000000000000000000000000815260040161264490614734565b60405180910390fd5b61265960008383612844565b6001606860008473ffffffffffffffffffffffffffffffffffffffff1673ffffffffffffffffffffffffffffffffffffffff16815260200190815260200160002060008282546126a99190613f22565b92505081905550816067600083815260200190815260200160002060006101000a81548173ffffffffffffffffffffffffffffffffffffffff021916908373ffffffffffffffffffffffffffffffffffffffff160217905550808273ffffffffffffffffffffffffffffffffffffffff16600073ffffffffffffffffffffffffffffffffffffffff167fddf252ad1be2c89b69c2b068fc378daa952ba7f163c4a11628f55a4df523b3ef60405160405180910390a45050565b61276b82611b38565b61277457600080fd5b61277c611ba4565b73ffffffffffffffffffffffffffffffffffffffff1661279b83610baf565b73ffffffffffffffffffffffffffffffffffffffff16146127bb57600080fd5b8060fc6000848152602001908152602001600020600082015181600001556020820151816001015560408201518160020190805190602001906127ff929190612e99565b50606082015181600301908051906020019061281c929190612e99565b5060808201518160040160006101000a81548160ff0219169083151502179055509050505050565b505050565b600060019054906101000a900460ff168061286f575060008054906101000a900460ff16155b6128ae576040517f08c379a00000000000000000000000000000000000000000000000000000000081526004016128a590613ed3565b60405180910390fd5b60008060019054906101000a900460ff1615905080156128fe576001600060016101000a81548160ff02191690831515021790555060016000806101000a81548160ff0219169083151502179055505b801561291f5760008060016101000a81548160ff0219169083151502179055505b50565b600060019054906101000a900460ff1680612948575060008054906101000a900460ff16155b612987576040517f08c379a000000000000000000000000000000000000000000000000000000000815260040161297e90613ed3565b60405180910390fd5b60008060019054906101000a900460ff1615905080156129d7576001600060016101000a81548160ff02191690831515021790555060016000806101000a81548160ff0219169083151502179055505b6129e76129e2611ba4565b611f9e565b8015612a085760008060016101000a81548160ff0219169083151502179055505b50565b600060019054906101000a900460ff1680612a31575060008054906101000a900460ff16155b612a70576040517f08c379a0000000000000000000000000000000000000000000000000000000008152600401612a6790613ed3565b60405180910390fd5b60008060019054906101000a900460ff161590508015612ac0576001600060016101000a81548160ff02191690831515021790555060016000806101000a81548160ff0219169083151502179055505b600160c9819055508015612ae95760008060016101000a81548160ff0219169083151502179055505b50565b600060019054906101000a900460ff1680612b12575060008054906101000a900460ff16155b612b51576040517f08c379a0000000000000000000000000000000000000000000000000000000008152600401612b4890613ed3565b60405180910390fd5b60008060019054906101000a900460ff161590508015612ba1576001600060016101000a81548160ff02191690831515021790555060016000806101000a81548160ff0219169083151502179055505b8015612bc25760008060016101000a81548160ff0219169083151502179055505b50565b600060019054906101000a900460ff1680612beb575060008054906101000a900460ff16155b612c2a576040517f08c379a0000000000000000000000000000000000000000000000000000000008152600401612c2190613ed3565b60405180910390fd5b60008060019054906101000a900460ff161590508015612c7a576001600060016101000a81548160ff02191690831515021790555060016000806101000a81548160ff0219169083151502179055505b8260659080519060200190612c90929190612e99565b508160669080519060200190612ca7929190612e99565b508015612cc95760008060016101000a81548160ff0219169083151502179055505b505050565b6000612cef8473ffffffffffffffffffffffffffffffffffffffff16612e55565b15612e48578373ffffffffffffffffffffffffffffffffffffffff1663150b7a02612d18611ba4565b8786866040518563ffffffff1660e01b8152600401612d3a94939291906147a9565b6020604051808303816000875af1925050508015612d7657506040513d601f19601f82011682018060405250810190612d73919061480a565b60015b612df8573d8060008114612da6576040519150601f19603f3d011682016040523d82523d6000602084013e612dab565b606091505b506000815103612df0576040517f08c379a0000000000000000000000000000000000000000000000000000000008152600401612de7906145cb565b60405180910390fd5b805181602001fd5b63150b7a0260e01b7bffffffffffffffffffffffffffffffffffffffffffffffffffffffff1916817bffffffffffffffffffffffffffffffffffffffffffffffffffffffff191614915050612e4d565b600190505b949350505050565b600080823b905060008111915050919050565b6040518060a00160405280600081526020016000815260200160608152602001606081526020016000151581525090565b828054612ea5906139c6565b90600052602060002090601f016020900481019282612ec75760008555612f0e565b82601f10612ee057805160ff1916838001178555612f0e565b82800160010185558215612f0e579182015b82811115612f0d578251825591602001919060010190612ef2565b5b509050612f1b9190612f1f565b5090565b5b80821115612f38576000816000905550600101612f20565b5090565b6000604051905090565b600080fd5b600080fd5b60007fffffffff0000000000000000000000000000000000000000000000000000000082169050919050565b612f8581612f50565b8114612f9057600080fd5b50565b600081359050612fa281612f7c565b92915050565b600060208284031215612fbe57612fbd612f46565b5b6000612fcc84828501612f93565b91505092915050565b60008115159050919050565b612fea81612fd5565b82525050565b60006020820190506130056000830184612fe1565b92915050565b600081519050919050565b600082825260208201905092915050565b60005b8381101561304557808201518184015260208101905061302a565b83811115613054576000848401525b50505050565b6000601f19601f8301169050919050565b60006130768261300b565b6130808185613016565b9350613090818560208601613027565b6130998161305a565b840191505092915050565b600060208201905081810360008301526130be818461306b565b905092915050565b6000819050919050565b6130d9816130c6565b81146130e457600080fd5b50565b6000813590506130f6816130d0565b92915050565b60006020828403121561311257613111612f46565b5b6000613120848285016130e7565b91505092915050565b600073ffffffffffffffffffffffffffffffffffffffff82169050919050565b600061315482613129565b9050919050565b61316481613149565b82525050565b600060208201905061317f600083018461315b565b92915050565b61318e81613149565b811461319957600080fd5b50565b6000813590506131ab81613185565b92915050565b600080604083850312156131c8576131c7612f46565b5b60006131d68582860161319c565b92505060206131e7858286016130e7565b9150509250929050565b6131fa816130c6565b82525050565b600082825260208201905092915050565b600061321c8261300b565b6132268185613200565b9350613236818560208601613027565b61323f8161305a565b840191505092915050565b61325381612fd5565b82525050565b600060a08301600083015161327160008601826131f1565b50602083015161328460208601826131f1565b506040830151848203604086015261329c8282613211565b915050606083015184820360608601526132b68282613211565b91505060808301516132cb608086018261324a565b508091505092915050565b600060208201905081810360008301526132f08184613259565b905092915050565b60008060006060848603121561331157613310612f46565b5b600061331f8682870161319c565b93505060206133308682870161319c565b9250506040613341868287016130e7565b9150509250925092565b600080fd5b600080fd5b7f4e487b7100000000000000000000000000000000000000000000000000000000600052604160045260246000fd5b61338d8261305a565b810181811067ffffffffffffffff821117156133ac576133ab613355565b5b80604052505050565b60006133bf612f3c565b90506133cb8282613384565b919050565b600067ffffffffffffffff8211156133eb576133ea613355565b5b6133f48261305a565b9050602081019050919050565b82818337600083830152505050565b600061342361341e846133d0565b6133b5565b90508281526020810184848401111561343f5761343e613350565b5b61344a848285613401565b509392505050565b600082601f8301126134675761346661334b565b5b8135613477848260208601613410565b91505092915050565b60006020828403121561349657613495612f46565b5b600082013567ffffffffffffffff8111156134b4576134b3612f4b565b5b6134c084828501613452565b91505092915050565b6134d281612fd5565b81146134dd57600080fd5b50565b6000813590506134ef816134c9565b92915050565b60008060006060848603121561350e5761350d612f46565b5b600061351c868287016130e7565b935050602061352d868287016134e0565b925050604061353e868287016130e7565b9150509250925092565b60006020828403121561355e5761355d612f46565b5b600061356c8482850161319c565b91505092915050565b61357e816130c6565b82525050565b60006020820190506135996000830184613575565b92915050565b600081519050919050565b600082825260208201905092915050565b6000819050602082019050919050565b600060a0830160008301516135e360008601826131f1565b5060208301516135f660208601826131f1565b506040830151848203604086015261360e8282613211565b915050606083015184820360608601526136288282613211565b915050608083015161363d608086018261324a565b508091505092915050565b600061365483836135cb565b905092915050565b6000602082019050919050565b60006136748261359f565b61367e81856135aa565b935083602082028501613690856135bb565b8060005b858110156136cc57848403895281516136ad8582613648565b94506136b88361365c565b925060208a01995050600181019050613694565b50829750879550505050505092915050565b600060208201905081810360008301526136f88184613669565b905092915050565b6000806040838503121561371757613716612f46565b5b60006137258582860161319c565b9250506020613736858286016134e0565b9150509250929050565b600067ffffffffffffffff82111561375b5761375a613355565b5b6137648261305a565b9050602081019050919050565b600061378461377f84613740565b6133b5565b9050828152602081018484840111156137a05761379f613350565b5b6137ab848285613401565b509392505050565b600082601f8301126137c8576137c761334b565b5b81356137d8848260208601613771565b91505092915050565b600080600080608085870312156137fb576137fa612f46565b5b60006138098782880161319c565b945050602061381a8782880161319c565b935050604061382b878288016130e7565b925050606085013567ffffffffffffffff81111561384c5761384b612f4b565b5b613858878288016137b3565b91505092959194509250565b6000806040838503121561387b5761387a612f46565b5b60006138898582860161319c565b925050602061389a8582860161319c565b9150509250929050565b600080604083850312156138bb576138ba612f46565b5b60006138c9858286016130e7565b92505060206138da858286016130e7565b9150509250929050565b600080600080600060a08688031215613900576138ff612f46565b5b600061390e8882890161319c565b955050602061391f888289016130e7565b945050604086013567ffffffffffffffff8111156139405761393f612f4b565b5b61394c88828901613452565b935050606086013567ffffffffffffffff81111561396d5761396c612f4b565b5b61397988828901613452565b925050608061398a888289016134e0565b9150509295509295909350565b7f4e487b7100000000000000000000000000000000000000000000000000000000600052602260045260246000fd5b600060028204905060018216806139de57607f821691505b6020821081036139f1576139f0613997565b5b50919050565b7f4552433732313a20617070726f76656420717565727920666f72206e6f6e657860008201527f697374656e7420746f6b656e0000000000000000000000000000000000000000602082015250565b6000613a53602c83613016565b9150613a5e826139f7565b604082019050919050565b60006020820190508181036000830152613a8281613a46565b9050919050565b7f4552433732313a20617070726f76616c20746f2063757272656e74206f776e6560008201527f7200000000000000000000000000000000000000000000000000000000000000602082015250565b6000613ae5602183613016565b9150613af082613a89565b604082019050919050565b60006020820190508181036000830152613b1481613ad8565b9050919050565b7f4552433732313a20617070726f76652063616c6c6572206973206e6f74206f7760008201527f6e6572206e6f7220617070726f76656420666f7220616c6c0000000000000000602082015250565b6000613b77603883613016565b9150613b8282613b1b565b604082019050919050565b60006020820190508181036000830152613ba681613b6a565b9050919050565b7f4552433732313a207472616e736665722063616c6c6572206973206e6f74206f60008201527f776e6572206e6f7220617070726f766564000000000000000000000000000000602082015250565b6000613c09603183613016565b9150613c1482613bad565b604082019050919050565b60006020820190508181036000830152613c3881613bfc565b9050919050565b7f4f776e61626c653a2063616c6c6572206973206e6f7420746865206f776e6572600082015250565b6000613c75602083613016565b9150613c8082613c3f565b602082019050919050565b60006020820190508181036000830152613ca481613c68565b9050919050565b7f4552433732313a206f776e657220717565727920666f72206e6f6e657869737460008201527f656e7420746f6b656e0000000000000000000000000000000000000000000000602082015250565b6000613d07602983613016565b9150613d1282613cab565b604082019050919050565b60006020820190508181036000830152613d3681613cfa565b9050919050565b7f4552433732314d657461646174613a2053616c6520736574206f66206e6f6e6560008201527f78697374656e7420746f6b656e00000000000000000000000000000000000000602082015250565b6000613d99602d83613016565b9150613da482613d3d565b604082019050919050565b60006020820190508181036000830152613dc881613d8c565b9050919050565b7f4552433732313a2062616c616e636520717565727920666f7220746865207a6560008201527f726f206164647265737300000000000000000000000000000000000000000000602082015250565b6000613e2b602a83613016565b9150613e3682613dcf565b604082019050919050565b60006020820190508181036000830152613e5a81613e1e565b9050919050565b7f496e697469616c697a61626c653a20636f6e747261637420697320616c72656160008201527f647920696e697469616c697a6564000000000000000000000000000000000000602082015250565b6000613ebd602e83613016565b9150613ec882613e61565b604082019050919050565b60006020820190508181036000830152613eec81613eb0565b9050919050565b7f4e487b7100000000000000000000000000000000000000000000000000000000600052601160045260246000fd5b6000613f2d826130c6565b9150613f38836130c6565b9250827fffffffffffffffffffffffffffffffffffffffffffffffffffffffffffffffff03821115613f6d57613f6c613ef3565b5b828201905092915050565b7f4e487b7100000000000000000000000000000000000000000000000000000000600052603260045260246000fd5b6000613fb2826130c6565b91507fffffffffffffffffffffffffffffffffffffffffffffffffffffffffffffffff8203613fe457613fe3613ef3565b5b600182019050919050565b7f4552433732313a20617070726f766520746f2063616c6c657200000000000000600082015250565b6000614025601983613016565b915061403082613fef565b602082019050919050565b6000602082019050818103600083015261405481614018565b9050919050565b7f5265656e7472616e637947756172643a207265656e7472616e742063616c6c00600082015250565b6000614091601f83613016565b915061409c8261405b565b602082019050919050565b600060208201905081810360008301526140c081614084565b9050919050565b7f4552433732314d657461646174613a2055524920717565727920666f72206e6f60008201527f6e6578697374656e7420746f6b656e0000000000000000000000000000000000602082015250565b6000614123602f83613016565b915061412e826140c7565b604082019050919050565b6000602082019050818103600083015261415281614116565b9050919050565b600081905092915050565b600061416f8261300b565b6141798185614159565b9350614189818560208601613027565b80840191505092915050565b60006141a18285614164565b91506141ad8284614164565b91508190509392505050565b7f4552433732314d657461646174613a20507269636520717565727920666f722060008201527f6e6f6e6578697374656e7420746f6b656e000000000000000000000000000000602082015250565b6000614215603183613016565b9150614220826141b9565b604082019050919050565b6000602082019050818103600083015261424481614208565b9050919050565b7f4552433732314d657461646174613a20507269636520736574206f66206e6f6e60008201527f6578697374656e7420746f6b656e000000000000000000000000000000000000602082015250565b60006142a7602e83613016565b91506142b28261424b565b604082019050919050565b600060208201905081810360008301526142d68161429a565b9050919050565b7f4f776e61626c653a206e6577206f776e657220697320746865207a65726f206160008201527f6464726573730000000000000000000000000000000000000000000000000000602082015250565b6000614339602683613016565b9150614344826142dd565b604082019050919050565b600060208201905081810360008301526143688161432c565b9050919050565b7f4552433732313a206f70657261746f7220717565727920666f72206e6f6e657860008201527f697374656e7420746f6b656e0000000000000000000000000000000000000000602082015250565b60006143cb602c83613016565b91506143d68261436f565b604082019050919050565b600060208201905081810360008301526143fa816143be565b9050919050565b7f4552433732313a207472616e73666572206f6620746f6b656e2074686174206960008201527f73206e6f74206f776e0000000000000000000000000000000000000000000000602082015250565b600061445d602983613016565b915061446882614401565b604082019050919050565b6000602082019050818103600083015261448c81614450565b9050919050565b7f4552433732313a207472616e7366657220746f20746865207a65726f2061646460008201527f7265737300000000000000000000000000000000000000000000000000000000602082015250565b60006144ef602483613016565b91506144fa82614493565b604082019050919050565b6000602082019050818103600083015261451e816144e2565b9050919050565b6000614530826130c6565b915061453b836130c6565b92508282101561454e5761454d613ef3565b5b828203905092915050565b7f4552433732313a207472616e7366657220746f206e6f6e20455243373231526560008201527f63656976657220696d706c656d656e7465720000000000000000000000000000602082015250565b60006145b5603283613016565b91506145c082614559565b604082019050919050565b600060208201905081810360008301526145e4816145a8565b9050919050565b7f4e487b7100000000000000000000000000000000000000000000000000000000600052601260045260246000fd5b6000614625826130c6565b9150614630836130c6565b9250826146405761463f6145eb565b5b828204905092915050565b6000614656826130c6565b9150614661836130c6565b925082614671576146706145eb565b5b828206905092915050565b7f4552433732313a206d696e7420746f20746865207a65726f2061646472657373600082015250565b60006146b2602083613016565b91506146bd8261467c565b602082019050919050565b600060208201905081810360008301526146e1816146a5565b9050919050565b7f4552433732313a20746f6b656e20616c7265616479206d696e74656400000000600082015250565b600061471e601c83613016565b9150614729826146e8565b602082019050919050565b6000602082019050818103600083015261474d81614711565b9050919050565b600081519050919050565b600082825260208201905092915050565b600061477b82614754565b614785818561475f565b9350614795818560208601613027565b61479e8161305a565b840191505092915050565b60006080820190506147be600083018761315b565b6147cb602083018661315b565b6147d86040830185613575565b81810360608301526147ea8184614770565b905095945050505050565b60008151905061480481612f7c565b92915050565b6000602082840312156148205761481f612f46565b5b600061482e848285016147f5565b9150509291505056fe68747470733a2f2f326b7a397964387a746a2e657865637574652d6170692e75732d656173742d312e616d617a6f6e6177732e636f6d2f50726f642f68656c6c6f2fa2646970667358221220ce874b9ed91942cb428e3b609c1453e5466bad4d90f62e9972b9143f904c829364736f6c634300080d0033",
  "immutableReferences": {},
  "source": "// SPDX-License-Identifier: MIT\npragma solidity >=0.4.22 <0.9.0;\npragma experimental ABIEncoderV2;\n\nimport \"../node_modules/@openzeppelin/contracts-upgradeable/token/ERC721/ERC721Upgradeable.sol\";\nimport \"../node_modules/@openzeppelin/contracts-upgradeable/access/OwnableUpgradeable.sol\";\nimport \"../node_modules/@openzeppelin/contracts-upgradeable/security/ReentrancyGuardUpgradeable.sol\";\nimport \"../node_modules/@openzeppelin/contracts-upgradeable/utils/CountersUpgradeable.sol\";\n\ncontract NFTT is ERC721Upgradeable, OwnableUpgradeable, ReentrancyGuardUpgradeable {\n    using CountersUpgradeable for CountersUpgradeable.Counter;\n    CountersUpgradeable.Counter private _tokenIds;\n\n    mapping (uint256 => TokenMeta) private _tokenMeta;\n\n    string baseURI;\n\n    struct TokenMeta {\n        uint256 id;\n        uint256 price;\n        string name;\n        string image;\n        bool sale;\n    }\n\n    function initialize() public initializer {\n        OwnableUpgradeable.__Ownable_init();\n        ReentrancyGuardUpgradeable.__ReentrancyGuard_init();\n        ERC721Upgradeable.__ERC721_init(\"Bai Xue Piao Piao Test6\", \"BXPPTEST6\");\n        setBaseURI(\"https://2kz9yd8ztj.execute-api.us-east-1.amazonaws.com/Prod/hello/\");\n    }\n\n    /**\n     * @dev Base URI for computing {tokenURI}. Empty by default, can be overriden\n     * in child contracts.\n     */\n    function _baseURI() internal view override virtual returns (string memory) {\n        return baseURI;\n    }\n\n    function setBaseURI(string memory _newBaseURI) public virtual onlyOwner {\n        baseURI = _newBaseURI;\n    }\n\n    function getAllOnSale () public view virtual returns( TokenMeta[] memory ) {\n        TokenMeta[] memory tokensOnSale = new TokenMeta[](_tokenIds.current());\n        uint256 counter = 0;\n\n        for(uint i = 1; i < _tokenIds.current() + 1; i++) {\n            if(_tokenMeta[i].sale == true) {\n                tokensOnSale[counter] = _tokenMeta[i];\n                counter++;\n            }\n        }\n        return tokensOnSale;\n    }\n\n    /**\n     * @dev sets maps token to its price\n     * @param _tokenId uint256 token ID (token number)\n     * @param _sale bool token on sale\n     * @param _price unit256 token price\n     * \n     * Requirements: \n     * `tokenId` must exist\n     * `price` must be more than 0\n     * `owner` must the msg.owner\n     */\n    function setTokenSale(uint256 _tokenId, bool _sale, uint256 _price) public {\n        require(_exists(_tokenId), \"ERC721Metadata: Sale set of nonexistent token\");\n        require(_price > 0);\n        require(ownerOf(_tokenId) == _msgSender());\n\n        _tokenMeta[_tokenId].sale = _sale;\n        setTokenPrice(_tokenId, _price);\n    }\n\n    /**\n     * @dev sets maps token to its price\n     * @param _tokenId uint256 token ID (token number)\n     * @param _price uint256 token price\n     * \n     * Requirements: \n     * `tokenId` must exist\n     * `owner` must the msg.owner\n     */\n    function setTokenPrice(uint256 _tokenId, uint256 _price) public {\n        require(_exists(_tokenId), \"ERC721Metadata: Price set of nonexistent token\");\n        require(ownerOf(_tokenId) == _msgSender());\n        _tokenMeta[_tokenId].price = _price;\n    }\n\n    function tokenPrice(uint256 tokenId) public view virtual returns (uint256) {\n        require(_exists(tokenId), \"ERC721Metadata: Price query for nonexistent token\");\n        return _tokenMeta[tokenId].price;\n    }\n\n    /**\n     * @dev sets token meta\n     * @param _tokenId uint256 token ID (token number)\n     * @param _meta TokenMeta \n     * \n     * Requirements: \n     * `tokenId` must exist\n     * `owner` must the msg.owner\n     */\n    function _setTokenMeta(uint256 _tokenId, TokenMeta memory _meta) private {\n        require(_exists(_tokenId));\n        require(ownerOf(_tokenId) == _msgSender());\n        _tokenMeta[_tokenId] = _meta;\n    }\n\n    function tokenMeta(uint256 _tokenId) public view returns (TokenMeta memory) {\n        require(_exists(_tokenId));\n        return _tokenMeta[_tokenId];\n    }\n\n    /**\n     * @dev purchase _tokenId\n     * @param _tokenId uint256 token ID (token number)\n     */\n    function purchaseToken(uint256 _tokenId) public payable nonReentrant {\n        require(msg.sender != address(0) && msg.sender != ownerOf(_tokenId));\n        require(msg.value >= _tokenMeta[_tokenId].price);\n        address tokenSeller = ownerOf(_tokenId);\n\n        payable(tokenSeller).transfer(msg.value);\n\n        setApprovalForAll(tokenSeller, true);\n        _transfer(tokenSeller, msg.sender, _tokenId);\n        _tokenMeta[_tokenId].sale = false;\n    }\n\n    function mintCollectable(\n        address _owner, \n        uint256 _price, \n        string memory _name, \n        string memory _image, \n        bool _sale\n    )\n        public\n        onlyOwner\n        returns (uint256)\n    {\n        require(_price > 0);\n\n        _tokenIds.increment();\n\n        uint256 newItemId = _tokenIds.current();\n        _mint(_owner, newItemId);\n\n        TokenMeta memory meta = TokenMeta(newItemId, _price, _name, _image, _sale);\n        _setTokenMeta(newItemId, meta);\n\n        return newItemId;\n    }\n}",
  "sourcePath": "/Users/liyufei/nft-contracts/contracts/NFTT.sol",
  "compiler": {
    "name": "solc",
    "version": "0.8.13+commit.abaa5c0e.Emscripten.clang"
  },
  "schemaVersion": "3.4.1",
  "updatedAt": "2022-04-19T07:43:16.362Z",
  "devdoc": {
    "kind": "dev",
    "methods": {
      "approve(address,uint256)": {
        "details": "See {IERC721-approve}."
      },
      "balanceOf(address)": {
        "details": "See {IERC721-balanceOf}."
      },
      "getApproved(uint256)": {
        "details": "See {IERC721-getApproved}."
      },
      "isApprovedForAll(address,address)": {
        "details": "See {IERC721-isApprovedForAll}."
      },
      "name()": {
        "details": "See {IERC721Metadata-name}."
      },
      "owner()": {
        "details": "Returns the address of the current owner."
      },
      "ownerOf(uint256)": {
        "details": "See {IERC721-ownerOf}."
      },
      "purchaseToken(uint256)": {
        "details": "purchase _tokenId",
        "params": {
          "_tokenId": "uint256 token ID (token number)"
        }
      },
      "renounceOwnership()": {
        "details": "Leaves the contract without owner. It will not be possible to call `onlyOwner` functions anymore. Can only be called by the current owner. NOTE: Renouncing ownership will leave the contract without an owner, thereby removing any functionality that is only available to the owner."
      },
      "safeTransferFrom(address,address,uint256)": {
        "details": "See {IERC721-safeTransferFrom}."
      },
      "safeTransferFrom(address,address,uint256,bytes)": {
        "details": "See {IERC721-safeTransferFrom}."
      },
      "setApprovalForAll(address,bool)": {
        "details": "See {IERC721-setApprovalForAll}."
      },
      "setTokenPrice(uint256,uint256)": {
        "details": "sets maps token to its price",
        "params": {
          "_price": "uint256 token price  Requirements:  `tokenId` must exist `owner` must the msg.owner",
          "_tokenId": "uint256 token ID (token number)"
        }
      },
      "setTokenSale(uint256,bool,uint256)": {
        "details": "sets maps token to its price",
        "params": {
          "_price": "unit256 token price  Requirements:  `tokenId` must exist `price` must be more than 0 `owner` must the msg.owner",
          "_sale": "bool token on sale",
          "_tokenId": "uint256 token ID (token number)"
        }
      },
      "supportsInterface(bytes4)": {
        "details": "See {IERC165-supportsInterface}."
      },
      "symbol()": {
        "details": "See {IERC721Metadata-symbol}."
      },
      "tokenURI(uint256)": {
        "details": "See {IERC721Metadata-tokenURI}."
      },
      "transferFrom(address,address,uint256)": {
        "details": "See {IERC721-transferFrom}."
      },
      "transferOwnership(address)": {
        "details": "Transfers ownership of the contract to a new account (`newOwner`). Can only be called by the current owner."
      }
    },
    "version": 1
  },
  "userdoc": {
    "kind": "user",
    "methods": {},
    "version": 1
  }
}